{
  "_format": "hh-sol-artifact-1",
  "contractName": "NFT",
  "sourceName": "contracts/NFT.sol",
  "abi": [
    {
      "inputs": [
        {
          "internalType": "string",
          "name": "_name",
          "type": "string"
        },
        {
          "internalType": "string",
          "name": "_symbol",
          "type": "string"
        },
        {
          "internalType": "uint256",
          "name": "_cost",
          "type": "uint256"
        },
        {
          "internalType": "uint256",
          "name": "_maxSupply",
          "type": "uint256"
        },
        {
          "internalType": "uint256",
          "name": "_allowMintingOn",
          "type": "uint256"
        },
        {
          "internalType": "string",
          "name": "_baseURI",
          "type": "string"
        },
        {
          "internalType": "bytes32",
          "name": "_merkleRoot",
          "type": "bytes32"
        }
      ],
      "stateMutability": "nonpayable",
      "type": "constructor"
    },
    {
      "anonymous": false,
      "inputs": [
        {
          "indexed": true,
          "internalType": "address",
          "name": "owner",
          "type": "address"
        },
        {
          "indexed": true,
          "internalType": "address",
          "name": "approved",
          "type": "address"
        },
        {
          "indexed": true,
          "internalType": "uint256",
          "name": "tokenId",
          "type": "uint256"
        }
      ],
      "name": "Approval",
      "type": "event"
    },
    {
      "anonymous": false,
      "inputs": [
        {
          "indexed": true,
          "internalType": "address",
          "name": "owner",
          "type": "address"
        },
        {
          "indexed": true,
          "internalType": "address",
          "name": "operator",
          "type": "address"
        },
        {
          "indexed": false,
          "internalType": "bool",
          "name": "approved",
          "type": "bool"
        }
      ],
      "name": "ApprovalForAll",
      "type": "event"
    },
    {
      "anonymous": false,
      "inputs": [
        {
          "indexed": true,
          "internalType": "bytes32",
          "name": "newMerkleRoot",
          "type": "bytes32"
        }
      ],
      "name": "MerkleRootChanged",
      "type": "event"
    },
    {
      "anonymous": false,
      "inputs": [
        {
          "indexed": false,
          "internalType": "uint256",
          "name": "amount",
          "type": "uint256"
        },
        {
          "indexed": true,
          "internalType": "address",
          "name": "minter",
          "type": "address"
        }
      ],
      "name": "Mint",
      "type": "event"
    },
    {
      "anonymous": false,
      "inputs": [
        {
          "indexed": true,
          "internalType": "address",
          "name": "previousOwner",
          "type": "address"
        },
        {
          "indexed": true,
          "internalType": "address",
          "name": "newOwner",
          "type": "address"
        }
      ],
      "name": "OwnershipTransferred",
      "type": "event"
    },
    {
      "anonymous": false,
      "inputs": [
        {
          "indexed": true,
          "internalType": "address",
          "name": "from",
          "type": "address"
        },
        {
          "indexed": true,
          "internalType": "address",
          "name": "to",
          "type": "address"
        },
        {
          "indexed": true,
          "internalType": "uint256",
          "name": "tokenId",
          "type": "uint256"
        }
      ],
      "name": "Transfer",
      "type": "event"
    },
    {
      "anonymous": false,
      "inputs": [
        {
          "indexed": true,
          "internalType": "bool",
          "name": "whitelistOnly",
          "type": "bool"
        }
      ],
      "name": "WhitelistOnlyChanged",
      "type": "event"
    },
    {
      "anonymous": false,
      "inputs": [
        {
          "indexed": false,
          "internalType": "uint256",
          "name": "amount",
          "type": "uint256"
        },
        {
          "indexed": false,
          "internalType": "address",
          "name": "owner",
          "type": "address"
        }
      ],
      "name": "Withdraw",
      "type": "event"
    },
    {
      "inputs": [],
      "name": "allowMintingOn",
      "outputs": [
        {
          "internalType": "uint256",
          "name": "",
          "type": "uint256"
        }
      ],
      "stateMutability": "view",
      "type": "function"
    },
    {
      "inputs": [
        {
          "internalType": "address",
          "name": "to",
          "type": "address"
        },
        {
          "internalType": "uint256",
          "name": "tokenId",
          "type": "uint256"
        }
      ],
      "name": "approve",
      "outputs": [],
      "stateMutability": "nonpayable",
      "type": "function"
    },
    {
      "inputs": [
        {
          "internalType": "address",
          "name": "owner",
          "type": "address"
        }
      ],
      "name": "balanceOf",
      "outputs": [
        {
          "internalType": "uint256",
          "name": "",
          "type": "uint256"
        }
      ],
      "stateMutability": "view",
      "type": "function"
    },
    {
      "inputs": [],
      "name": "baseExtension",
      "outputs": [
        {
          "internalType": "string",
          "name": "",
          "type": "string"
        }
      ],
      "stateMutability": "view",
      "type": "function"
    },
    {
      "inputs": [],
      "name": "baseURI",
      "outputs": [
        {
          "internalType": "string",
          "name": "",
          "type": "string"
        }
      ],
      "stateMutability": "view",
      "type": "function"
    },
    {
      "inputs": [],
      "name": "cost",
      "outputs": [
        {
          "internalType": "uint256",
          "name": "",
          "type": "uint256"
        }
      ],
      "stateMutability": "view",
      "type": "function"
    },
    {
      "inputs": [
        {
          "internalType": "uint256",
          "name": "tokenId",
          "type": "uint256"
        }
      ],
      "name": "getApproved",
      "outputs": [
        {
          "internalType": "address",
          "name": "",
          "type": "address"
        }
      ],
      "stateMutability": "view",
      "type": "function"
    },
    {
      "inputs": [
        {
          "internalType": "address",
          "name": "owner",
          "type": "address"
        },
        {
          "internalType": "address",
          "name": "operator",
          "type": "address"
        }
      ],
      "name": "isApprovedForAll",
      "outputs": [
        {
          "internalType": "bool",
          "name": "",
          "type": "bool"
        }
      ],
      "stateMutability": "view",
      "type": "function"
    },
    {
      "inputs": [
        {
          "internalType": "address",
          "name": "_address",
          "type": "address"
        },
        {
          "internalType": "bytes32[]",
          "name": "_merkleProof",
          "type": "bytes32[]"
        }
      ],
      "name": "isWhitelisted",
      "outputs": [
        {
          "internalType": "bool",
          "name": "",
          "type": "bool"
        }
      ],
      "stateMutability": "view",
      "type": "function"
    },
    {
      "inputs": [],
      "name": "maxMintAmount",
      "outputs": [
        {
          "internalType": "uint256",
          "name": "",
          "type": "uint256"
        }
      ],
      "stateMutability": "view",
      "type": "function"
    },
    {
      "inputs": [],
      "name": "maxSupply",
      "outputs": [
        {
          "internalType": "uint256",
          "name": "",
          "type": "uint256"
        }
      ],
      "stateMutability": "view",
      "type": "function"
    },
    {
      "inputs": [],
      "name": "merkleRoot",
      "outputs": [
        {
          "internalType": "bytes32",
          "name": "",
          "type": "bytes32"
        }
      ],
      "stateMutability": "view",
      "type": "function"
    },
    {
      "inputs": [
        {
          "internalType": "uint256",
          "name": "_mintAmount",
          "type": "uint256"
        },
        {
          "internalType": "bytes32[]",
          "name": "_merkleProof",
          "type": "bytes32[]"
        }
      ],
      "name": "mint",
      "outputs": [],
      "stateMutability": "payable",
      "type": "function"
    },
    {
      "inputs": [],
      "name": "name",
      "outputs": [
        {
          "internalType": "string",
          "name": "",
          "type": "string"
        }
      ],
      "stateMutability": "view",
      "type": "function"
    },
    {
      "inputs": [],
      "name": "owner",
      "outputs": [
        {
          "internalType": "address",
          "name": "",
          "type": "address"
        }
      ],
      "stateMutability": "view",
      "type": "function"
    },
    {
      "inputs": [
        {
          "internalType": "uint256",
          "name": "tokenId",
          "type": "uint256"
        }
      ],
      "name": "ownerOf",
      "outputs": [
        {
          "internalType": "address",
          "name": "",
          "type": "address"
        }
      ],
      "stateMutability": "view",
      "type": "function"
    },
    {
      "inputs": [],
      "name": "renounceOwnership",
      "outputs": [],
      "stateMutability": "nonpayable",
      "type": "function"
    },
    {
      "inputs": [
        {
          "internalType": "address",
          "name": "from",
          "type": "address"
        },
        {
          "internalType": "address",
          "name": "to",
          "type": "address"
        },
        {
          "internalType": "uint256",
          "name": "tokenId",
          "type": "uint256"
        }
      ],
      "name": "safeTransferFrom",
      "outputs": [],
      "stateMutability": "nonpayable",
      "type": "function"
    },
    {
      "inputs": [
        {
          "internalType": "address",
          "name": "from",
          "type": "address"
        },
        {
          "internalType": "address",
          "name": "to",
          "type": "address"
        },
        {
          "internalType": "uint256",
          "name": "tokenId",
          "type": "uint256"
        },
        {
          "internalType": "bytes",
          "name": "data",
          "type": "bytes"
        }
      ],
      "name": "safeTransferFrom",
      "outputs": [],
      "stateMutability": "nonpayable",
      "type": "function"
    },
    {
      "inputs": [
        {
          "internalType": "address",
          "name": "operator",
          "type": "address"
        },
        {
          "internalType": "bool",
          "name": "approved",
          "type": "bool"
        }
      ],
      "name": "setApprovalForAll",
      "outputs": [],
      "stateMutability": "nonpayable",
      "type": "function"
    },
    {
      "inputs": [
        {
          "internalType": "uint256",
          "name": "_newCost",
          "type": "uint256"
        }
      ],
      "name": "setCost",
      "outputs": [],
      "stateMutability": "nonpayable",
      "type": "function"
    },
    {
      "inputs": [
        {
          "internalType": "uint256",
          "name": "_newMaxMintAmount",
          "type": "uint256"
        }
      ],
      "name": "setMaxMintAmount",
      "outputs": [],
      "stateMutability": "nonpayable",
      "type": "function"
    },
    {
      "inputs": [
        {
          "internalType": "bytes32",
          "name": "_merkleRoot",
          "type": "bytes32"
        }
      ],
      "name": "setMerkleRoot",
      "outputs": [],
      "stateMutability": "nonpayable",
      "type": "function"
    },
    {
      "inputs": [
        {
          "internalType": "bool",
          "name": "_whitelistOnly",
          "type": "bool"
        }
      ],
      "name": "setWhitelistOnly",
      "outputs": [],
      "stateMutability": "nonpayable",
      "type": "function"
    },
    {
      "inputs": [
        {
          "internalType": "bytes4",
          "name": "interfaceId",
          "type": "bytes4"
        }
      ],
      "name": "supportsInterface",
      "outputs": [
        {
          "internalType": "bool",
          "name": "",
          "type": "bool"
        }
      ],
      "stateMutability": "view",
      "type": "function"
    },
    {
      "inputs": [],
      "name": "symbol",
      "outputs": [
        {
          "internalType": "string",
          "name": "",
          "type": "string"
        }
      ],
      "stateMutability": "view",
      "type": "function"
    },
    {
      "inputs": [
        {
          "internalType": "uint256",
          "name": "index",
          "type": "uint256"
        }
      ],
      "name": "tokenByIndex",
      "outputs": [
        {
          "internalType": "uint256",
          "name": "",
          "type": "uint256"
        }
      ],
      "stateMutability": "view",
      "type": "function"
    },
    {
      "inputs": [
        {
          "internalType": "address",
          "name": "owner",
          "type": "address"
        },
        {
          "internalType": "uint256",
          "name": "index",
          "type": "uint256"
        }
      ],
      "name": "tokenOfOwnerByIndex",
      "outputs": [
        {
          "internalType": "uint256",
          "name": "",
          "type": "uint256"
        }
      ],
      "stateMutability": "view",
      "type": "function"
    },
    {
      "inputs": [
        {
          "internalType": "uint256",
          "name": "_tokenId",
          "type": "uint256"
        }
      ],
      "name": "tokenURI",
      "outputs": [
        {
          "internalType": "string",
          "name": "",
          "type": "string"
        }
      ],
      "stateMutability": "view",
      "type": "function"
    },
    {
      "inputs": [],
      "name": "totalSupply",
      "outputs": [
        {
          "internalType": "uint256",
          "name": "",
          "type": "uint256"
        }
      ],
      "stateMutability": "view",
      "type": "function"
    },
    {
      "inputs": [
        {
          "internalType": "address",
          "name": "from",
          "type": "address"
        },
        {
          "internalType": "address",
          "name": "to",
          "type": "address"
        },
        {
          "internalType": "uint256",
          "name": "tokenId",
          "type": "uint256"
        }
      ],
      "name": "transferFrom",
      "outputs": [],
      "stateMutability": "nonpayable",
      "type": "function"
    },
    {
      "inputs": [
        {
          "internalType": "address",
          "name": "newOwner",
          "type": "address"
        }
      ],
      "name": "transferOwnership",
      "outputs": [],
      "stateMutability": "nonpayable",
      "type": "function"
    },
    {
      "inputs": [
        {
          "internalType": "address",
          "name": "_owner",
          "type": "address"
        }
      ],
      "name": "walletOfOwner",
      "outputs": [
        {
          "internalType": "uint256[]",
          "name": "",
          "type": "uint256[]"
        }
      ],
      "stateMutability": "view",
      "type": "function"
    },
    {
      "inputs": [],
      "name": "whitelistOnly",
      "outputs": [
        {
          "internalType": "bool",
          "name": "",
          "type": "bool"
        }
      ],
      "stateMutability": "view",
      "type": "function"
    },
    {
      "inputs": [],
      "name": "withdraw",
      "outputs": [],
      "stateMutability": "nonpayable",
      "type": "function"
    }
  ],
  "bytecode": "0x60806040526040518060400160405280600581526020017f2e6a736f6e000000000000000000000000000000000000000000000000000000815250600c90816200004a919062000469565b506005600f556001601260006101000a81548160ff0219169083151502179055503480156200007857600080fd5b50604051620049023803806200490283398181016040528101906200009e919062000720565b86868160009081620000b1919062000469565b508060019081620000c3919062000469565b505050620000e6620000da6200012160201b60201c565b6200012960201b60201c565b84600d8190555083600e819055508260108190555081600b90816200010c919062000469565b50806011819055505050505050505062000830565b600033905090565b6000600a60009054906101000a900473ffffffffffffffffffffffffffffffffffffffff16905081600a60006101000a81548173ffffffffffffffffffffffffffffffffffffffff021916908373ffffffffffffffffffffffffffffffffffffffff1602179055508173ffffffffffffffffffffffffffffffffffffffff168173ffffffffffffffffffffffffffffffffffffffff167f8be0079c531659141344cd1fd0a4f28419497f9722a3daafe3b4186f6b6457e060405160405180910390a35050565b600081519050919050565b7f4e487b7100000000000000000000000000000000000000000000000000000000600052604160045260246000fd5b7f4e487b7100000000000000000000000000000000000000000000000000000000600052602260045260246000fd5b600060028204905060018216806200027157607f821691505b60208210810362000287576200028662000229565b5b50919050565b60008190508160005260206000209050919050565b60006020601f8301049050919050565b600082821b905092915050565b600060088302620002f17fffffffffffffffffffffffffffffffffffffffffffffffffffffffffffffffff82620002b2565b620002fd8683620002b2565b95508019841693508086168417925050509392505050565b6000819050919050565b6000819050919050565b60006200034a620003446200033e8462000315565b6200031f565b62000315565b9050919050565b6000819050919050565b620003668362000329565b6200037e620003758262000351565b848454620002bf565b825550505050565b600090565b6200039562000386565b620003a28184846200035b565b505050565b5b81811015620003ca57620003be6000826200038b565b600181019050620003a8565b5050565b601f8211156200041957620003e3816200028d565b620003ee84620002a2565b81016020851015620003fe578190505b620004166200040d85620002a2565b830182620003a7565b50505b505050565b600082821c905092915050565b60006200043e600019846008026200041e565b1980831691505092915050565b60006200045983836200042b565b9150826002028217905092915050565b6200047482620001ef565b67ffffffffffffffff81111562000490576200048f620001fa565b5b6200049c825462000258565b620004a9828285620003ce565b600060209050601f831160018114620004e15760008415620004cc578287015190505b620004d885826200044b565b86555062000548565b601f198416620004f1866200028d565b60005b828110156200051b57848901518255600182019150602085019450602081019050620004f4565b868310156200053b578489015162000537601f8916826200042b565b8355505b6001600288020188555050505b505050505050565b6000604051905090565b600080fd5b600080fd5b600080fd5b600080fd5b6000601f19601f8301169050919050565b6200058a826200056e565b810181811067ffffffffffffffff82111715620005ac57620005ab620001fa565b5b80604052505050565b6000620005c162000550565b9050620005cf82826200057f565b919050565b600067ffffffffffffffff821115620005f257620005f1620001fa565b5b620005fd826200056e565b9050602081019050919050565b60005b838110156200062a5780820151818401526020810190506200060d565b60008484015250505050565b60006200064d6200064784620005d4565b620005b5565b9050828152602081018484840111156200066c576200066b62000569565b5b620006798482856200060a565b509392505050565b600082601f83011262000699576200069862000564565b5b8151620006ab84826020860162000636565b91505092915050565b620006bf8162000315565b8114620006cb57600080fd5b50565b600081519050620006df81620006b4565b92915050565b6000819050919050565b620006fa81620006e5565b81146200070657600080fd5b50565b6000815190506200071a81620006ef565b92915050565b600080600080600080600060e0888a0312156200074257620007416200055a565b5b600088015167ffffffffffffffff8111156200076357620007626200055f565b5b620007718a828b0162000681565b975050602088015167ffffffffffffffff8111156200079557620007946200055f565b5b620007a38a828b0162000681565b9650506040620007b68a828b01620006ce565b9550506060620007c98a828b01620006ce565b9450506080620007dc8a828b01620006ce565b93505060a088015167ffffffffffffffff8111156200080057620007ff6200055f565b5b6200080e8a828b0162000681565b92505060c0620008218a828b0162000709565b91505092959891949750929550565b6140c280620008406000396000f3fe6080604052600436106102045760003560e01c80634f6ccce711610118578063a22cb465116100a0578063c87b56dd1161006f578063c87b56dd1461075c578063d5abeb0114610799578063e985e9c5146107c4578063ea05a8c614610801578063f2fde38b1461082a57610204565b8063a22cb465146106c3578063b88d4fde146106ec578063ba41b0c614610715578063c66828621461073157610204565b806370a08231116100e757806370a08231146105f0578063715018a61461062d5780637cb64759146106445780638da5cb5b1461066d57806395d89b411461069857610204565b80634f6ccce71461050e5780635a23dd991461054b5780636352211e146105885780636c0360eb146105c557610204565b8063239c70ae1161019b5780633ccfd60b1161016a5780633ccfd60b1461043d57806342842e0e14610454578063438b63001461047d57806344a0d68a146104ba5780634b4687b5146104e357610204565b8063239c70ae1461038157806323b872dd146103ac5780632eb4a7ab146103d55780632f745c591461040057610204565b8063088a4ed0116101d7578063088a4ed0146102d9578063095ea7b31461030257806313faede61461032b57806318160ddd1461035657610204565b8063014679961461020957806301ffc9a71461023457806306fdde0314610271578063081812fc1461029c575b600080fd5b34801561021557600080fd5b5061021e610853565b60405161022b91906129a7565b60405180910390f35b34801561024057600080fd5b5061025b60048036038101906102569190612a2e565b610859565b6040516102689190612a76565b60405180910390f35b34801561027d57600080fd5b506102866108d3565b6040516102939190612b21565b60405180910390f35b3480156102a857600080fd5b506102c360048036038101906102be9190612b6f565b610965565b6040516102d09190612bdd565b60405180910390f35b3480156102e557600080fd5b5061030060048036038101906102fb9190612b6f565b6109ab565b005b34801561030e57600080fd5b5061032960048036038101906103249190612c24565b6109bd565b005b34801561033757600080fd5b50610340610ad4565b60405161034d91906129a7565b60405180910390f35b34801561036257600080fd5b5061036b610ada565b60405161037891906129a7565b60405180910390f35b34801561038d57600080fd5b50610396610ae7565b6040516103a391906129a7565b60405180910390f35b3480156103b857600080fd5b506103d360048036038101906103ce9190612c64565b610aed565b005b3480156103e157600080fd5b506103ea610b4d565b6040516103f79190612cd0565b60405180910390f35b34801561040c57600080fd5b5061042760048036038101906104229190612c24565b610b53565b60405161043491906129a7565b60405180910390f35b34801561044957600080fd5b50610452610bf8565b005b34801561046057600080fd5b5061047b60048036038101906104769190612c64565b610cb8565b005b34801561048957600080fd5b506104a4600480360381019061049f9190612ceb565b610cd8565b6040516104b19190612dd6565b60405180910390f35b3480156104c657600080fd5b506104e160048036038101906104dc9190612b6f565b610d86565b005b3480156104ef57600080fd5b506104f8610d98565b6040516105059190612a76565b60405180910390f35b34801561051a57600080fd5b5061053560048036038101906105309190612b6f565b610dab565b60405161054291906129a7565b60405180910390f35b34801561055757600080fd5b50610572600480360381019061056d9190612e5d565b610e1c565b60405161057f9190612a76565b60405180910390f35b34801561059457600080fd5b506105af60048036038101906105aa9190612b6f565b610ea0565b6040516105bc9190612bdd565b60405180910390f35b3480156105d157600080fd5b506105da610f51565b6040516105e79190612b21565b60405180910390f35b3480156105fc57600080fd5b5061061760048036038101906106129190612ceb565b610fdf565b60405161062491906129a7565b60405180910390f35b34801561063957600080fd5b50610642611096565b005b34801561065057600080fd5b5061066b60048036038101906106669190612ee9565b6110aa565b005b34801561067957600080fd5b506106826110e9565b60405161068f9190612bdd565b60405180910390f35b3480156106a457600080fd5b506106ad611113565b6040516106ba9190612b21565b60405180910390f35b3480156106cf57600080fd5b506106ea60048036038101906106e59190612f42565b6111a5565b005b3480156106f857600080fd5b50610713600480360381019061070e91906130b2565b6111bb565b005b61072f600480360381019061072a9190613135565b61121d565b005b34801561073d57600080fd5b50610746611418565b6040516107539190612b21565b60405180910390f35b34801561076857600080fd5b50610783600480360381019061077e9190612b6f565b6114a6565b6040516107909190612b21565b60405180910390f35b3480156107a557600080fd5b506107ae611525565b6040516107bb91906129a7565b60405180910390f35b3480156107d057600080fd5b506107eb60048036038101906107e69190613195565b61152b565b6040516107f89190612a76565b60405180910390f35b34801561080d57600080fd5b50610828600480360381019061082391906131d5565b6115bf565b005b34801561083657600080fd5b50610851600480360381019061084c9190612ceb565b611613565b005b60105481565b60007f780e9d63000000000000000000000000000000000000000000000000000000007bffffffffffffffffffffffffffffffffffffffffffffffffffffffff1916827bffffffffffffffffffffffffffffffffffffffffffffffffffffffff191614806108cc57506108cb82611696565b5b9050919050565b6060600080546108e290613231565b80601f016020809104026020016040519081016040528092919081815260200182805461090e90613231565b801561095b5780601f106109305761010080835404028352916020019161095b565b820191906000526020600020905b81548152906001019060200180831161093e57829003601f168201915b5050505050905090565b600061097082611778565b6004600083815260200190815260200160002060009054906101000a900473ffffffffffffffffffffffffffffffffffffffff169050919050565b6109b36117c3565b80600f8190555050565b60006109c882610ea0565b90508073ffffffffffffffffffffffffffffffffffffffff168373ffffffffffffffffffffffffffffffffffffffff1603610a38576040517f08c379a0000000000000000000000000000000000000000000000000000000008152600401610a2f906132d4565b60405180910390fd5b8073ffffffffffffffffffffffffffffffffffffffff16610a57611841565b73ffffffffffffffffffffffffffffffffffffffff161480610a865750610a8581610a80611841565b61152b565b5b610ac5576040517f08c379a0000000000000000000000000000000000000000000000000000000008152600401610abc90613366565b60405180910390fd5b610acf8383611849565b505050565b600d5481565b6000600880549050905090565b600f5481565b610afe610af8611841565b82611902565b610b3d576040517f08c379a0000000000000000000000000000000000000000000000000000000008152600401610b34906133f8565b60405180910390fd5b610b48838383611997565b505050565b60115481565b6000610b5e83610fdf565b8210610b9f576040517f08c379a0000000000000000000000000000000000000000000000000000000008152600401610b969061348a565b60405180910390fd5b600660008473ffffffffffffffffffffffffffffffffffffffff1673ffffffffffffffffffffffffffffffffffffffff168152602001908152602001600020600083815260200190815260200160002054905092915050565b610c006117c3565b600047905060003373ffffffffffffffffffffffffffffffffffffffff1682604051610c2b906134db565b60006040518083038185875af1925050503d8060008114610c68576040519150601f19603f3d011682016040523d82523d6000602084013e610c6d565b606091505b5050905080610c7b57600080fd5b7f8353ffcac0876ad14e226d9783c04540bfebf13871e868157d2a391cad98e9188233604051610cac9291906134f0565b60405180910390a15050565b610cd3838383604051806020016040528060008152506111bb565b505050565b60606000610ce583610fdf565b905060008167ffffffffffffffff811115610d0357610d02612f87565b5b604051908082528060200260200182016040528015610d315781602001602082028036833780820191505090505b50905060005b82811015610d7b57610d498582610b53565b828281518110610d5c57610d5b613519565b5b6020026020010181815250508080610d7390613577565b915050610d37565b508092505050919050565b610d8e6117c3565b80600d8190555050565b601260009054906101000a900460ff1681565b6000610db5610ada565b8210610df6576040517f08c379a0000000000000000000000000000000000000000000000000000000008152600401610ded90613631565b60405180910390fd5b60088281548110610e0a57610e09613519565b5b90600052602060002001549050919050565b60008084604051602001610e309190613699565b604051602081830303815290604052805190602001209050610e96848480806020026020016040519081016040528093929190818152602001838360200280828437600081840152601f19601f8201169050808301925050505050505060115483611bfd565b9150509392505050565b6000806002600084815260200190815260200160002060009054906101000a900473ffffffffffffffffffffffffffffffffffffffff169050600073ffffffffffffffffffffffffffffffffffffffff168173ffffffffffffffffffffffffffffffffffffffff1603610f48576040517f08c379a0000000000000000000000000000000000000000000000000000000008152600401610f3f90613700565b60405180910390fd5b80915050919050565b600b8054610f5e90613231565b80601f0160208091040260200160405190810160405280929190818152602001828054610f8a90613231565b8015610fd75780601f10610fac57610100808354040283529160200191610fd7565b820191906000526020600020905b815481529060010190602001808311610fba57829003601f168201915b505050505081565b60008073ffffffffffffffffffffffffffffffffffffffff168273ffffffffffffffffffffffffffffffffffffffff160361104f576040517f08c379a000000000000000000000000000000000000000000000000000000000815260040161104690613792565b60405180910390fd5b600360008373ffffffffffffffffffffffffffffffffffffffff1673ffffffffffffffffffffffffffffffffffffffff168152602001908152602001600020549050919050565b61109e6117c3565b6110a86000611c14565b565b6110b26117c3565b80601181905550807f1b930366dfeaa7eb3b325021e4ae81e36527063452ee55b86c95f85b36f4c31c60405160405180910390a250565b6000600a60009054906101000a900473ffffffffffffffffffffffffffffffffffffffff16905090565b60606001805461112290613231565b80601f016020809104026020016040519081016040528092919081815260200182805461114e90613231565b801561119b5780601f106111705761010080835404028352916020019161119b565b820191906000526020600020905b81548152906001019060200180831161117e57829003601f168201915b5050505050905090565b6111b76111b0611841565b8383611cda565b5050565b6111cc6111c6611841565b83611902565b61120b576040517f08c379a0000000000000000000000000000000000000000000000000000000008152600401611202906133f8565b60405180910390fd5b61121784848484611e46565b50505050565b60105442101561122c57600080fd5b6000831161123957600080fd5b82600d5461124791906137b2565b34101561125357600080fd5b600f54831115611298576040517f08c379a000000000000000000000000000000000000000000000000000000000815260040161128f90613866565b60405180910390fd5b601260009054906101000a900460ff1615611367576000336040516020016112c09190613699565b604051602081830303815290604052805190602001209050611326838380806020026020016040519081016040528093929190818152602001838360200280828437600081840152601f19601f8201169050808301925050505050505060115483611bfd565b611365576040517f08c379a000000000000000000000000000000000000000000000000000000000815260040161135c906138d2565b60405180910390fd5b505b6000611371610ada565b9050600e54848261138291906138f2565b111561138d57600080fd5b6000600190505b8481116113c3576113b03382846113ab91906138f2565b611ea2565b80806113bb90613577565b915050611394565b503373ffffffffffffffffffffffffffffffffffffffff167ff3cea5493d790af0133817606f7350a91d7f154ea52eaa79d179d4d231e501028560405161140a91906129a7565b60405180910390a250505050565b600c805461142590613231565b80601f016020809104026020016040519081016040528092919081815260200182805461145190613231565b801561149e5780601f106114735761010080835404028352916020019161149e565b820191906000526020600020905b81548152906001019060200180831161148157829003601f168201915b505050505081565b60606114b182611ec0565b6114f0576040517f08c379a00000000000000000000000000000000000000000000000000000000081526004016114e790613998565b60405180910390fd5b600b6114fb83611f2c565b600c60405160200161150f93929190613a8c565b6040516020818303038152906040529050919050565b600e5481565b6000600560008473ffffffffffffffffffffffffffffffffffffffff1673ffffffffffffffffffffffffffffffffffffffff16815260200190815260200160002060008373ffffffffffffffffffffffffffffffffffffffff1673ffffffffffffffffffffffffffffffffffffffff16815260200190815260200160002060009054906101000a900460ff16905092915050565b6115c76117c3565b80601260006101000a81548160ff0219169083151502179055508015157fac8eec88dbf19d0a1394da50955663d1d27acf4b7777e795bc2d579338ee048560405160405180910390a250565b61161b6117c3565b600073ffffffffffffffffffffffffffffffffffffffff168173ffffffffffffffffffffffffffffffffffffffff160361168a576040517f08c379a000000000000000000000000000000000000000000000000000000000815260040161168190613b2f565b60405180910390fd5b61169381611c14565b50565b60007f80ac58cd000000000000000000000000000000000000000000000000000000007bffffffffffffffffffffffffffffffffffffffffffffffffffffffff1916827bffffffffffffffffffffffffffffffffffffffffffffffffffffffff1916148061176157507f5b5e139f000000000000000000000000000000000000000000000000000000007bffffffffffffffffffffffffffffffffffffffffffffffffffffffff1916827bffffffffffffffffffffffffffffffffffffffffffffffffffffffff1916145b8061177157506117708261208c565b5b9050919050565b61178181611ec0565b6117c0576040517f08c379a00000000000000000000000000000000000000000000000000000000081526004016117b790613700565b60405180910390fd5b50565b6117cb611841565b73ffffffffffffffffffffffffffffffffffffffff166117e96110e9565b73ffffffffffffffffffffffffffffffffffffffff161461183f576040517f08c379a000000000000000000000000000000000000000000000000000000000815260040161183690613b9b565b60405180910390fd5b565b600033905090565b816004600083815260200190815260200160002060006101000a81548173ffffffffffffffffffffffffffffffffffffffff021916908373ffffffffffffffffffffffffffffffffffffffff160217905550808273ffffffffffffffffffffffffffffffffffffffff166118bc83610ea0565b73ffffffffffffffffffffffffffffffffffffffff167f8c5be1e5ebec7d5bd14f71427d1e84f3dd0314c0f7b2291e5b200ac8c7c3b92560405160405180910390a45050565b60008061190e83610ea0565b90508073ffffffffffffffffffffffffffffffffffffffff168473ffffffffffffffffffffffffffffffffffffffff161480611950575061194f818561152b565b5b8061198e57508373ffffffffffffffffffffffffffffffffffffffff1661197684610965565b73ffffffffffffffffffffffffffffffffffffffff16145b91505092915050565b8273ffffffffffffffffffffffffffffffffffffffff166119b782610ea0565b73ffffffffffffffffffffffffffffffffffffffff1614611a0d576040517f08c379a0000000000000000000000000000000000000000000000000000000008152600401611a0490613c2d565b60405180910390fd5b600073ffffffffffffffffffffffffffffffffffffffff168273ffffffffffffffffffffffffffffffffffffffff1603611a7c576040517f08c379a0000000000000000000000000000000000000000000000000000000008152600401611a7390613cbf565b60405180910390fd5b611a878383836120f6565b611a92600082611849565b6001600360008573ffffffffffffffffffffffffffffffffffffffff1673ffffffffffffffffffffffffffffffffffffffff1681526020019081526020016000206000828254611ae29190613cdf565b925050819055506001600360008473ffffffffffffffffffffffffffffffffffffffff1673ffffffffffffffffffffffffffffffffffffffff1681526020019081526020016000206000828254611b3991906138f2565b92505081905550816002600083815260200190815260200160002060006101000a81548173ffffffffffffffffffffffffffffffffffffffff021916908373ffffffffffffffffffffffffffffffffffffffff160217905550808273ffffffffffffffffffffffffffffffffffffffff168473ffffffffffffffffffffffffffffffffffffffff167fddf252ad1be2c89b69c2b068fc378daa952ba7f163c4a11628f55a4df523b3ef60405160405180910390a4611bf8838383612208565b505050565b600082611c0a858461220d565b1490509392505050565b6000600a60009054906101000a900473ffffffffffffffffffffffffffffffffffffffff16905081600a60006101000a81548173ffffffffffffffffffffffffffffffffffffffff021916908373ffffffffffffffffffffffffffffffffffffffff1602179055508173ffffffffffffffffffffffffffffffffffffffff168173ffffffffffffffffffffffffffffffffffffffff167f8be0079c531659141344cd1fd0a4f28419497f9722a3daafe3b4186f6b6457e060405160405180910390a35050565b8173ffffffffffffffffffffffffffffffffffffffff168373ffffffffffffffffffffffffffffffffffffffff1603611d48576040517f08c379a0000000000000000000000000000000000000000000000000000000008152600401611d3f90613d5f565b60405180910390fd5b80600560008573ffffffffffffffffffffffffffffffffffffffff1673ffffffffffffffffffffffffffffffffffffffff16815260200190815260200160002060008473ffffffffffffffffffffffffffffffffffffffff1673ffffffffffffffffffffffffffffffffffffffff16815260200190815260200160002060006101000a81548160ff0219169083151502179055508173ffffffffffffffffffffffffffffffffffffffff168373ffffffffffffffffffffffffffffffffffffffff167f17307eab39ab6107e8899845ad3d59bd9653f200f220920489ca2b5937696c3183604051611e399190612a76565b60405180910390a3505050565b611e51848484611997565b611e5d84848484612263565b611e9c576040517f08c379a0000000000000000000000000000000000000000000000000000000008152600401611e9390613df1565b60405180910390fd5b50505050565b611ebc8282604051806020016040528060008152506123ea565b5050565b60008073ffffffffffffffffffffffffffffffffffffffff166002600084815260200190815260200160002060009054906101000a900473ffffffffffffffffffffffffffffffffffffffff1673ffffffffffffffffffffffffffffffffffffffff1614159050919050565b606060008203611f73576040518060400160405280600181526020017f30000000000000000000000000000000000000000000000000000000000000008152509050612087565b600082905060005b60008214611fa5578080611f8e90613577565b915050600a82611f9e9190613e40565b9150611f7b565b60008167ffffffffffffffff811115611fc157611fc0612f87565b5b6040519080825280601f01601f191660200182016040528015611ff35781602001600182028036833780820191505090505b5090505b600085146120805760018261200c9190613cdf565b9150600a8561201b9190613e71565b603061202791906138f2565b60f81b81838151811061203d5761203c613519565b5b60200101907effffffffffffffffffffffffffffffffffffffffffffffffffffffffffffff1916908160001a905350600a856120799190613e40565b9450611ff7565b8093505050505b919050565b60007f01ffc9a7000000000000000000000000000000000000000000000000000000007bffffffffffffffffffffffffffffffffffffffffffffffffffffffff1916827bffffffffffffffffffffffffffffffffffffffffffffffffffffffff1916149050919050565b612101838383612445565b600073ffffffffffffffffffffffffffffffffffffffff168373ffffffffffffffffffffffffffffffffffffffff16036121435761213e8161244a565b612182565b8173ffffffffffffffffffffffffffffffffffffffff168373ffffffffffffffffffffffffffffffffffffffff1614612181576121808382612493565b5b5b600073ffffffffffffffffffffffffffffffffffffffff168273ffffffffffffffffffffffffffffffffffffffff16036121c4576121bf81612600565b612203565b8273ffffffffffffffffffffffffffffffffffffffff168273ffffffffffffffffffffffffffffffffffffffff16146122025761220182826126d1565b5b5b505050565b505050565b60008082905060005b8451811015612258576122438286838151811061223657612235613519565b5b6020026020010151612750565b9150808061225090613577565b915050612216565b508091505092915050565b60006122848473ffffffffffffffffffffffffffffffffffffffff1661277b565b156123dd578373ffffffffffffffffffffffffffffffffffffffff1663150b7a026122ad611841565b8786866040518563ffffffff1660e01b81526004016122cf9493929190613ef7565b6020604051808303816000875af192505050801561230b57506040513d601f19601f820116820180604052508101906123089190613f58565b60015b61238d573d806000811461233b576040519150601f19603f3d011682016040523d82523d6000602084013e612340565b606091505b506000815103612385576040517f08c379a000000000000000000000000000000000000000000000000000000000815260040161237c90613df1565b60405180910390fd5b805181602001fd5b63150b7a0260e01b7bffffffffffffffffffffffffffffffffffffffffffffffffffffffff1916817bffffffffffffffffffffffffffffffffffffffffffffffffffffffff1916149150506123e2565b600190505b949350505050565b6123f4838361279e565b6124016000848484612263565b612440576040517f08c379a000000000000000000000000000000000000000000000000000000000815260040161243790613df1565b60405180910390fd5b505050565b505050565b6008805490506009600083815260200190815260200160002081905550600881908060018154018082558091505060019003906000526020600020016000909190919091505550565b600060016124a084610fdf565b6124aa9190613cdf565b905060006007600084815260200190815260200160002054905081811461258f576000600660008673ffffffffffffffffffffffffffffffffffffffff1673ffffffffffffffffffffffffffffffffffffffff168152602001908152602001600020600084815260200190815260200160002054905080600660008773ffffffffffffffffffffffffffffffffffffffff1673ffffffffffffffffffffffffffffffffffffffff168152602001908152602001600020600084815260200190815260200160002081905550816007600083815260200190815260200160002081905550505b6007600084815260200190815260200160002060009055600660008573ffffffffffffffffffffffffffffffffffffffff1673ffffffffffffffffffffffffffffffffffffffff16815260200190815260200160002060008381526020019081526020016000206000905550505050565b600060016008805490506126149190613cdf565b905060006009600084815260200190815260200160002054905060006008838154811061264457612643613519565b5b90600052602060002001549050806008838154811061266657612665613519565b5b9060005260206000200181905550816009600083815260200190815260200160002081905550600960008581526020019081526020016000206000905560088054806126b5576126b4613f85565b5b6001900381819060005260206000200160009055905550505050565b60006126dc83610fdf565b905081600660008573ffffffffffffffffffffffffffffffffffffffff1673ffffffffffffffffffffffffffffffffffffffff168152602001908152602001600020600083815260200190815260200160002081905550806007600084815260200190815260200160002081905550505050565b6000818310612768576127638284612977565b612773565b6127728383612977565b5b905092915050565b6000808273ffffffffffffffffffffffffffffffffffffffff163b119050919050565b600073ffffffffffffffffffffffffffffffffffffffff168273ffffffffffffffffffffffffffffffffffffffff160361280d576040517f08c379a000000000000000000000000000000000000000000000000000000000815260040161280490614000565b60405180910390fd5b61281681611ec0565b15612856576040517f08c379a000000000000000000000000000000000000000000000000000000000815260040161284d9061406c565b60405180910390fd5b612862600083836120f6565b6001600360008473ffffffffffffffffffffffffffffffffffffffff1673ffffffffffffffffffffffffffffffffffffffff16815260200190815260200160002060008282546128b291906138f2565b92505081905550816002600083815260200190815260200160002060006101000a81548173ffffffffffffffffffffffffffffffffffffffff021916908373ffffffffffffffffffffffffffffffffffffffff160217905550808273ffffffffffffffffffffffffffffffffffffffff16600073ffffffffffffffffffffffffffffffffffffffff167fddf252ad1be2c89b69c2b068fc378daa952ba7f163c4a11628f55a4df523b3ef60405160405180910390a461297360008383612208565b5050565b600082600052816020526040600020905092915050565b6000819050919050565b6129a18161298e565b82525050565b60006020820190506129bc6000830184612998565b92915050565b6000604051905090565b600080fd5b600080fd5b60007fffffffff0000000000000000000000000000000000000000000000000000000082169050919050565b612a0b816129d6565b8114612a1657600080fd5b50565b600081359050612a2881612a02565b92915050565b600060208284031215612a4457612a436129cc565b5b6000612a5284828501612a19565b91505092915050565b60008115159050919050565b612a7081612a5b565b82525050565b6000602082019050612a8b6000830184612a67565b92915050565b600081519050919050565b600082825260208201905092915050565b60005b83811015612acb578082015181840152602081019050612ab0565b60008484015250505050565b6000601f19601f8301169050919050565b6000612af382612a91565b612afd8185612a9c565b9350612b0d818560208601612aad565b612b1681612ad7565b840191505092915050565b60006020820190508181036000830152612b3b8184612ae8565b905092915050565b612b4c8161298e565b8114612b5757600080fd5b50565b600081359050612b6981612b43565b92915050565b600060208284031215612b8557612b846129cc565b5b6000612b9384828501612b5a565b91505092915050565b600073ffffffffffffffffffffffffffffffffffffffff82169050919050565b6000612bc782612b9c565b9050919050565b612bd781612bbc565b82525050565b6000602082019050612bf26000830184612bce565b92915050565b612c0181612bbc565b8114612c0c57600080fd5b50565b600081359050612c1e81612bf8565b92915050565b60008060408385031215612c3b57612c3a6129cc565b5b6000612c4985828601612c0f565b9250506020612c5a85828601612b5a565b9150509250929050565b600080600060608486031215612c7d57612c7c6129cc565b5b6000612c8b86828701612c0f565b9350506020612c9c86828701612c0f565b9250506040612cad86828701612b5a565b9150509250925092565b6000819050919050565b612cca81612cb7565b82525050565b6000602082019050612ce56000830184612cc1565b92915050565b600060208284031215612d0157612d006129cc565b5b6000612d0f84828501612c0f565b91505092915050565b600081519050919050565b600082825260208201905092915050565b6000819050602082019050919050565b612d4d8161298e565b82525050565b6000612d5f8383612d44565b60208301905092915050565b6000602082019050919050565b6000612d8382612d18565b612d8d8185612d23565b9350612d9883612d34565b8060005b83811015612dc9578151612db08882612d53565b9750612dbb83612d6b565b925050600181019050612d9c565b5085935050505092915050565b60006020820190508181036000830152612df08184612d78565b905092915050565b600080fd5b600080fd5b600080fd5b60008083601f840112612e1d57612e1c612df8565b5b8235905067ffffffffffffffff811115612e3a57612e39612dfd565b5b602083019150836020820283011115612e5657612e55612e02565b5b9250929050565b600080600060408486031215612e7657612e756129cc565b5b6000612e8486828701612c0f565b935050602084013567ffffffffffffffff811115612ea557612ea46129d1565b5b612eb186828701612e07565b92509250509250925092565b612ec681612cb7565b8114612ed157600080fd5b50565b600081359050612ee381612ebd565b92915050565b600060208284031215612eff57612efe6129cc565b5b6000612f0d84828501612ed4565b91505092915050565b612f1f81612a5b565b8114612f2a57600080fd5b50565b600081359050612f3c81612f16565b92915050565b60008060408385031215612f5957612f586129cc565b5b6000612f6785828601612c0f565b9250506020612f7885828601612f2d565b9150509250929050565b600080fd5b7f4e487b7100000000000000000000000000000000000000000000000000000000600052604160045260246000fd5b612fbf82612ad7565b810181811067ffffffffffffffff82111715612fde57612fdd612f87565b5b80604052505050565b6000612ff16129c2565b9050612ffd8282612fb6565b919050565b600067ffffffffffffffff82111561301d5761301c612f87565b5b61302682612ad7565b9050602081019050919050565b82818337600083830152505050565b600061305561305084613002565b612fe7565b90508281526020810184848401111561307157613070612f82565b5b61307c848285613033565b509392505050565b600082601f83011261309957613098612df8565b5b81356130a9848260208601613042565b91505092915050565b600080600080608085870312156130cc576130cb6129cc565b5b60006130da87828801612c0f565b94505060206130eb87828801612c0f565b93505060406130fc87828801612b5a565b925050606085013567ffffffffffffffff81111561311d5761311c6129d1565b5b61312987828801613084565b91505092959194509250565b60008060006040848603121561314e5761314d6129cc565b5b600061315c86828701612b5a565b935050602084013567ffffffffffffffff81111561317d5761317c6129d1565b5b61318986828701612e07565b92509250509250925092565b600080604083850312156131ac576131ab6129cc565b5b60006131ba85828601612c0f565b92505060206131cb85828601612c0f565b9150509250929050565b6000602082840312156131eb576131ea6129cc565b5b60006131f984828501612f2d565b91505092915050565b7f4e487b7100000000000000000000000000000000000000000000000000000000600052602260045260246000fd5b6000600282049050600182168061324957607f821691505b60208210810361325c5761325b613202565b5b50919050565b7f4552433732313a20617070726f76616c20746f2063757272656e74206f776e6560008201527f7200000000000000000000000000000000000000000000000000000000000000602082015250565b60006132be602183612a9c565b91506132c982613262565b604082019050919050565b600060208201905081810360008301526132ed816132b1565b9050919050565b7f4552433732313a20617070726f76652063616c6c6572206973206e6f7420746f60008201527f6b656e206f776e6572206e6f7220617070726f76656420666f7220616c6c0000602082015250565b6000613350603e83612a9c565b915061335b826132f4565b604082019050919050565b6000602082019050818103600083015261337f81613343565b9050919050565b7f4552433732313a2063616c6c6572206973206e6f7420746f6b656e206f776e6560008201527f72206e6f7220617070726f766564000000000000000000000000000000000000602082015250565b60006133e2602e83612a9c565b91506133ed82613386565b604082019050919050565b60006020820190508181036000830152613411816133d5565b9050919050565b7f455243373231456e756d657261626c653a206f776e657220696e646578206f7560008201527f74206f6620626f756e6473000000000000000000000000000000000000000000602082015250565b6000613474602b83612a9c565b915061347f82613418565b604082019050919050565b600060208201905081810360008301526134a381613467565b9050919050565b600081905092915050565b50565b60006134c56000836134aa565b91506134d0826134b5565b600082019050919050565b60006134e6826134b8565b9150819050919050565b60006040820190506135056000830185612998565b6135126020830184612bce565b9392505050565b7f4e487b7100000000000000000000000000000000000000000000000000000000600052603260045260246000fd5b7f4e487b7100000000000000000000000000000000000000000000000000000000600052601160045260246000fd5b60006135828261298e565b91507fffffffffffffffffffffffffffffffffffffffffffffffffffffffffffffffff82036135b4576135b3613548565b5b600182019050919050565b7f455243373231456e756d657261626c653a20676c6f62616c20696e646578206f60008201527f7574206f6620626f756e64730000000000000000000000000000000000000000602082015250565b600061361b602c83612a9c565b9150613626826135bf565b604082019050919050565b6000602082019050818103600083015261364a8161360e565b9050919050565b60008160601b9050919050565b600061366982613651565b9050919050565b600061367b8261365e565b9050919050565b61369361368e82612bbc565b613670565b82525050565b60006136a58284613682565b60148201915081905092915050565b7f4552433732313a20696e76616c696420746f6b656e2049440000000000000000600082015250565b60006136ea601883612a9c565b91506136f5826136b4565b602082019050919050565b60006020820190508181036000830152613719816136dd565b9050919050565b7f4552433732313a2061646472657373207a65726f206973206e6f74206120766160008201527f6c6964206f776e65720000000000000000000000000000000000000000000000602082015250565b600061377c602983612a9c565b915061378782613720565b604082019050919050565b600060208201905081810360008301526137ab8161376f565b9050919050565b60006137bd8261298e565b91506137c88361298e565b92508282026137d68161298e565b915082820484148315176137ed576137ec613548565b5b5092915050565b7f43616e6e6f74206d696e74206d6f7265207468616e206d61784d696e74416d6f60008201527f756e740000000000000000000000000000000000000000000000000000000000602082015250565b6000613850602383612a9c565b915061385b826137f4565b604082019050919050565b6000602082019050818103600083015261387f81613843565b9050919050565b7f496e76616c6964206d65726b6c652070726f6f66000000000000000000000000600082015250565b60006138bc601483612a9c565b91506138c782613886565b602082019050919050565b600060208201905081810360008301526138eb816138af565b9050919050565b60006138fd8261298e565b91506139088361298e565b92508282019050808211156139205761391f613548565b5b92915050565b7f4552433732314d657461646174613a2055524920717565727920666f72206e6f60008201527f6e6578697374656e7420746f6b656e0000000000000000000000000000000000602082015250565b6000613982602f83612a9c565b915061398d82613926565b604082019050919050565b600060208201905081810360008301526139b181613975565b9050919050565b600081905092915050565b60008190508160005260206000209050919050565b600081546139e581613231565b6139ef81866139b8565b94506001821660008114613a0a5760018114613a1f57613a52565b60ff1983168652811515820286019350613a52565b613a28856139c3565b60005b83811015613a4a57815481890152600182019150602081019050613a2b565b838801955050505b50505092915050565b6000613a6682612a91565b613a7081856139b8565b9350613a80818560208601612aad565b80840191505092915050565b6000613a9882866139d8565b9150613aa48285613a5b565b9150613ab082846139d8565b9150819050949350505050565b7f4f776e61626c653a206e6577206f776e657220697320746865207a65726f206160008201527f6464726573730000000000000000000000000000000000000000000000000000602082015250565b6000613b19602683612a9c565b9150613b2482613abd565b604082019050919050565b60006020820190508181036000830152613b4881613b0c565b9050919050565b7f4f776e61626c653a2063616c6c6572206973206e6f7420746865206f776e6572600082015250565b6000613b85602083612a9c565b9150613b9082613b4f565b602082019050919050565b60006020820190508181036000830152613bb481613b78565b9050919050565b7f4552433732313a207472616e736665722066726f6d20696e636f72726563742060008201527f6f776e6572000000000000000000000000000000000000000000000000000000602082015250565b6000613c17602583612a9c565b9150613c2282613bbb565b604082019050919050565b60006020820190508181036000830152613c4681613c0a565b9050919050565b7f4552433732313a207472616e7366657220746f20746865207a65726f2061646460008201527f7265737300000000000000000000000000000000000000000000000000000000602082015250565b6000613ca9602483612a9c565b9150613cb482613c4d565b604082019050919050565b60006020820190508181036000830152613cd881613c9c565b9050919050565b6000613cea8261298e565b9150613cf58361298e565b9250828203905081811115613d0d57613d0c613548565b5b92915050565b7f4552433732313a20617070726f766520746f2063616c6c657200000000000000600082015250565b6000613d49601983612a9c565b9150613d5482613d13565b602082019050919050565b60006020820190508181036000830152613d7881613d3c565b9050919050565b7f4552433732313a207472616e7366657220746f206e6f6e20455243373231526560008201527f63656976657220696d706c656d656e7465720000000000000000000000000000602082015250565b6000613ddb603283612a9c565b9150613de682613d7f565b604082019050919050565b60006020820190508181036000830152613e0a81613dce565b9050919050565b7f4e487b7100000000000000000000000000000000000000000000000000000000600052601260045260246000fd5b6000613e4b8261298e565b9150613e568361298e565b925082613e6657613e65613e11565b5b828204905092915050565b6000613e7c8261298e565b9150613e878361298e565b925082613e9757613e96613e11565b5b828206905092915050565b600081519050919050565b600082825260208201905092915050565b6000613ec982613ea2565b613ed38185613ead565b9350613ee3818560208601612aad565b613eec81612ad7565b840191505092915050565b6000608082019050613f0c6000830187612bce565b613f196020830186612bce565b613f266040830185612998565b8181036060830152613f388184613ebe565b905095945050505050565b600081519050613f5281612a02565b92915050565b600060208284031215613f6e57613f6d6129cc565b5b6000613f7c84828501613f43565b91505092915050565b7f4e487b7100000000000000000000000000000000000000000000000000000000600052603160045260246000fd5b7f4552433732313a206d696e7420746f20746865207a65726f2061646472657373600082015250565b6000613fea602083612a9c565b9150613ff582613fb4565b602082019050919050565b6000602082019050818103600083015261401981613fdd565b9050919050565b7f4552433732313a20746f6b656e20616c7265616479206d696e74656400000000600082015250565b6000614056601c83612a9c565b915061406182614020565b602082019050919050565b6000602082019050818103600083015261408581614049565b905091905056fea2646970667358221220fda2ced846cce19cbc47576ff64d189c100c19e3732408409cb7bbd85dc8f6c364736f6c63430008140033",
  "linkReferences": {},
  "deployedLinkReferences": {}
}