{"contracts/NFT.sol":{"NFT":{"abi":[{"inputs":[{"internalType":"string","name":"_name","type":"string"},{"internalType":"string","name":"_symbol","type":"string"},{"internalType":"uint256","name":"_cost","type":"uint256"},{"internalType":"uint256","name":"_maxSupply","type":"uint256"},{"internalType":"uint256","name":"_allowMintingOn","type":"uint256"},{"internalType":"string","name":"_baseURI","type":"string"},{"internalType":"bytes32","name":"_merkleRoot","type":"bytes32"}],"stateMutability":"nonpayable","type":"constructor"},{"anonymous":false,"inputs":[{"indexed":true,"internalType":"address","name":"owner","type":"address"},{"indexed":true,"internalType":"address","name":"approved","type":"address"},{"indexed":true,"internalType":"uint256","name":"tokenId","type":"uint256"}],"name":"Approval","type":"event"},{"anonymous":false,"inputs":[{"indexed":true,"internalType":"address","name":"owner","type":"address"},{"indexed":true,"internalType":"address","name":"operator","type":"address"},{"indexed":false,"internalType":"bool","name":"approved","type":"bool"}],"name":"ApprovalForAll","type":"event"},{"anonymous":false,"inputs":[{"indexed":true,"internalType":"bytes32","name":"newMerkleRoot","type":"bytes32"}],"name":"MerkleRootChanged","type":"event"},{"anonymous":false,"inputs":[{"indexed":false,"internalType":"uint256","name":"amount","type":"uint256"},{"indexed":true,"internalType":"address","name":"minter","type":"address"}],"name":"Mint","type":"event"},{"anonymous":false,"inputs":[{"indexed":true,"internalType":"address","name":"previousOwner","type":"address"},{"indexed":true,"internalType":"address","name":"newOwner","type":"address"}],"name":"OwnershipTransferred","type":"event"},{"anonymous":false,"inputs":[{"indexed":true,"internalType":"address","name":"from","type":"address"},{"indexed":true,"internalType":"address","name":"to","type":"address"},{"indexed":true,"internalType":"uint256","name":"tokenId","type":"uint256"}],"name":"Transfer","type":"event"},{"anonymous":false,"inputs":[{"indexed":true,"internalType":"bool","name":"whitelistOnly","type":"bool"}],"name":"WhitelistOnlyChanged","type":"event"},{"anonymous":false,"inputs":[{"indexed":false,"internalType":"uint256","name":"amount","type":"uint256"},{"indexed":false,"internalType":"address","name":"owner","type":"address"}],"name":"Withdraw","type":"event"},{"inputs":[],"name":"allowMintingOn","outputs":[{"internalType":"uint256","name":"","type":"uint256"}],"stateMutability":"view","type":"function"},{"inputs":[{"internalType":"address","name":"to","type":"address"},{"internalType":"uint256","name":"tokenId","type":"uint256"}],"name":"approve","outputs":[],"stateMutability":"nonpayable","type":"function"},{"inputs":[{"internalType":"address","name":"owner","type":"address"}],"name":"balanceOf","outputs":[{"internalType":"uint256","name":"","type":"uint256"}],"stateMutability":"view","type":"function"},{"inputs":[],"name":"baseExtension","outputs":[{"internalType":"string","name":"","type":"string"}],"stateMutability":"view","type":"function"},{"inputs":[],"name":"baseURI","outputs":[{"internalType":"string","name":"","type":"string"}],"stateMutability":"view","type":"function"},{"inputs":[],"name":"cost","outputs":[{"internalType":"uint256","name":"","type":"uint256"}],"stateMutability":"view","type":"function"},{"inputs":[{"internalType":"uint256","name":"tokenId","type":"uint256"}],"name":"getApproved","outputs":[{"internalType":"address","name":"","type":"address"}],"stateMutability":"view","type":"function"},{"inputs":[{"internalType":"address","name":"owner","type":"address"},{"internalType":"address","name":"operator","type":"address"}],"name":"isApprovedForAll","outputs":[{"internalType":"bool","name":"","type":"bool"}],"stateMutability":"view","type":"function"},{"inputs":[{"internalType":"address","name":"_address","type":"address"},{"internalType":"bytes32[]","name":"_merkleProof","type":"bytes32[]"}],"name":"isWhitelisted","outputs":[{"internalType":"bool","name":"","type":"bool"}],"stateMutability":"view","type":"function"},{"inputs":[],"name":"maxMintAmount","outputs":[{"internalType":"uint256","name":"","type":"uint256"}],"stateMutability":"view","type":"function"},{"inputs":[],"name":"maxSupply","outputs":[{"internalType":"uint256","name":"","type":"uint256"}],"stateMutability":"view","type":"function"},{"inputs":[],"name":"merkleRoot","outputs":[{"internalType":"bytes32","name":"","type":"bytes32"}],"stateMutability":"view","type":"function"},{"inputs":[{"internalType":"uint256","name":"_mintAmount","type":"uint256"},{"internalType":"bytes32[]","name":"_merkleProof","type":"bytes32[]"}],"name":"mint","outputs":[],"stateMutability":"payable","type":"function"},{"inputs":[],"name":"name","outputs":[{"internalType":"string","name":"","type":"string"}],"stateMutability":"view","type":"function"},{"inputs":[],"name":"owner","outputs":[{"internalType":"address","name":"","type":"address"}],"stateMutability":"view","type":"function"},{"inputs":[{"internalType":"uint256","name":"tokenId","type":"uint256"}],"name":"ownerOf","outputs":[{"internalType":"address","name":"","type":"address"}],"stateMutability":"view","type":"function"},{"inputs":[],"name":"renounceOwnership","outputs":[],"stateMutability":"nonpayable","type":"function"},{"inputs":[{"internalType":"address","name":"from","type":"address"},{"internalType":"address","name":"to","type":"address"},{"internalType":"uint256","name":"tokenId","type":"uint256"}],"name":"safeTransferFrom","outputs":[],"stateMutability":"nonpayable","type":"function"},{"inputs":[{"internalType":"address","name":"from","type":"address"},{"internalType":"address","name":"to","type":"address"},{"internalType":"uint256","name":"tokenId","type":"uint256"},{"internalType":"bytes","name":"data","type":"bytes"}],"name":"safeTransferFrom","outputs":[],"stateMutability":"nonpayable","type":"function"},{"inputs":[{"internalType":"address","name":"operator","type":"address"},{"internalType":"bool","name":"approved","type":"bool"}],"name":"setApprovalForAll","outputs":[],"stateMutability":"nonpayable","type":"function"},{"inputs":[{"internalType":"uint256","name":"_newCost","type":"uint256"}],"name":"setCost","outputs":[],"stateMutability":"nonpayable","type":"function"},{"inputs":[{"internalType":"uint256","name":"_newMaxMintAmount","type":"uint256"}],"name":"setMaxMintAmount","outputs":[],"stateMutability":"nonpayable","type":"function"},{"inputs":[{"internalType":"bytes32","name":"_merkleRoot","type":"bytes32"}],"name":"setMerkleRoot","outputs":[],"stateMutability":"nonpayable","type":"function"},{"inputs":[{"internalType":"bool","name":"_whitelistOnly","type":"bool"}],"name":"setWhitelistOnly","outputs":[],"stateMutability":"nonpayable","type":"function"},{"inputs":[{"internalType":"bytes4","name":"interfaceId","type":"bytes4"}],"name":"supportsInterface","outputs":[{"internalType":"bool","name":"","type":"bool"}],"stateMutability":"view","type":"function"},{"inputs":[],"name":"symbol","outputs":[{"internalType":"string","name":"","type":"string"}],"stateMutability":"view","type":"function"},{"inputs":[{"internalType":"uint256","name":"index","type":"uint256"}],"name":"tokenByIndex","outputs":[{"internalType":"uint256","name":"","type":"uint256"}],"stateMutability":"view","type":"function"},{"inputs":[{"internalType":"address","name":"owner","type":"address"},{"internalType":"uint256","name":"index","type":"uint256"}],"name":"tokenOfOwnerByIndex","outputs":[{"internalType":"uint256","name":"","type":"uint256"}],"stateMutability":"view","type":"function"},{"inputs":[{"internalType":"uint256","name":"_tokenId","type":"uint256"}],"name":"tokenURI","outputs":[{"internalType":"string","name":"","type":"string"}],"stateMutability":"view","type":"function"},{"inputs":[],"name":"totalSupply","outputs":[{"internalType":"uint256","name":"","type":"uint256"}],"stateMutability":"view","type":"function"},{"inputs":[{"internalType":"address","name":"from","type":"address"},{"internalType":"address","name":"to","type":"address"},{"internalType":"uint256","name":"tokenId","type":"uint256"}],"name":"transferFrom","outputs":[],"stateMutability":"nonpayable","type":"function"},{"inputs":[{"internalType":"address","name":"newOwner","type":"address"}],"name":"transferOwnership","outputs":[],"stateMutability":"nonpayable","type":"function"},{"inputs":[{"internalType":"address","name":"_owner","type":"address"}],"name":"walletOfOwner","outputs":[{"internalType":"uint256[]","name":"","type":"uint256[]"}],"stateMutability":"view","type":"function"},{"inputs":[],"name":"whitelistOnly","outputs":[{"internalType":"bool","name":"","type":"bool"}],"stateMutability":"view","type":"function"},{"inputs":[],"name":"withdraw","outputs":[],"stateMutability":"nonpayable","type":"function"}],"evm":{"bytecode":{"linkReferences":{},"object":"60806040526040518060400160405280600581526020017f2e6a736f6e000000000000000000000000000000000000000000000000000000815250600c90816200004a919062000469565b506005600f556001601260006101000a81548160ff0219169083151502179055503480156200007857600080fd5b50604051620049023803806200490283398181016040528101906200009e919062000720565b86868160009081620000b1919062000469565b508060019081620000c3919062000469565b505050620000e6620000da6200012160201b60201c565b6200012960201b60201c565b84600d8190555083600e819055508260108190555081600b90816200010c919062000469565b50806011819055505050505050505062000830565b600033905090565b6000600a60009054906101000a900473ffffffffffffffffffffffffffffffffffffffff16905081600a60006101000a81548173ffffffffffffffffffffffffffffffffffffffff021916908373ffffffffffffffffffffffffffffffffffffffff1602179055508173ffffffffffffffffffffffffffffffffffffffff168173ffffffffffffffffffffffffffffffffffffffff167f8be0079c531659141344cd1fd0a4f28419497f9722a3daafe3b4186f6b6457e060405160405180910390a35050565b600081519050919050565b7f4e487b7100000000000000000000000000000000000000000000000000000000600052604160045260246000fd5b7f4e487b7100000000000000000000000000000000000000000000000000000000600052602260045260246000fd5b600060028204905060018216806200027157607f821691505b60208210810362000287576200028662000229565b5b50919050565b60008190508160005260206000209050919050565b60006020601f8301049050919050565b600082821b905092915050565b600060088302620002f17fffffffffffffffffffffffffffffffffffffffffffffffffffffffffffffffff82620002b2565b620002fd8683620002b2565b95508019841693508086168417925050509392505050565b6000819050919050565b6000819050919050565b60006200034a620003446200033e8462000315565b6200031f565b62000315565b9050919050565b6000819050919050565b620003668362000329565b6200037e620003758262000351565b848454620002bf565b825550505050565b600090565b6200039562000386565b620003a28184846200035b565b505050565b5b81811015620003ca57620003be6000826200038b565b600181019050620003a8565b5050565b601f8211156200041957620003e3816200028d565b620003ee84620002a2565b81016020851015620003fe578190505b620004166200040d85620002a2565b830182620003a7565b50505b505050565b600082821c905092915050565b60006200043e600019846008026200041e565b1980831691505092915050565b60006200045983836200042b565b9150826002028217905092915050565b6200047482620001ef565b67ffffffffffffffff81111562000490576200048f620001fa565b5b6200049c825462000258565b620004a9828285620003ce565b600060209050601f831160018114620004e15760008415620004cc578287015190505b620004d885826200044b565b86555062000548565b601f198416620004f1866200028d565b60005b828110156200051b57848901518255600182019150602085019450602081019050620004f4565b868310156200053b578489015162000537601f8916826200042b565b8355505b6001600288020188555050505b505050505050565b6000604051905090565b600080fd5b600080fd5b600080fd5b600080fd5b6000601f19601f8301169050919050565b6200058a826200056e565b810181811067ffffffffffffffff82111715620005ac57620005ab620001fa565b5b80604052505050565b6000620005c162000550565b9050620005cf82826200057f565b919050565b600067ffffffffffffffff821115620005f257620005f1620001fa565b5b620005fd826200056e565b9050602081019050919050565b60005b838110156200062a5780820151818401526020810190506200060d565b60008484015250505050565b60006200064d6200064784620005d4565b620005b5565b9050828152602081018484840111156200066c576200066b62000569565b5b620006798482856200060a565b509392505050565b600082601f83011262000699576200069862000564565b5b8151620006ab84826020860162000636565b91505092915050565b620006bf8162000315565b8114620006cb57600080fd5b50565b600081519050620006df81620006b4565b92915050565b6000819050919050565b620006fa81620006e5565b81146200070657600080fd5b50565b6000815190506200071a81620006ef565b92915050565b600080600080600080600060e0888a0312156200074257620007416200055a565b5b600088015167ffffffffffffffff8111156200076357620007626200055f565b5b620007718a828b0162000681565b975050602088015167ffffffffffffffff8111156200079557620007946200055f565b5b620007a38a828b0162000681565b9650506040620007b68a828b01620006ce565b9550506060620007c98a828b01620006ce565b9450506080620007dc8a828b01620006ce565b93505060a088015167ffffffffffffffff8111156200080057620007ff6200055f565b5b6200080e8a828b0162000681565b92505060c0620008218a828b0162000709565b91505092959891949750929550565b6140c280620008406000396000f3fe6080604052600436106102045760003560e01c80634f6ccce711610118578063a22cb465116100a0578063c87b56dd1161006f578063c87b56dd1461075c578063d5abeb0114610799578063e985e9c5146107c4578063ea05a8c614610801578063f2fde38b1461082a57610204565b8063a22cb465146106c3578063b88d4fde146106ec578063ba41b0c614610715578063c66828621461073157610204565b806370a08231116100e757806370a08231146105f0578063715018a61461062d5780637cb64759146106445780638da5cb5b1461066d57806395d89b411461069857610204565b80634f6ccce71461050e5780635a23dd991461054b5780636352211e146105885780636c0360eb146105c557610204565b8063239c70ae1161019b5780633ccfd60b1161016a5780633ccfd60b1461043d57806342842e0e14610454578063438b63001461047d57806344a0d68a146104ba5780634b4687b5146104e357610204565b8063239c70ae1461038157806323b872dd146103ac5780632eb4a7ab146103d55780632f745c591461040057610204565b8063088a4ed0116101d7578063088a4ed0146102d9578063095ea7b31461030257806313faede61461032b57806318160ddd1461035657610204565b8063014679961461020957806301ffc9a71461023457806306fdde0314610271578063081812fc1461029c575b600080fd5b34801561021557600080fd5b5061021e610853565b60405161022b91906129a7565b60405180910390f35b34801561024057600080fd5b5061025b60048036038101906102569190612a2e565b610859565b6040516102689190612a76565b60405180910390f35b34801561027d57600080fd5b506102866108d3565b6040516102939190612b21565b60405180910390f35b3480156102a857600080fd5b506102c360048036038101906102be9190612b6f565b610965565b6040516102d09190612bdd565b60405180910390f35b3480156102e557600080fd5b5061030060048036038101906102fb9190612b6f565b6109ab565b005b34801561030e57600080fd5b5061032960048036038101906103249190612c24565b6109bd565b005b34801561033757600080fd5b50610340610ad4565b60405161034d91906129a7565b60405180910390f35b34801561036257600080fd5b5061036b610ada565b60405161037891906129a7565b60405180910390f35b34801561038d57600080fd5b50610396610ae7565b6040516103a391906129a7565b60405180910390f35b3480156103b857600080fd5b506103d360048036038101906103ce9190612c64565b610aed565b005b3480156103e157600080fd5b506103ea610b4d565b6040516103f79190612cd0565b60405180910390f35b34801561040c57600080fd5b5061042760048036038101906104229190612c24565b610b53565b60405161043491906129a7565b60405180910390f35b34801561044957600080fd5b50610452610bf8565b005b34801561046057600080fd5b5061047b60048036038101906104769190612c64565b610cb8565b005b34801561048957600080fd5b506104a4600480360381019061049f9190612ceb565b610cd8565b6040516104b19190612dd6565b60405180910390f35b3480156104c657600080fd5b506104e160048036038101906104dc9190612b6f565b610d86565b005b3480156104ef57600080fd5b506104f8610d98565b6040516105059190612a76565b60405180910390f35b34801561051a57600080fd5b5061053560048036038101906105309190612b6f565b610dab565b60405161054291906129a7565b60405180910390f35b34801561055757600080fd5b50610572600480360381019061056d9190612e5d565b610e1c565b60405161057f9190612a76565b60405180910390f35b34801561059457600080fd5b506105af60048036038101906105aa9190612b6f565b610ea0565b6040516105bc9190612bdd565b60405180910390f35b3480156105d157600080fd5b506105da610f51565b6040516105e79190612b21565b60405180910390f35b3480156105fc57600080fd5b5061061760048036038101906106129190612ceb565b610fdf565b60405161062491906129a7565b60405180910390f35b34801561063957600080fd5b50610642611096565b005b34801561065057600080fd5b5061066b60048036038101906106669190612ee9565b6110aa565b005b34801561067957600080fd5b506106826110e9565b60405161068f9190612bdd565b60405180910390f35b3480156106a457600080fd5b506106ad611113565b6040516106ba9190612b21565b60405180910390f35b3480156106cf57600080fd5b506106ea60048036038101906106e59190612f42565b6111a5565b005b3480156106f857600080fd5b50610713600480360381019061070e91906130b2565b6111bb565b005b61072f600480360381019061072a9190613135565b61121d565b005b34801561073d57600080fd5b50610746611418565b6040516107539190612b21565b60405180910390f35b34801561076857600080fd5b50610783600480360381019061077e9190612b6f565b6114a6565b6040516107909190612b21565b60405180910390f35b3480156107a557600080fd5b506107ae611525565b6040516107bb91906129a7565b60405180910390f35b3480156107d057600080fd5b506107eb60048036038101906107e69190613195565b61152b565b6040516107f89190612a76565b60405180910390f35b34801561080d57600080fd5b50610828600480360381019061082391906131d5565b6115bf565b005b34801561083657600080fd5b50610851600480360381019061084c9190612ceb565b611613565b005b60105481565b60007f780e9d63000000000000000000000000000000000000000000000000000000007bffffffffffffffffffffffffffffffffffffffffffffffffffffffff1916827bffffffffffffffffffffffffffffffffffffffffffffffffffffffff191614806108cc57506108cb82611696565b5b9050919050565b6060600080546108e290613231565b80601f016020809104026020016040519081016040528092919081815260200182805461090e90613231565b801561095b5780601f106109305761010080835404028352916020019161095b565b820191906000526020600020905b81548152906001019060200180831161093e57829003601f168201915b5050505050905090565b600061097082611778565b6004600083815260200190815260200160002060009054906101000a900473ffffffffffffffffffffffffffffffffffffffff169050919050565b6109b36117c3565b80600f8190555050565b60006109c882610ea0565b90508073ffffffffffffffffffffffffffffffffffffffff168373ffffffffffffffffffffffffffffffffffffffff1603610a38576040517f08c379a0000000000000000000000000000000000000000000000000000000008152600401610a2f906132d4565b60405180910390fd5b8073ffffffffffffffffffffffffffffffffffffffff16610a57611841565b73ffffffffffffffffffffffffffffffffffffffff161480610a865750610a8581610a80611841565b61152b565b5b610ac5576040517f08c379a0000000000000000000000000000000000000000000000000000000008152600401610abc90613366565b60405180910390fd5b610acf8383611849565b505050565b600d5481565b6000600880549050905090565b600f5481565b610afe610af8611841565b82611902565b610b3d576040517f08c379a0000000000000000000000000000000000000000000000000000000008152600401610b34906133f8565b60405180910390fd5b610b48838383611997565b505050565b60115481565b6000610b5e83610fdf565b8210610b9f576040517f08c379a0000000000000000000000000000000000000000000000000000000008152600401610b969061348a565b60405180910390fd5b600660008473ffffffffffffffffffffffffffffffffffffffff1673ffffffffffffffffffffffffffffffffffffffff168152602001908152602001600020600083815260200190815260200160002054905092915050565b610c006117c3565b600047905060003373ffffffffffffffffffffffffffffffffffffffff1682604051610c2b906134db565b60006040518083038185875af1925050503d8060008114610c68576040519150601f19603f3d011682016040523d82523d6000602084013e610c6d565b606091505b5050905080610c7b57600080fd5b7f8353ffcac0876ad14e226d9783c04540bfebf13871e868157d2a391cad98e9188233604051610cac9291906134f0565b60405180910390a15050565b610cd3838383604051806020016040528060008152506111bb565b505050565b60606000610ce583610fdf565b905060008167ffffffffffffffff811115610d0357610d02612f87565b5b604051908082528060200260200182016040528015610d315781602001602082028036833780820191505090505b50905060005b82811015610d7b57610d498582610b53565b828281518110610d5c57610d5b613519565b5b6020026020010181815250508080610d7390613577565b915050610d37565b508092505050919050565b610d8e6117c3565b80600d8190555050565b601260009054906101000a900460ff1681565b6000610db5610ada565b8210610df6576040517f08c379a0000000000000000000000000000000000000000000000000000000008152600401610ded90613631565b60405180910390fd5b60088281548110610e0a57610e09613519565b5b90600052602060002001549050919050565b60008084604051602001610e309190613699565b604051602081830303815290604052805190602001209050610e96848480806020026020016040519081016040528093929190818152602001838360200280828437600081840152601f19601f8201169050808301925050505050505060115483611bfd565b9150509392505050565b6000806002600084815260200190815260200160002060009054906101000a900473ffffffffffffffffffffffffffffffffffffffff169050600073ffffffffffffffffffffffffffffffffffffffff168173ffffffffffffffffffffffffffffffffffffffff1603610f48576040517f08c379a0000000000000000000000000000000000000000000000000000000008152600401610f3f90613700565b60405180910390fd5b80915050919050565b600b8054610f5e90613231565b80601f0160208091040260200160405190810160405280929190818152602001828054610f8a90613231565b8015610fd75780601f10610fac57610100808354040283529160200191610fd7565b820191906000526020600020905b815481529060010190602001808311610fba57829003601f168201915b505050505081565b60008073ffffffffffffffffffffffffffffffffffffffff168273ffffffffffffffffffffffffffffffffffffffff160361104f576040517f08c379a000000000000000000000000000000000000000000000000000000000815260040161104690613792565b60405180910390fd5b600360008373ffffffffffffffffffffffffffffffffffffffff1673ffffffffffffffffffffffffffffffffffffffff168152602001908152602001600020549050919050565b61109e6117c3565b6110a86000611c14565b565b6110b26117c3565b80601181905550807f1b930366dfeaa7eb3b325021e4ae81e36527063452ee55b86c95f85b36f4c31c60405160405180910390a250565b6000600a60009054906101000a900473ffffffffffffffffffffffffffffffffffffffff16905090565b60606001805461112290613231565b80601f016020809104026020016040519081016040528092919081815260200182805461114e90613231565b801561119b5780601f106111705761010080835404028352916020019161119b565b820191906000526020600020905b81548152906001019060200180831161117e57829003601f168201915b5050505050905090565b6111b76111b0611841565b8383611cda565b5050565b6111cc6111c6611841565b83611902565b61120b576040517f08c379a0000000000000000000000000000000000000000000000000000000008152600401611202906133f8565b60405180910390fd5b61121784848484611e46565b50505050565b60105442101561122c57600080fd5b6000831161123957600080fd5b82600d5461124791906137b2565b34101561125357600080fd5b600f54831115611298576040517f08c379a000000000000000000000000000000000000000000000000000000000815260040161128f90613866565b60405180910390fd5b601260009054906101000a900460ff1615611367576000336040516020016112c09190613699565b604051602081830303815290604052805190602001209050611326838380806020026020016040519081016040528093929190818152602001838360200280828437600081840152601f19601f8201169050808301925050505050505060115483611bfd565b611365576040517f08c379a000000000000000000000000000000000000000000000000000000000815260040161135c906138d2565b60405180910390fd5b505b6000611371610ada565b9050600e54848261138291906138f2565b111561138d57600080fd5b6000600190505b8481116113c3576113b03382846113ab91906138f2565b611ea2565b80806113bb90613577565b915050611394565b503373ffffffffffffffffffffffffffffffffffffffff167ff3cea5493d790af0133817606f7350a91d7f154ea52eaa79d179d4d231e501028560405161140a91906129a7565b60405180910390a250505050565b600c805461142590613231565b80601f016020809104026020016040519081016040528092919081815260200182805461145190613231565b801561149e5780601f106114735761010080835404028352916020019161149e565b820191906000526020600020905b81548152906001019060200180831161148157829003601f168201915b505050505081565b60606114b182611ec0565b6114f0576040517f08c379a00000000000000000000000000000000000000000000000000000000081526004016114e790613998565b60405180910390fd5b600b6114fb83611f2c565b600c60405160200161150f93929190613a8c565b6040516020818303038152906040529050919050565b600e5481565b6000600560008473ffffffffffffffffffffffffffffffffffffffff1673ffffffffffffffffffffffffffffffffffffffff16815260200190815260200160002060008373ffffffffffffffffffffffffffffffffffffffff1673ffffffffffffffffffffffffffffffffffffffff16815260200190815260200160002060009054906101000a900460ff16905092915050565b6115c76117c3565b80601260006101000a81548160ff0219169083151502179055508015157fac8eec88dbf19d0a1394da50955663d1d27acf4b7777e795bc2d579338ee048560405160405180910390a250565b61161b6117c3565b600073ffffffffffffffffffffffffffffffffffffffff168173ffffffffffffffffffffffffffffffffffffffff160361168a576040517f08c379a000000000000000000000000000000000000000000000000000000000815260040161168190613b2f565b60405180910390fd5b61169381611c14565b50565b60007f80ac58cd000000000000000000000000000000000000000000000000000000007bffffffffffffffffffffffffffffffffffffffffffffffffffffffff1916827bffffffffffffffffffffffffffffffffffffffffffffffffffffffff1916148061176157507f5b5e139f000000000000000000000000000000000000000000000000000000007bffffffffffffffffffffffffffffffffffffffffffffffffffffffff1916827bffffffffffffffffffffffffffffffffffffffffffffffffffffffff1916145b8061177157506117708261208c565b5b9050919050565b61178181611ec0565b6117c0576040517f08c379a00000000000000000000000000000000000000000000000000000000081526004016117b790613700565b60405180910390fd5b50565b6117cb611841565b73ffffffffffffffffffffffffffffffffffffffff166117e96110e9565b73ffffffffffffffffffffffffffffffffffffffff161461183f576040517f08c379a000000000000000000000000000000000000000000000000000000000815260040161183690613b9b565b60405180910390fd5b565b600033905090565b816004600083815260200190815260200160002060006101000a81548173ffffffffffffffffffffffffffffffffffffffff021916908373ffffffffffffffffffffffffffffffffffffffff160217905550808273ffffffffffffffffffffffffffffffffffffffff166118bc83610ea0565b73ffffffffffffffffffffffffffffffffffffffff167f8c5be1e5ebec7d5bd14f71427d1e84f3dd0314c0f7b2291e5b200ac8c7c3b92560405160405180910390a45050565b60008061190e83610ea0565b90508073ffffffffffffffffffffffffffffffffffffffff168473ffffffffffffffffffffffffffffffffffffffff161480611950575061194f818561152b565b5b8061198e57508373ffffffffffffffffffffffffffffffffffffffff1661197684610965565b73ffffffffffffffffffffffffffffffffffffffff16145b91505092915050565b8273ffffffffffffffffffffffffffffffffffffffff166119b782610ea0565b73ffffffffffffffffffffffffffffffffffffffff1614611a0d576040517f08c379a0000000000000000000000000000000000000000000000000000000008152600401611a0490613c2d565b60405180910390fd5b600073ffffffffffffffffffffffffffffffffffffffff168273ffffffffffffffffffffffffffffffffffffffff1603611a7c576040517f08c379a0000000000000000000000000000000000000000000000000000000008152600401611a7390613cbf565b60405180910390fd5b611a878383836120f6565b611a92600082611849565b6001600360008573ffffffffffffffffffffffffffffffffffffffff1673ffffffffffffffffffffffffffffffffffffffff1681526020019081526020016000206000828254611ae29190613cdf565b925050819055506001600360008473ffffffffffffffffffffffffffffffffffffffff1673ffffffffffffffffffffffffffffffffffffffff1681526020019081526020016000206000828254611b3991906138f2565b92505081905550816002600083815260200190815260200160002060006101000a81548173ffffffffffffffffffffffffffffffffffffffff021916908373ffffffffffffffffffffffffffffffffffffffff160217905550808273ffffffffffffffffffffffffffffffffffffffff168473ffffffffffffffffffffffffffffffffffffffff167fddf252ad1be2c89b69c2b068fc378daa952ba7f163c4a11628f55a4df523b3ef60405160405180910390a4611bf8838383612208565b505050565b600082611c0a858461220d565b1490509392505050565b6000600a60009054906101000a900473ffffffffffffffffffffffffffffffffffffffff16905081600a60006101000a81548173ffffffffffffffffffffffffffffffffffffffff021916908373ffffffffffffffffffffffffffffffffffffffff1602179055508173ffffffffffffffffffffffffffffffffffffffff168173ffffffffffffffffffffffffffffffffffffffff167f8be0079c531659141344cd1fd0a4f28419497f9722a3daafe3b4186f6b6457e060405160405180910390a35050565b8173ffffffffffffffffffffffffffffffffffffffff168373ffffffffffffffffffffffffffffffffffffffff1603611d48576040517f08c379a0000000000000000000000000000000000000000000000000000000008152600401611d3f90613d5f565b60405180910390fd5b80600560008573ffffffffffffffffffffffffffffffffffffffff1673ffffffffffffffffffffffffffffffffffffffff16815260200190815260200160002060008473ffffffffffffffffffffffffffffffffffffffff1673ffffffffffffffffffffffffffffffffffffffff16815260200190815260200160002060006101000a81548160ff0219169083151502179055508173ffffffffffffffffffffffffffffffffffffffff168373ffffffffffffffffffffffffffffffffffffffff167f17307eab39ab6107e8899845ad3d59bd9653f200f220920489ca2b5937696c3183604051611e399190612a76565b60405180910390a3505050565b611e51848484611997565b611e5d84848484612263565b611e9c576040517f08c379a0000000000000000000000000000000000000000000000000000000008152600401611e9390613df1565b60405180910390fd5b50505050565b611ebc8282604051806020016040528060008152506123ea565b5050565b60008073ffffffffffffffffffffffffffffffffffffffff166002600084815260200190815260200160002060009054906101000a900473ffffffffffffffffffffffffffffffffffffffff1673ffffffffffffffffffffffffffffffffffffffff1614159050919050565b606060008203611f73576040518060400160405280600181526020017f30000000000000000000000000000000000000000000000000000000000000008152509050612087565b600082905060005b60008214611fa5578080611f8e90613577565b915050600a82611f9e9190613e40565b9150611f7b565b60008167ffffffffffffffff811115611fc157611fc0612f87565b5b6040519080825280601f01601f191660200182016040528015611ff35781602001600182028036833780820191505090505b5090505b600085146120805760018261200c9190613cdf565b9150600a8561201b9190613e71565b603061202791906138f2565b60f81b81838151811061203d5761203c613519565b5b60200101907effffffffffffffffffffffffffffffffffffffffffffffffffffffffffffff1916908160001a905350600a856120799190613e40565b9450611ff7565b8093505050505b919050565b60007f01ffc9a7000000000000000000000000000000000000000000000000000000007bffffffffffffffffffffffffffffffffffffffffffffffffffffffff1916827bffffffffffffffffffffffffffffffffffffffffffffffffffffffff1916149050919050565b612101838383612445565b600073ffffffffffffffffffffffffffffffffffffffff168373ffffffffffffffffffffffffffffffffffffffff16036121435761213e8161244a565b612182565b8173ffffffffffffffffffffffffffffffffffffffff168373ffffffffffffffffffffffffffffffffffffffff1614612181576121808382612493565b5b5b600073ffffffffffffffffffffffffffffffffffffffff168273ffffffffffffffffffffffffffffffffffffffff16036121c4576121bf81612600565b612203565b8273ffffffffffffffffffffffffffffffffffffffff168273ffffffffffffffffffffffffffffffffffffffff16146122025761220182826126d1565b5b5b505050565b505050565b60008082905060005b8451811015612258576122438286838151811061223657612235613519565b5b6020026020010151612750565b9150808061225090613577565b915050612216565b508091505092915050565b60006122848473ffffffffffffffffffffffffffffffffffffffff1661277b565b156123dd578373ffffffffffffffffffffffffffffffffffffffff1663150b7a026122ad611841565b8786866040518563ffffffff1660e01b81526004016122cf9493929190613ef7565b6020604051808303816000875af192505050801561230b57506040513d601f19601f820116820180604052508101906123089190613f58565b60015b61238d573d806000811461233b576040519150601f19603f3d011682016040523d82523d6000602084013e612340565b606091505b506000815103612385576040517f08c379a000000000000000000000000000000000000000000000000000000000815260040161237c90613df1565b60405180910390fd5b805181602001fd5b63150b7a0260e01b7bffffffffffffffffffffffffffffffffffffffffffffffffffffffff1916817bffffffffffffffffffffffffffffffffffffffffffffffffffffffff1916149150506123e2565b600190505b949350505050565b6123f4838361279e565b6124016000848484612263565b612440576040517f08c379a000000000000000000000000000000000000000000000000000000000815260040161243790613df1565b60405180910390fd5b505050565b505050565b6008805490506009600083815260200190815260200160002081905550600881908060018154018082558091505060019003906000526020600020016000909190919091505550565b600060016124a084610fdf565b6124aa9190613cdf565b905060006007600084815260200190815260200160002054905081811461258f576000600660008673ffffffffffffffffffffffffffffffffffffffff1673ffffffffffffffffffffffffffffffffffffffff168152602001908152602001600020600084815260200190815260200160002054905080600660008773ffffffffffffffffffffffffffffffffffffffff1673ffffffffffffffffffffffffffffffffffffffff168152602001908152602001600020600084815260200190815260200160002081905550816007600083815260200190815260200160002081905550505b6007600084815260200190815260200160002060009055600660008573ffffffffffffffffffffffffffffffffffffffff1673ffffffffffffffffffffffffffffffffffffffff16815260200190815260200160002060008381526020019081526020016000206000905550505050565b600060016008805490506126149190613cdf565b905060006009600084815260200190815260200160002054905060006008838154811061264457612643613519565b5b90600052602060002001549050806008838154811061266657612665613519565b5b9060005260206000200181905550816009600083815260200190815260200160002081905550600960008581526020019081526020016000206000905560088054806126b5576126b4613f85565b5b6001900381819060005260206000200160009055905550505050565b60006126dc83610fdf565b905081600660008573ffffffffffffffffffffffffffffffffffffffff1673ffffffffffffffffffffffffffffffffffffffff168152602001908152602001600020600083815260200190815260200160002081905550806007600084815260200190815260200160002081905550505050565b6000818310612768576127638284612977565b612773565b6127728383612977565b5b905092915050565b6000808273ffffffffffffffffffffffffffffffffffffffff163b119050919050565b600073ffffffffffffffffffffffffffffffffffffffff168273ffffffffffffffffffffffffffffffffffffffff160361280d576040517f08c379a000000000000000000000000000000000000000000000000000000000815260040161280490614000565b60405180910390fd5b61281681611ec0565b15612856576040517f08c379a000000000000000000000000000000000000000000000000000000000815260040161284d9061406c565b60405180910390fd5b612862600083836120f6565b6001600360008473ffffffffffffffffffffffffffffffffffffffff1673ffffffffffffffffffffffffffffffffffffffff16815260200190815260200160002060008282546128b291906138f2565b92505081905550816002600083815260200190815260200160002060006101000a81548173ffffffffffffffffffffffffffffffffffffffff021916908373ffffffffffffffffffffffffffffffffffffffff160217905550808273ffffffffffffffffffffffffffffffffffffffff16600073ffffffffffffffffffffffffffffffffffffffff167fddf252ad1be2c89b69c2b068fc378daa952ba7f163c4a11628f55a4df523b3ef60405160405180910390a461297360008383612208565b5050565b600082600052816020526040600020905092915050565b6000819050919050565b6129a18161298e565b82525050565b60006020820190506129bc6000830184612998565b92915050565b6000604051905090565b600080fd5b600080fd5b60007fffffffff0000000000000000000000000000000000000000000000000000000082169050919050565b612a0b816129d6565b8114612a1657600080fd5b50565b600081359050612a2881612a02565b92915050565b600060208284031215612a4457612a436129cc565b5b6000612a5284828501612a19565b91505092915050565b60008115159050919050565b612a7081612a5b565b82525050565b6000602082019050612a8b6000830184612a67565b92915050565b600081519050919050565b600082825260208201905092915050565b60005b83811015612acb578082015181840152602081019050612ab0565b60008484015250505050565b6000601f19601f8301169050919050565b6000612af382612a91565b612afd8185612a9c565b9350612b0d818560208601612aad565b612b1681612ad7565b840191505092915050565b60006020820190508181036000830152612b3b8184612ae8565b905092915050565b612b4c8161298e565b8114612b5757600080fd5b50565b600081359050612b6981612b43565b92915050565b600060208284031215612b8557612b846129cc565b5b6000612b9384828501612b5a565b91505092915050565b600073ffffffffffffffffffffffffffffffffffffffff82169050919050565b6000612bc782612b9c565b9050919050565b612bd781612bbc565b82525050565b6000602082019050612bf26000830184612bce565b92915050565b612c0181612bbc565b8114612c0c57600080fd5b50565b600081359050612c1e81612bf8565b92915050565b60008060408385031215612c3b57612c3a6129cc565b5b6000612c4985828601612c0f565b9250506020612c5a85828601612b5a565b9150509250929050565b600080600060608486031215612c7d57612c7c6129cc565b5b6000612c8b86828701612c0f565b9350506020612c9c86828701612c0f565b9250506040612cad86828701612b5a565b9150509250925092565b6000819050919050565b612cca81612cb7565b82525050565b6000602082019050612ce56000830184612cc1565b92915050565b600060208284031215612d0157612d006129cc565b5b6000612d0f84828501612c0f565b91505092915050565b600081519050919050565b600082825260208201905092915050565b6000819050602082019050919050565b612d4d8161298e565b82525050565b6000612d5f8383612d44565b60208301905092915050565b6000602082019050919050565b6000612d8382612d18565b612d8d8185612d23565b9350612d9883612d34565b8060005b83811015612dc9578151612db08882612d53565b9750612dbb83612d6b565b925050600181019050612d9c565b5085935050505092915050565b60006020820190508181036000830152612df08184612d78565b905092915050565b600080fd5b600080fd5b600080fd5b60008083601f840112612e1d57612e1c612df8565b5b8235905067ffffffffffffffff811115612e3a57612e39612dfd565b5b602083019150836020820283011115612e5657612e55612e02565b5b9250929050565b600080600060408486031215612e7657612e756129cc565b5b6000612e8486828701612c0f565b935050602084013567ffffffffffffffff811115612ea557612ea46129d1565b5b612eb186828701612e07565b92509250509250925092565b612ec681612cb7565b8114612ed157600080fd5b50565b600081359050612ee381612ebd565b92915050565b600060208284031215612eff57612efe6129cc565b5b6000612f0d84828501612ed4565b91505092915050565b612f1f81612a5b565b8114612f2a57600080fd5b50565b600081359050612f3c81612f16565b92915050565b60008060408385031215612f5957612f586129cc565b5b6000612f6785828601612c0f565b9250506020612f7885828601612f2d565b9150509250929050565b600080fd5b7f4e487b7100000000000000000000000000000000000000000000000000000000600052604160045260246000fd5b612fbf82612ad7565b810181811067ffffffffffffffff82111715612fde57612fdd612f87565b5b80604052505050565b6000612ff16129c2565b9050612ffd8282612fb6565b919050565b600067ffffffffffffffff82111561301d5761301c612f87565b5b61302682612ad7565b9050602081019050919050565b82818337600083830152505050565b600061305561305084613002565b612fe7565b90508281526020810184848401111561307157613070612f82565b5b61307c848285613033565b509392505050565b600082601f83011261309957613098612df8565b5b81356130a9848260208601613042565b91505092915050565b600080600080608085870312156130cc576130cb6129cc565b5b60006130da87828801612c0f565b94505060206130eb87828801612c0f565b93505060406130fc87828801612b5a565b925050606085013567ffffffffffffffff81111561311d5761311c6129d1565b5b61312987828801613084565b91505092959194509250565b60008060006040848603121561314e5761314d6129cc565b5b600061315c86828701612b5a565b935050602084013567ffffffffffffffff81111561317d5761317c6129d1565b5b61318986828701612e07565b92509250509250925092565b600080604083850312156131ac576131ab6129cc565b5b60006131ba85828601612c0f565b92505060206131cb85828601612c0f565b9150509250929050565b6000602082840312156131eb576131ea6129cc565b5b60006131f984828501612f2d565b91505092915050565b7f4e487b7100000000000000000000000000000000000000000000000000000000600052602260045260246000fd5b6000600282049050600182168061324957607f821691505b60208210810361325c5761325b613202565b5b50919050565b7f4552433732313a20617070726f76616c20746f2063757272656e74206f776e6560008201527f7200000000000000000000000000000000000000000000000000000000000000602082015250565b60006132be602183612a9c565b91506132c982613262565b604082019050919050565b600060208201905081810360008301526132ed816132b1565b9050919050565b7f4552433732313a20617070726f76652063616c6c6572206973206e6f7420746f60008201527f6b656e206f776e6572206e6f7220617070726f76656420666f7220616c6c0000602082015250565b6000613350603e83612a9c565b915061335b826132f4565b604082019050919050565b6000602082019050818103600083015261337f81613343565b9050919050565b7f4552433732313a2063616c6c6572206973206e6f7420746f6b656e206f776e6560008201527f72206e6f7220617070726f766564000000000000000000000000000000000000602082015250565b60006133e2602e83612a9c565b91506133ed82613386565b604082019050919050565b60006020820190508181036000830152613411816133d5565b9050919050565b7f455243373231456e756d657261626c653a206f776e657220696e646578206f7560008201527f74206f6620626f756e6473000000000000000000000000000000000000000000602082015250565b6000613474602b83612a9c565b915061347f82613418565b604082019050919050565b600060208201905081810360008301526134a381613467565b9050919050565b600081905092915050565b50565b60006134c56000836134aa565b91506134d0826134b5565b600082019050919050565b60006134e6826134b8565b9150819050919050565b60006040820190506135056000830185612998565b6135126020830184612bce565b9392505050565b7f4e487b7100000000000000000000000000000000000000000000000000000000600052603260045260246000fd5b7f4e487b7100000000000000000000000000000000000000000000000000000000600052601160045260246000fd5b60006135828261298e565b91507fffffffffffffffffffffffffffffffffffffffffffffffffffffffffffffffff82036135b4576135b3613548565b5b600182019050919050565b7f455243373231456e756d657261626c653a20676c6f62616c20696e646578206f60008201527f7574206f6620626f756e64730000000000000000000000000000000000000000602082015250565b600061361b602c83612a9c565b9150613626826135bf565b604082019050919050565b6000602082019050818103600083015261364a8161360e565b9050919050565b60008160601b9050919050565b600061366982613651565b9050919050565b600061367b8261365e565b9050919050565b61369361368e82612bbc565b613670565b82525050565b60006136a58284613682565b60148201915081905092915050565b7f4552433732313a20696e76616c696420746f6b656e2049440000000000000000600082015250565b60006136ea601883612a9c565b91506136f5826136b4565b602082019050919050565b60006020820190508181036000830152613719816136dd565b9050919050565b7f4552433732313a2061646472657373207a65726f206973206e6f74206120766160008201527f6c6964206f776e65720000000000000000000000000000000000000000000000602082015250565b600061377c602983612a9c565b915061378782613720565b604082019050919050565b600060208201905081810360008301526137ab8161376f565b9050919050565b60006137bd8261298e565b91506137c88361298e565b92508282026137d68161298e565b915082820484148315176137ed576137ec613548565b5b5092915050565b7f43616e6e6f74206d696e74206d6f7265207468616e206d61784d696e74416d6f60008201527f756e740000000000000000000000000000000000000000000000000000000000602082015250565b6000613850602383612a9c565b915061385b826137f4565b604082019050919050565b6000602082019050818103600083015261387f81613843565b9050919050565b7f496e76616c6964206d65726b6c652070726f6f66000000000000000000000000600082015250565b60006138bc601483612a9c565b91506138c782613886565b602082019050919050565b600060208201905081810360008301526138eb816138af565b9050919050565b60006138fd8261298e565b91506139088361298e565b92508282019050808211156139205761391f613548565b5b92915050565b7f4552433732314d657461646174613a2055524920717565727920666f72206e6f60008201527f6e6578697374656e7420746f6b656e0000000000000000000000000000000000602082015250565b6000613982602f83612a9c565b915061398d82613926565b604082019050919050565b600060208201905081810360008301526139b181613975565b9050919050565b600081905092915050565b60008190508160005260206000209050919050565b600081546139e581613231565b6139ef81866139b8565b94506001821660008114613a0a5760018114613a1f57613a52565b60ff1983168652811515820286019350613a52565b613a28856139c3565b60005b83811015613a4a57815481890152600182019150602081019050613a2b565b838801955050505b50505092915050565b6000613a6682612a91565b613a7081856139b8565b9350613a80818560208601612aad565b80840191505092915050565b6000613a9882866139d8565b9150613aa48285613a5b565b9150613ab082846139d8565b9150819050949350505050565b7f4f776e61626c653a206e6577206f776e657220697320746865207a65726f206160008201527f6464726573730000000000000000000000000000000000000000000000000000602082015250565b6000613b19602683612a9c565b9150613b2482613abd565b604082019050919050565b60006020820190508181036000830152613b4881613b0c565b9050919050565b7f4f776e61626c653a2063616c6c6572206973206e6f7420746865206f776e6572600082015250565b6000613b85602083612a9c565b9150613b9082613b4f565b602082019050919050565b60006020820190508181036000830152613bb481613b78565b9050919050565b7f4552433732313a207472616e736665722066726f6d20696e636f72726563742060008201527f6f776e6572000000000000000000000000000000000000000000000000000000602082015250565b6000613c17602583612a9c565b9150613c2282613bbb565b604082019050919050565b60006020820190508181036000830152613c4681613c0a565b9050919050565b7f4552433732313a207472616e7366657220746f20746865207a65726f2061646460008201527f7265737300000000000000000000000000000000000000000000000000000000602082015250565b6000613ca9602483612a9c565b9150613cb482613c4d565b604082019050919050565b60006020820190508181036000830152613cd881613c9c565b9050919050565b6000613cea8261298e565b9150613cf58361298e565b9250828203905081811115613d0d57613d0c613548565b5b92915050565b7f4552433732313a20617070726f766520746f2063616c6c657200000000000000600082015250565b6000613d49601983612a9c565b9150613d5482613d13565b602082019050919050565b60006020820190508181036000830152613d7881613d3c565b9050919050565b7f4552433732313a207472616e7366657220746f206e6f6e20455243373231526560008201527f63656976657220696d706c656d656e7465720000000000000000000000000000602082015250565b6000613ddb603283612a9c565b9150613de682613d7f565b604082019050919050565b60006020820190508181036000830152613e0a81613dce565b9050919050565b7f4e487b7100000000000000000000000000000000000000000000000000000000600052601260045260246000fd5b6000613e4b8261298e565b9150613e568361298e565b925082613e6657613e65613e11565b5b828204905092915050565b6000613e7c8261298e565b9150613e878361298e565b925082613e9757613e96613e11565b5b828206905092915050565b600081519050919050565b600082825260208201905092915050565b6000613ec982613ea2565b613ed38185613ead565b9350613ee3818560208601612aad565b613eec81612ad7565b840191505092915050565b6000608082019050613f0c6000830187612bce565b613f196020830186612bce565b613f266040830185612998565b8181036060830152613f388184613ebe565b905095945050505050565b600081519050613f5281612a02565b92915050565b600060208284031215613f6e57613f6d6129cc565b5b6000613f7c84828501613f43565b91505092915050565b7f4e487b7100000000000000000000000000000000000000000000000000000000600052603160045260246000fd5b7f4552433732313a206d696e7420746f20746865207a65726f2061646472657373600082015250565b6000613fea602083612a9c565b9150613ff582613fb4565b602082019050919050565b6000602082019050818103600083015261401981613fdd565b9050919050565b7f4552433732313a20746f6b656e20616c7265616479206d696e74656400000000600082015250565b6000614056601c83612a9c565b915061406182614020565b602082019050919050565b6000602082019050818103600083015261408581614049565b905091905056fea2646970667358221220fda2ced846cce19cbc47576ff64d189c100c19e3732408409cb7bbd85dc8f6c364736f6c63430008140033","opcodes":"PUSH1 0x80 PUSH1 0x40 MSTORE PUSH1 0x40 MLOAD DUP1 PUSH1 0x40 ADD PUSH1 0x40 MSTORE DUP1 PUSH1 0x5 DUP2 MSTORE PUSH1 0x20 ADD PUSH32 0x2E6A736F6E000000000000000000000000000000000000000000000000000000 DUP2 MSTORE POP PUSH1 0xC SWAP1 DUP2 PUSH3 0x4A SWAP2 SWAP1 PUSH3 0x469 JUMP JUMPDEST POP PUSH1 0x5 PUSH1 0xF SSTORE PUSH1 0x1 PUSH1 0x12 PUSH1 0x0 PUSH2 0x100 EXP DUP2 SLOAD DUP2 PUSH1 0xFF MUL NOT AND SWAP1 DUP4 ISZERO ISZERO MUL OR SWAP1 SSTORE POP CALLVALUE DUP1 ISZERO PUSH3 0x78 JUMPI PUSH1 0x0 DUP1 REVERT JUMPDEST POP PUSH1 0x40 MLOAD PUSH3 0x4902 CODESIZE SUB DUP1 PUSH3 0x4902 DUP4 CODECOPY DUP2 DUP2 ADD PUSH1 0x40 MSTORE DUP2 ADD SWAP1 PUSH3 0x9E SWAP2 SWAP1 PUSH3 0x720 JUMP JUMPDEST DUP7 DUP7 DUP2 PUSH1 0x0 SWAP1 DUP2 PUSH3 0xB1 SWAP2 SWAP1 PUSH3 0x469 JUMP JUMPDEST POP DUP1 PUSH1 0x1 SWAP1 DUP2 PUSH3 0xC3 SWAP2 SWAP1 PUSH3 0x469 JUMP JUMPDEST POP POP POP PUSH3 0xE6 PUSH3 0xDA PUSH3 0x121 PUSH1 0x20 SHL PUSH1 0x20 SHR JUMP JUMPDEST PUSH3 0x129 PUSH1 0x20 SHL PUSH1 0x20 SHR JUMP JUMPDEST DUP5 PUSH1 0xD DUP2 SWAP1 SSTORE POP DUP4 PUSH1 0xE DUP2 SWAP1 SSTORE POP DUP3 PUSH1 0x10 DUP2 SWAP1 SSTORE POP DUP2 PUSH1 0xB SWAP1 DUP2 PUSH3 0x10C SWAP2 SWAP1 PUSH3 0x469 JUMP JUMPDEST POP DUP1 PUSH1 0x11 DUP2 SWAP1 SSTORE POP POP POP POP POP POP POP POP PUSH3 0x830 JUMP JUMPDEST PUSH1 0x0 CALLER SWAP1 POP SWAP1 JUMP JUMPDEST PUSH1 0x0 PUSH1 0xA PUSH1 0x0 SWAP1 SLOAD SWAP1 PUSH2 0x100 EXP SWAP1 DIV PUSH20 0xFFFFFFFFFFFFFFFFFFFFFFFFFFFFFFFFFFFFFFFF AND SWAP1 POP DUP2 PUSH1 0xA PUSH1 0x0 PUSH2 0x100 EXP DUP2 SLOAD DUP2 PUSH20 0xFFFFFFFFFFFFFFFFFFFFFFFFFFFFFFFFFFFFFFFF MUL NOT AND SWAP1 DUP4 PUSH20 0xFFFFFFFFFFFFFFFFFFFFFFFFFFFFFFFFFFFFFFFF AND MUL OR SWAP1 SSTORE POP DUP2 PUSH20 0xFFFFFFFFFFFFFFFFFFFFFFFFFFFFFFFFFFFFFFFF AND DUP2 PUSH20 0xFFFFFFFFFFFFFFFFFFFFFFFFFFFFFFFFFFFFFFFF AND PUSH32 0x8BE0079C531659141344CD1FD0A4F28419497F9722A3DAAFE3B4186F6B6457E0 PUSH1 0x40 MLOAD PUSH1 0x40 MLOAD DUP1 SWAP2 SUB SWAP1 LOG3 POP POP JUMP JUMPDEST PUSH1 0x0 DUP2 MLOAD SWAP1 POP SWAP2 SWAP1 POP JUMP JUMPDEST PUSH32 0x4E487B7100000000000000000000000000000000000000000000000000000000 PUSH1 0x0 MSTORE PUSH1 0x41 PUSH1 0x4 MSTORE PUSH1 0x24 PUSH1 0x0 REVERT JUMPDEST PUSH32 0x4E487B7100000000000000000000000000000000000000000000000000000000 PUSH1 0x0 MSTORE PUSH1 0x22 PUSH1 0x4 MSTORE PUSH1 0x24 PUSH1 0x0 REVERT JUMPDEST PUSH1 0x0 PUSH1 0x2 DUP3 DIV SWAP1 POP PUSH1 0x1 DUP3 AND DUP1 PUSH3 0x271 JUMPI PUSH1 0x7F DUP3 AND SWAP2 POP JUMPDEST PUSH1 0x20 DUP3 LT DUP2 SUB PUSH3 0x287 JUMPI PUSH3 0x286 PUSH3 0x229 JUMP JUMPDEST JUMPDEST POP SWAP2 SWAP1 POP JUMP JUMPDEST PUSH1 0x0 DUP2 SWAP1 POP DUP2 PUSH1 0x0 MSTORE PUSH1 0x20 PUSH1 0x0 KECCAK256 SWAP1 POP SWAP2 SWAP1 POP JUMP JUMPDEST PUSH1 0x0 PUSH1 0x20 PUSH1 0x1F DUP4 ADD DIV SWAP1 POP SWAP2 SWAP1 POP JUMP JUMPDEST PUSH1 0x0 DUP3 DUP3 SHL SWAP1 POP SWAP3 SWAP2 POP POP JUMP JUMPDEST PUSH1 0x0 PUSH1 0x8 DUP4 MUL PUSH3 0x2F1 PUSH32 0xFFFFFFFFFFFFFFFFFFFFFFFFFFFFFFFFFFFFFFFFFFFFFFFFFFFFFFFFFFFFFFFF DUP3 PUSH3 0x2B2 JUMP JUMPDEST PUSH3 0x2FD DUP7 DUP4 PUSH3 0x2B2 JUMP JUMPDEST SWAP6 POP DUP1 NOT DUP5 AND SWAP4 POP DUP1 DUP7 AND DUP5 OR SWAP3 POP POP POP SWAP4 SWAP3 POP POP POP JUMP JUMPDEST PUSH1 0x0 DUP2 SWAP1 POP SWAP2 SWAP1 POP JUMP JUMPDEST PUSH1 0x0 DUP2 SWAP1 POP SWAP2 SWAP1 POP JUMP JUMPDEST PUSH1 0x0 PUSH3 0x34A PUSH3 0x344 PUSH3 0x33E DUP5 PUSH3 0x315 JUMP JUMPDEST PUSH3 0x31F JUMP JUMPDEST PUSH3 0x315 JUMP JUMPDEST SWAP1 POP SWAP2 SWAP1 POP JUMP JUMPDEST PUSH1 0x0 DUP2 SWAP1 POP SWAP2 SWAP1 POP JUMP JUMPDEST PUSH3 0x366 DUP4 PUSH3 0x329 JUMP JUMPDEST PUSH3 0x37E PUSH3 0x375 DUP3 PUSH3 0x351 JUMP JUMPDEST DUP5 DUP5 SLOAD PUSH3 0x2BF JUMP JUMPDEST DUP3 SSTORE POP POP POP POP JUMP JUMPDEST PUSH1 0x0 SWAP1 JUMP JUMPDEST PUSH3 0x395 PUSH3 0x386 JUMP JUMPDEST PUSH3 0x3A2 DUP2 DUP5 DUP5 PUSH3 0x35B JUMP JUMPDEST POP POP POP JUMP JUMPDEST JUMPDEST DUP2 DUP2 LT ISZERO PUSH3 0x3CA JUMPI PUSH3 0x3BE PUSH1 0x0 DUP3 PUSH3 0x38B JUMP JUMPDEST PUSH1 0x1 DUP2 ADD SWAP1 POP PUSH3 0x3A8 JUMP JUMPDEST POP POP JUMP JUMPDEST PUSH1 0x1F DUP3 GT ISZERO PUSH3 0x419 JUMPI PUSH3 0x3E3 DUP2 PUSH3 0x28D JUMP JUMPDEST PUSH3 0x3EE DUP5 PUSH3 0x2A2 JUMP JUMPDEST DUP2 ADD PUSH1 0x20 DUP6 LT ISZERO PUSH3 0x3FE JUMPI DUP2 SWAP1 POP JUMPDEST PUSH3 0x416 PUSH3 0x40D DUP6 PUSH3 0x2A2 JUMP JUMPDEST DUP4 ADD DUP3 PUSH3 0x3A7 JUMP JUMPDEST POP POP JUMPDEST POP POP POP JUMP JUMPDEST PUSH1 0x0 DUP3 DUP3 SHR SWAP1 POP SWAP3 SWAP2 POP POP JUMP JUMPDEST PUSH1 0x0 PUSH3 0x43E PUSH1 0x0 NOT DUP5 PUSH1 0x8 MUL PUSH3 0x41E JUMP JUMPDEST NOT DUP1 DUP4 AND SWAP2 POP POP SWAP3 SWAP2 POP POP JUMP JUMPDEST PUSH1 0x0 PUSH3 0x459 DUP4 DUP4 PUSH3 0x42B JUMP JUMPDEST SWAP2 POP DUP3 PUSH1 0x2 MUL DUP3 OR SWAP1 POP SWAP3 SWAP2 POP POP JUMP JUMPDEST PUSH3 0x474 DUP3 PUSH3 0x1EF JUMP JUMPDEST PUSH8 0xFFFFFFFFFFFFFFFF DUP2 GT ISZERO PUSH3 0x490 JUMPI PUSH3 0x48F PUSH3 0x1FA JUMP JUMPDEST JUMPDEST PUSH3 0x49C DUP3 SLOAD PUSH3 0x258 JUMP JUMPDEST PUSH3 0x4A9 DUP3 DUP3 DUP6 PUSH3 0x3CE JUMP JUMPDEST PUSH1 0x0 PUSH1 0x20 SWAP1 POP PUSH1 0x1F DUP4 GT PUSH1 0x1 DUP2 EQ PUSH3 0x4E1 JUMPI PUSH1 0x0 DUP5 ISZERO PUSH3 0x4CC JUMPI DUP3 DUP8 ADD MLOAD SWAP1 POP JUMPDEST PUSH3 0x4D8 DUP6 DUP3 PUSH3 0x44B JUMP JUMPDEST DUP7 SSTORE POP PUSH3 0x548 JUMP JUMPDEST PUSH1 0x1F NOT DUP5 AND PUSH3 0x4F1 DUP7 PUSH3 0x28D JUMP JUMPDEST PUSH1 0x0 JUMPDEST DUP3 DUP2 LT ISZERO PUSH3 0x51B JUMPI DUP5 DUP10 ADD MLOAD DUP3 SSTORE PUSH1 0x1 DUP3 ADD SWAP2 POP PUSH1 0x20 DUP6 ADD SWAP5 POP PUSH1 0x20 DUP2 ADD SWAP1 POP PUSH3 0x4F4 JUMP JUMPDEST DUP7 DUP4 LT ISZERO PUSH3 0x53B JUMPI DUP5 DUP10 ADD MLOAD PUSH3 0x537 PUSH1 0x1F DUP10 AND DUP3 PUSH3 0x42B JUMP JUMPDEST DUP4 SSTORE POP JUMPDEST PUSH1 0x1 PUSH1 0x2 DUP9 MUL ADD DUP9 SSTORE POP POP POP JUMPDEST POP POP POP POP POP POP JUMP JUMPDEST PUSH1 0x0 PUSH1 0x40 MLOAD SWAP1 POP SWAP1 JUMP JUMPDEST PUSH1 0x0 DUP1 REVERT JUMPDEST PUSH1 0x0 DUP1 REVERT JUMPDEST PUSH1 0x0 DUP1 REVERT JUMPDEST PUSH1 0x0 DUP1 REVERT JUMPDEST PUSH1 0x0 PUSH1 0x1F NOT PUSH1 0x1F DUP4 ADD AND SWAP1 POP SWAP2 SWAP1 POP JUMP JUMPDEST PUSH3 0x58A DUP3 PUSH3 0x56E JUMP JUMPDEST DUP2 ADD DUP2 DUP2 LT PUSH8 0xFFFFFFFFFFFFFFFF DUP3 GT OR ISZERO PUSH3 0x5AC JUMPI PUSH3 0x5AB PUSH3 0x1FA JUMP JUMPDEST JUMPDEST DUP1 PUSH1 0x40 MSTORE POP POP POP JUMP JUMPDEST PUSH1 0x0 PUSH3 0x5C1 PUSH3 0x550 JUMP JUMPDEST SWAP1 POP PUSH3 0x5CF DUP3 DUP3 PUSH3 0x57F JUMP JUMPDEST SWAP2 SWAP1 POP JUMP JUMPDEST PUSH1 0x0 PUSH8 0xFFFFFFFFFFFFFFFF DUP3 GT ISZERO PUSH3 0x5F2 JUMPI PUSH3 0x5F1 PUSH3 0x1FA JUMP JUMPDEST JUMPDEST PUSH3 0x5FD DUP3 PUSH3 0x56E JUMP JUMPDEST SWAP1 POP PUSH1 0x20 DUP2 ADD SWAP1 POP SWAP2 SWAP1 POP JUMP JUMPDEST PUSH1 0x0 JUMPDEST DUP4 DUP2 LT ISZERO PUSH3 0x62A JUMPI DUP1 DUP3 ADD MLOAD DUP2 DUP5 ADD MSTORE PUSH1 0x20 DUP2 ADD SWAP1 POP PUSH3 0x60D JUMP JUMPDEST PUSH1 0x0 DUP5 DUP5 ADD MSTORE POP POP POP POP JUMP JUMPDEST PUSH1 0x0 PUSH3 0x64D PUSH3 0x647 DUP5 PUSH3 0x5D4 JUMP JUMPDEST PUSH3 0x5B5 JUMP JUMPDEST SWAP1 POP DUP3 DUP2 MSTORE PUSH1 0x20 DUP2 ADD DUP5 DUP5 DUP5 ADD GT ISZERO PUSH3 0x66C JUMPI PUSH3 0x66B PUSH3 0x569 JUMP JUMPDEST JUMPDEST PUSH3 0x679 DUP5 DUP3 DUP6 PUSH3 0x60A JUMP JUMPDEST POP SWAP4 SWAP3 POP POP POP JUMP JUMPDEST PUSH1 0x0 DUP3 PUSH1 0x1F DUP4 ADD SLT PUSH3 0x699 JUMPI PUSH3 0x698 PUSH3 0x564 JUMP JUMPDEST JUMPDEST DUP2 MLOAD PUSH3 0x6AB DUP5 DUP3 PUSH1 0x20 DUP7 ADD PUSH3 0x636 JUMP JUMPDEST SWAP2 POP POP SWAP3 SWAP2 POP POP JUMP JUMPDEST PUSH3 0x6BF DUP2 PUSH3 0x315 JUMP JUMPDEST DUP2 EQ PUSH3 0x6CB JUMPI PUSH1 0x0 DUP1 REVERT JUMPDEST POP JUMP JUMPDEST PUSH1 0x0 DUP2 MLOAD SWAP1 POP PUSH3 0x6DF DUP2 PUSH3 0x6B4 JUMP JUMPDEST SWAP3 SWAP2 POP POP JUMP JUMPDEST PUSH1 0x0 DUP2 SWAP1 POP SWAP2 SWAP1 POP JUMP JUMPDEST PUSH3 0x6FA DUP2 PUSH3 0x6E5 JUMP JUMPDEST DUP2 EQ PUSH3 0x706 JUMPI PUSH1 0x0 DUP1 REVERT JUMPDEST POP JUMP JUMPDEST PUSH1 0x0 DUP2 MLOAD SWAP1 POP PUSH3 0x71A DUP2 PUSH3 0x6EF JUMP JUMPDEST SWAP3 SWAP2 POP POP JUMP JUMPDEST PUSH1 0x0 DUP1 PUSH1 0x0 DUP1 PUSH1 0x0 DUP1 PUSH1 0x0 PUSH1 0xE0 DUP9 DUP11 SUB SLT ISZERO PUSH3 0x742 JUMPI PUSH3 0x741 PUSH3 0x55A JUMP JUMPDEST JUMPDEST PUSH1 0x0 DUP9 ADD MLOAD PUSH8 0xFFFFFFFFFFFFFFFF DUP2 GT ISZERO PUSH3 0x763 JUMPI PUSH3 0x762 PUSH3 0x55F JUMP JUMPDEST JUMPDEST PUSH3 0x771 DUP11 DUP3 DUP12 ADD PUSH3 0x681 JUMP JUMPDEST SWAP8 POP POP PUSH1 0x20 DUP9 ADD MLOAD PUSH8 0xFFFFFFFFFFFFFFFF DUP2 GT ISZERO PUSH3 0x795 JUMPI PUSH3 0x794 PUSH3 0x55F JUMP JUMPDEST JUMPDEST PUSH3 0x7A3 DUP11 DUP3 DUP12 ADD PUSH3 0x681 JUMP JUMPDEST SWAP7 POP POP PUSH1 0x40 PUSH3 0x7B6 DUP11 DUP3 DUP12 ADD PUSH3 0x6CE JUMP JUMPDEST SWAP6 POP POP PUSH1 0x60 PUSH3 0x7C9 DUP11 DUP3 DUP12 ADD PUSH3 0x6CE JUMP JUMPDEST SWAP5 POP POP PUSH1 0x80 PUSH3 0x7DC DUP11 DUP3 DUP12 ADD PUSH3 0x6CE JUMP JUMPDEST SWAP4 POP POP PUSH1 0xA0 DUP9 ADD MLOAD PUSH8 0xFFFFFFFFFFFFFFFF DUP2 GT ISZERO PUSH3 0x800 JUMPI PUSH3 0x7FF PUSH3 0x55F JUMP JUMPDEST JUMPDEST PUSH3 0x80E DUP11 DUP3 DUP12 ADD PUSH3 0x681 JUMP JUMPDEST SWAP3 POP POP PUSH1 0xC0 PUSH3 0x821 DUP11 DUP3 DUP12 ADD PUSH3 0x709 JUMP JUMPDEST SWAP2 POP POP SWAP3 SWAP6 SWAP9 SWAP2 SWAP5 SWAP8 POP SWAP3 SWAP6 POP JUMP JUMPDEST PUSH2 0x40C2 DUP1 PUSH3 0x840 PUSH1 0x0 CODECOPY PUSH1 0x0 RETURN INVALID PUSH1 0x80 PUSH1 0x40 MSTORE PUSH1 0x4 CALLDATASIZE LT PUSH2 0x204 JUMPI PUSH1 0x0 CALLDATALOAD PUSH1 0xE0 SHR DUP1 PUSH4 0x4F6CCCE7 GT PUSH2 0x118 JUMPI DUP1 PUSH4 0xA22CB465 GT PUSH2 0xA0 JUMPI DUP1 PUSH4 0xC87B56DD GT PUSH2 0x6F JUMPI DUP1 PUSH4 0xC87B56DD EQ PUSH2 0x75C JUMPI DUP1 PUSH4 0xD5ABEB01 EQ PUSH2 0x799 JUMPI DUP1 PUSH4 0xE985E9C5 EQ PUSH2 0x7C4 JUMPI DUP1 PUSH4 0xEA05A8C6 EQ PUSH2 0x801 JUMPI DUP1 PUSH4 0xF2FDE38B EQ PUSH2 0x82A JUMPI PUSH2 0x204 JUMP JUMPDEST DUP1 PUSH4 0xA22CB465 EQ PUSH2 0x6C3 JUMPI DUP1 PUSH4 0xB88D4FDE EQ PUSH2 0x6EC JUMPI DUP1 PUSH4 0xBA41B0C6 EQ PUSH2 0x715 JUMPI DUP1 PUSH4 0xC6682862 EQ PUSH2 0x731 JUMPI PUSH2 0x204 JUMP JUMPDEST DUP1 PUSH4 0x70A08231 GT PUSH2 0xE7 JUMPI DUP1 PUSH4 0x70A08231 EQ PUSH2 0x5F0 JUMPI DUP1 PUSH4 0x715018A6 EQ PUSH2 0x62D JUMPI DUP1 PUSH4 0x7CB64759 EQ PUSH2 0x644 JUMPI DUP1 PUSH4 0x8DA5CB5B EQ PUSH2 0x66D JUMPI DUP1 PUSH4 0x95D89B41 EQ PUSH2 0x698 JUMPI PUSH2 0x204 JUMP JUMPDEST DUP1 PUSH4 0x4F6CCCE7 EQ PUSH2 0x50E JUMPI DUP1 PUSH4 0x5A23DD99 EQ PUSH2 0x54B JUMPI DUP1 PUSH4 0x6352211E EQ PUSH2 0x588 JUMPI DUP1 PUSH4 0x6C0360EB EQ PUSH2 0x5C5 JUMPI PUSH2 0x204 JUMP JUMPDEST DUP1 PUSH4 0x239C70AE GT PUSH2 0x19B JUMPI DUP1 PUSH4 0x3CCFD60B GT PUSH2 0x16A JUMPI DUP1 PUSH4 0x3CCFD60B EQ PUSH2 0x43D JUMPI DUP1 PUSH4 0x42842E0E EQ PUSH2 0x454 JUMPI DUP1 PUSH4 0x438B6300 EQ PUSH2 0x47D JUMPI DUP1 PUSH4 0x44A0D68A EQ PUSH2 0x4BA JUMPI DUP1 PUSH4 0x4B4687B5 EQ PUSH2 0x4E3 JUMPI PUSH2 0x204 JUMP JUMPDEST DUP1 PUSH4 0x239C70AE EQ PUSH2 0x381 JUMPI DUP1 PUSH4 0x23B872DD EQ PUSH2 0x3AC JUMPI DUP1 PUSH4 0x2EB4A7AB EQ PUSH2 0x3D5 JUMPI DUP1 PUSH4 0x2F745C59 EQ PUSH2 0x400 JUMPI PUSH2 0x204 JUMP JUMPDEST DUP1 PUSH4 0x88A4ED0 GT PUSH2 0x1D7 JUMPI DUP1 PUSH4 0x88A4ED0 EQ PUSH2 0x2D9 JUMPI DUP1 PUSH4 0x95EA7B3 EQ PUSH2 0x302 JUMPI DUP1 PUSH4 0x13FAEDE6 EQ PUSH2 0x32B JUMPI DUP1 PUSH4 0x18160DDD EQ PUSH2 0x356 JUMPI PUSH2 0x204 JUMP JUMPDEST DUP1 PUSH4 0x1467996 EQ PUSH2 0x209 JUMPI DUP1 PUSH4 0x1FFC9A7 EQ PUSH2 0x234 JUMPI DUP1 PUSH4 0x6FDDE03 EQ PUSH2 0x271 JUMPI DUP1 PUSH4 0x81812FC EQ PUSH2 0x29C JUMPI JUMPDEST PUSH1 0x0 DUP1 REVERT JUMPDEST CALLVALUE DUP1 ISZERO PUSH2 0x215 JUMPI PUSH1 0x0 DUP1 REVERT JUMPDEST POP PUSH2 0x21E PUSH2 0x853 JUMP JUMPDEST PUSH1 0x40 MLOAD PUSH2 0x22B SWAP2 SWAP1 PUSH2 0x29A7 JUMP JUMPDEST PUSH1 0x40 MLOAD DUP1 SWAP2 SUB SWAP1 RETURN JUMPDEST CALLVALUE DUP1 ISZERO PUSH2 0x240 JUMPI PUSH1 0x0 DUP1 REVERT JUMPDEST POP PUSH2 0x25B PUSH1 0x4 DUP1 CALLDATASIZE SUB DUP2 ADD SWAP1 PUSH2 0x256 SWAP2 SWAP1 PUSH2 0x2A2E JUMP JUMPDEST PUSH2 0x859 JUMP JUMPDEST PUSH1 0x40 MLOAD PUSH2 0x268 SWAP2 SWAP1 PUSH2 0x2A76 JUMP JUMPDEST PUSH1 0x40 MLOAD DUP1 SWAP2 SUB SWAP1 RETURN JUMPDEST CALLVALUE DUP1 ISZERO PUSH2 0x27D JUMPI PUSH1 0x0 DUP1 REVERT JUMPDEST POP PUSH2 0x286 PUSH2 0x8D3 JUMP JUMPDEST PUSH1 0x40 MLOAD PUSH2 0x293 SWAP2 SWAP1 PUSH2 0x2B21 JUMP JUMPDEST PUSH1 0x40 MLOAD DUP1 SWAP2 SUB SWAP1 RETURN JUMPDEST CALLVALUE DUP1 ISZERO PUSH2 0x2A8 JUMPI PUSH1 0x0 DUP1 REVERT JUMPDEST POP PUSH2 0x2C3 PUSH1 0x4 DUP1 CALLDATASIZE SUB DUP2 ADD SWAP1 PUSH2 0x2BE SWAP2 SWAP1 PUSH2 0x2B6F JUMP JUMPDEST PUSH2 0x965 JUMP JUMPDEST PUSH1 0x40 MLOAD PUSH2 0x2D0 SWAP2 SWAP1 PUSH2 0x2BDD JUMP JUMPDEST PUSH1 0x40 MLOAD DUP1 SWAP2 SUB SWAP1 RETURN JUMPDEST CALLVALUE DUP1 ISZERO PUSH2 0x2E5 JUMPI PUSH1 0x0 DUP1 REVERT JUMPDEST POP PUSH2 0x300 PUSH1 0x4 DUP1 CALLDATASIZE SUB DUP2 ADD SWAP1 PUSH2 0x2FB SWAP2 SWAP1 PUSH2 0x2B6F JUMP JUMPDEST PUSH2 0x9AB JUMP JUMPDEST STOP JUMPDEST CALLVALUE DUP1 ISZERO PUSH2 0x30E JUMPI PUSH1 0x0 DUP1 REVERT JUMPDEST POP PUSH2 0x329 PUSH1 0x4 DUP1 CALLDATASIZE SUB DUP2 ADD SWAP1 PUSH2 0x324 SWAP2 SWAP1 PUSH2 0x2C24 JUMP JUMPDEST PUSH2 0x9BD JUMP JUMPDEST STOP JUMPDEST CALLVALUE DUP1 ISZERO PUSH2 0x337 JUMPI PUSH1 0x0 DUP1 REVERT JUMPDEST POP PUSH2 0x340 PUSH2 0xAD4 JUMP JUMPDEST PUSH1 0x40 MLOAD PUSH2 0x34D SWAP2 SWAP1 PUSH2 0x29A7 JUMP JUMPDEST PUSH1 0x40 MLOAD DUP1 SWAP2 SUB SWAP1 RETURN JUMPDEST CALLVALUE DUP1 ISZERO PUSH2 0x362 JUMPI PUSH1 0x0 DUP1 REVERT JUMPDEST POP PUSH2 0x36B PUSH2 0xADA JUMP JUMPDEST PUSH1 0x40 MLOAD PUSH2 0x378 SWAP2 SWAP1 PUSH2 0x29A7 JUMP JUMPDEST PUSH1 0x40 MLOAD DUP1 SWAP2 SUB SWAP1 RETURN JUMPDEST CALLVALUE DUP1 ISZERO PUSH2 0x38D JUMPI PUSH1 0x0 DUP1 REVERT JUMPDEST POP PUSH2 0x396 PUSH2 0xAE7 JUMP JUMPDEST PUSH1 0x40 MLOAD PUSH2 0x3A3 SWAP2 SWAP1 PUSH2 0x29A7 JUMP JUMPDEST PUSH1 0x40 MLOAD DUP1 SWAP2 SUB SWAP1 RETURN JUMPDEST CALLVALUE DUP1 ISZERO PUSH2 0x3B8 JUMPI PUSH1 0x0 DUP1 REVERT JUMPDEST POP PUSH2 0x3D3 PUSH1 0x4 DUP1 CALLDATASIZE SUB DUP2 ADD SWAP1 PUSH2 0x3CE SWAP2 SWAP1 PUSH2 0x2C64 JUMP JUMPDEST PUSH2 0xAED JUMP JUMPDEST STOP JUMPDEST CALLVALUE DUP1 ISZERO PUSH2 0x3E1 JUMPI PUSH1 0x0 DUP1 REVERT JUMPDEST POP PUSH2 0x3EA PUSH2 0xB4D JUMP JUMPDEST PUSH1 0x40 MLOAD PUSH2 0x3F7 SWAP2 SWAP1 PUSH2 0x2CD0 JUMP JUMPDEST PUSH1 0x40 MLOAD DUP1 SWAP2 SUB SWAP1 RETURN JUMPDEST CALLVALUE DUP1 ISZERO PUSH2 0x40C JUMPI PUSH1 0x0 DUP1 REVERT JUMPDEST POP PUSH2 0x427 PUSH1 0x4 DUP1 CALLDATASIZE SUB DUP2 ADD SWAP1 PUSH2 0x422 SWAP2 SWAP1 PUSH2 0x2C24 JUMP JUMPDEST PUSH2 0xB53 JUMP JUMPDEST PUSH1 0x40 MLOAD PUSH2 0x434 SWAP2 SWAP1 PUSH2 0x29A7 JUMP JUMPDEST PUSH1 0x40 MLOAD DUP1 SWAP2 SUB SWAP1 RETURN JUMPDEST CALLVALUE DUP1 ISZERO PUSH2 0x449 JUMPI PUSH1 0x0 DUP1 REVERT JUMPDEST POP PUSH2 0x452 PUSH2 0xBF8 JUMP JUMPDEST STOP JUMPDEST CALLVALUE DUP1 ISZERO PUSH2 0x460 JUMPI PUSH1 0x0 DUP1 REVERT JUMPDEST POP PUSH2 0x47B PUSH1 0x4 DUP1 CALLDATASIZE SUB DUP2 ADD SWAP1 PUSH2 0x476 SWAP2 SWAP1 PUSH2 0x2C64 JUMP JUMPDEST PUSH2 0xCB8 JUMP JUMPDEST STOP JUMPDEST CALLVALUE DUP1 ISZERO PUSH2 0x489 JUMPI PUSH1 0x0 DUP1 REVERT JUMPDEST POP PUSH2 0x4A4 PUSH1 0x4 DUP1 CALLDATASIZE SUB DUP2 ADD SWAP1 PUSH2 0x49F SWAP2 SWAP1 PUSH2 0x2CEB JUMP JUMPDEST PUSH2 0xCD8 JUMP JUMPDEST PUSH1 0x40 MLOAD PUSH2 0x4B1 SWAP2 SWAP1 PUSH2 0x2DD6 JUMP JUMPDEST PUSH1 0x40 MLOAD DUP1 SWAP2 SUB SWAP1 RETURN JUMPDEST CALLVALUE DUP1 ISZERO PUSH2 0x4C6 JUMPI PUSH1 0x0 DUP1 REVERT JUMPDEST POP PUSH2 0x4E1 PUSH1 0x4 DUP1 CALLDATASIZE SUB DUP2 ADD SWAP1 PUSH2 0x4DC SWAP2 SWAP1 PUSH2 0x2B6F JUMP JUMPDEST PUSH2 0xD86 JUMP JUMPDEST STOP JUMPDEST CALLVALUE DUP1 ISZERO PUSH2 0x4EF JUMPI PUSH1 0x0 DUP1 REVERT JUMPDEST POP PUSH2 0x4F8 PUSH2 0xD98 JUMP JUMPDEST PUSH1 0x40 MLOAD PUSH2 0x505 SWAP2 SWAP1 PUSH2 0x2A76 JUMP JUMPDEST PUSH1 0x40 MLOAD DUP1 SWAP2 SUB SWAP1 RETURN JUMPDEST CALLVALUE DUP1 ISZERO PUSH2 0x51A JUMPI PUSH1 0x0 DUP1 REVERT JUMPDEST POP PUSH2 0x535 PUSH1 0x4 DUP1 CALLDATASIZE SUB DUP2 ADD SWAP1 PUSH2 0x530 SWAP2 SWAP1 PUSH2 0x2B6F JUMP JUMPDEST PUSH2 0xDAB JUMP JUMPDEST PUSH1 0x40 MLOAD PUSH2 0x542 SWAP2 SWAP1 PUSH2 0x29A7 JUMP JUMPDEST PUSH1 0x40 MLOAD DUP1 SWAP2 SUB SWAP1 RETURN JUMPDEST CALLVALUE DUP1 ISZERO PUSH2 0x557 JUMPI PUSH1 0x0 DUP1 REVERT JUMPDEST POP PUSH2 0x572 PUSH1 0x4 DUP1 CALLDATASIZE SUB DUP2 ADD SWAP1 PUSH2 0x56D SWAP2 SWAP1 PUSH2 0x2E5D JUMP JUMPDEST PUSH2 0xE1C JUMP JUMPDEST PUSH1 0x40 MLOAD PUSH2 0x57F SWAP2 SWAP1 PUSH2 0x2A76 JUMP JUMPDEST PUSH1 0x40 MLOAD DUP1 SWAP2 SUB SWAP1 RETURN JUMPDEST CALLVALUE DUP1 ISZERO PUSH2 0x594 JUMPI PUSH1 0x0 DUP1 REVERT JUMPDEST POP PUSH2 0x5AF PUSH1 0x4 DUP1 CALLDATASIZE SUB DUP2 ADD SWAP1 PUSH2 0x5AA SWAP2 SWAP1 PUSH2 0x2B6F JUMP JUMPDEST PUSH2 0xEA0 JUMP JUMPDEST PUSH1 0x40 MLOAD PUSH2 0x5BC SWAP2 SWAP1 PUSH2 0x2BDD JUMP JUMPDEST PUSH1 0x40 MLOAD DUP1 SWAP2 SUB SWAP1 RETURN JUMPDEST CALLVALUE DUP1 ISZERO PUSH2 0x5D1 JUMPI PUSH1 0x0 DUP1 REVERT JUMPDEST POP PUSH2 0x5DA PUSH2 0xF51 JUMP JUMPDEST PUSH1 0x40 MLOAD PUSH2 0x5E7 SWAP2 SWAP1 PUSH2 0x2B21 JUMP JUMPDEST PUSH1 0x40 MLOAD DUP1 SWAP2 SUB SWAP1 RETURN JUMPDEST CALLVALUE DUP1 ISZERO PUSH2 0x5FC JUMPI PUSH1 0x0 DUP1 REVERT JUMPDEST POP PUSH2 0x617 PUSH1 0x4 DUP1 CALLDATASIZE SUB DUP2 ADD SWAP1 PUSH2 0x612 SWAP2 SWAP1 PUSH2 0x2CEB JUMP JUMPDEST PUSH2 0xFDF JUMP JUMPDEST PUSH1 0x40 MLOAD PUSH2 0x624 SWAP2 SWAP1 PUSH2 0x29A7 JUMP JUMPDEST PUSH1 0x40 MLOAD DUP1 SWAP2 SUB SWAP1 RETURN JUMPDEST CALLVALUE DUP1 ISZERO PUSH2 0x639 JUMPI PUSH1 0x0 DUP1 REVERT JUMPDEST POP PUSH2 0x642 PUSH2 0x1096 JUMP JUMPDEST STOP JUMPDEST CALLVALUE DUP1 ISZERO PUSH2 0x650 JUMPI PUSH1 0x0 DUP1 REVERT JUMPDEST POP PUSH2 0x66B PUSH1 0x4 DUP1 CALLDATASIZE SUB DUP2 ADD SWAP1 PUSH2 0x666 SWAP2 SWAP1 PUSH2 0x2EE9 JUMP JUMPDEST PUSH2 0x10AA JUMP JUMPDEST STOP JUMPDEST CALLVALUE DUP1 ISZERO PUSH2 0x679 JUMPI PUSH1 0x0 DUP1 REVERT JUMPDEST POP PUSH2 0x682 PUSH2 0x10E9 JUMP JUMPDEST PUSH1 0x40 MLOAD PUSH2 0x68F SWAP2 SWAP1 PUSH2 0x2BDD JUMP JUMPDEST PUSH1 0x40 MLOAD DUP1 SWAP2 SUB SWAP1 RETURN JUMPDEST CALLVALUE DUP1 ISZERO PUSH2 0x6A4 JUMPI PUSH1 0x0 DUP1 REVERT JUMPDEST POP PUSH2 0x6AD PUSH2 0x1113 JUMP JUMPDEST PUSH1 0x40 MLOAD PUSH2 0x6BA SWAP2 SWAP1 PUSH2 0x2B21 JUMP JUMPDEST PUSH1 0x40 MLOAD DUP1 SWAP2 SUB SWAP1 RETURN JUMPDEST CALLVALUE DUP1 ISZERO PUSH2 0x6CF JUMPI PUSH1 0x0 DUP1 REVERT JUMPDEST POP PUSH2 0x6EA PUSH1 0x4 DUP1 CALLDATASIZE SUB DUP2 ADD SWAP1 PUSH2 0x6E5 SWAP2 SWAP1 PUSH2 0x2F42 JUMP JUMPDEST PUSH2 0x11A5 JUMP JUMPDEST STOP JUMPDEST CALLVALUE DUP1 ISZERO PUSH2 0x6F8 JUMPI PUSH1 0x0 DUP1 REVERT JUMPDEST POP PUSH2 0x713 PUSH1 0x4 DUP1 CALLDATASIZE SUB DUP2 ADD SWAP1 PUSH2 0x70E SWAP2 SWAP1 PUSH2 0x30B2 JUMP JUMPDEST PUSH2 0x11BB JUMP JUMPDEST STOP JUMPDEST PUSH2 0x72F PUSH1 0x4 DUP1 CALLDATASIZE SUB DUP2 ADD SWAP1 PUSH2 0x72A SWAP2 SWAP1 PUSH2 0x3135 JUMP JUMPDEST PUSH2 0x121D JUMP JUMPDEST STOP JUMPDEST CALLVALUE DUP1 ISZERO PUSH2 0x73D JUMPI PUSH1 0x0 DUP1 REVERT JUMPDEST POP PUSH2 0x746 PUSH2 0x1418 JUMP JUMPDEST PUSH1 0x40 MLOAD PUSH2 0x753 SWAP2 SWAP1 PUSH2 0x2B21 JUMP JUMPDEST PUSH1 0x40 MLOAD DUP1 SWAP2 SUB SWAP1 RETURN JUMPDEST CALLVALUE DUP1 ISZERO PUSH2 0x768 JUMPI PUSH1 0x0 DUP1 REVERT JUMPDEST POP PUSH2 0x783 PUSH1 0x4 DUP1 CALLDATASIZE SUB DUP2 ADD SWAP1 PUSH2 0x77E SWAP2 SWAP1 PUSH2 0x2B6F JUMP JUMPDEST PUSH2 0x14A6 JUMP JUMPDEST PUSH1 0x40 MLOAD PUSH2 0x790 SWAP2 SWAP1 PUSH2 0x2B21 JUMP JUMPDEST PUSH1 0x40 MLOAD DUP1 SWAP2 SUB SWAP1 RETURN JUMPDEST CALLVALUE DUP1 ISZERO PUSH2 0x7A5 JUMPI PUSH1 0x0 DUP1 REVERT JUMPDEST POP PUSH2 0x7AE PUSH2 0x1525 JUMP JUMPDEST PUSH1 0x40 MLOAD PUSH2 0x7BB SWAP2 SWAP1 PUSH2 0x29A7 JUMP JUMPDEST PUSH1 0x40 MLOAD DUP1 SWAP2 SUB SWAP1 RETURN JUMPDEST CALLVALUE DUP1 ISZERO PUSH2 0x7D0 JUMPI PUSH1 0x0 DUP1 REVERT JUMPDEST POP PUSH2 0x7EB PUSH1 0x4 DUP1 CALLDATASIZE SUB DUP2 ADD SWAP1 PUSH2 0x7E6 SWAP2 SWAP1 PUSH2 0x3195 JUMP JUMPDEST PUSH2 0x152B JUMP JUMPDEST PUSH1 0x40 MLOAD PUSH2 0x7F8 SWAP2 SWAP1 PUSH2 0x2A76 JUMP JUMPDEST PUSH1 0x40 MLOAD DUP1 SWAP2 SUB SWAP1 RETURN JUMPDEST CALLVALUE DUP1 ISZERO PUSH2 0x80D JUMPI PUSH1 0x0 DUP1 REVERT JUMPDEST POP PUSH2 0x828 PUSH1 0x4 DUP1 CALLDATASIZE SUB DUP2 ADD SWAP1 PUSH2 0x823 SWAP2 SWAP1 PUSH2 0x31D5 JUMP JUMPDEST PUSH2 0x15BF JUMP JUMPDEST STOP JUMPDEST CALLVALUE DUP1 ISZERO PUSH2 0x836 JUMPI PUSH1 0x0 DUP1 REVERT JUMPDEST POP PUSH2 0x851 PUSH1 0x4 DUP1 CALLDATASIZE SUB DUP2 ADD SWAP1 PUSH2 0x84C SWAP2 SWAP1 PUSH2 0x2CEB JUMP JUMPDEST PUSH2 0x1613 JUMP JUMPDEST STOP JUMPDEST PUSH1 0x10 SLOAD DUP2 JUMP JUMPDEST PUSH1 0x0 PUSH32 0x780E9D6300000000000000000000000000000000000000000000000000000000 PUSH28 0xFFFFFFFFFFFFFFFFFFFFFFFFFFFFFFFFFFFFFFFFFFFFFFFFFFFFFFFF NOT AND DUP3 PUSH28 0xFFFFFFFFFFFFFFFFFFFFFFFFFFFFFFFFFFFFFFFFFFFFFFFFFFFFFFFF NOT AND EQ DUP1 PUSH2 0x8CC JUMPI POP PUSH2 0x8CB DUP3 PUSH2 0x1696 JUMP JUMPDEST JUMPDEST SWAP1 POP SWAP2 SWAP1 POP JUMP JUMPDEST PUSH1 0x60 PUSH1 0x0 DUP1 SLOAD PUSH2 0x8E2 SWAP1 PUSH2 0x3231 JUMP JUMPDEST DUP1 PUSH1 0x1F ADD PUSH1 0x20 DUP1 SWAP2 DIV MUL PUSH1 0x20 ADD PUSH1 0x40 MLOAD SWAP1 DUP2 ADD PUSH1 0x40 MSTORE DUP1 SWAP3 SWAP2 SWAP1 DUP2 DUP2 MSTORE PUSH1 0x20 ADD DUP3 DUP1 SLOAD PUSH2 0x90E SWAP1 PUSH2 0x3231 JUMP JUMPDEST DUP1 ISZERO PUSH2 0x95B JUMPI DUP1 PUSH1 0x1F LT PUSH2 0x930 JUMPI PUSH2 0x100 DUP1 DUP4 SLOAD DIV MUL DUP4 MSTORE SWAP2 PUSH1 0x20 ADD SWAP2 PUSH2 0x95B JUMP JUMPDEST DUP3 ADD SWAP2 SWAP1 PUSH1 0x0 MSTORE PUSH1 0x20 PUSH1 0x0 KECCAK256 SWAP1 JUMPDEST DUP2 SLOAD DUP2 MSTORE SWAP1 PUSH1 0x1 ADD SWAP1 PUSH1 0x20 ADD DUP1 DUP4 GT PUSH2 0x93E JUMPI DUP3 SWAP1 SUB PUSH1 0x1F AND DUP3 ADD SWAP2 JUMPDEST POP POP POP POP POP SWAP1 POP SWAP1 JUMP JUMPDEST PUSH1 0x0 PUSH2 0x970 DUP3 PUSH2 0x1778 JUMP JUMPDEST PUSH1 0x4 PUSH1 0x0 DUP4 DUP2 MSTORE PUSH1 0x20 ADD SWAP1 DUP2 MSTORE PUSH1 0x20 ADD PUSH1 0x0 KECCAK256 PUSH1 0x0 SWAP1 SLOAD SWAP1 PUSH2 0x100 EXP SWAP1 DIV PUSH20 0xFFFFFFFFFFFFFFFFFFFFFFFFFFFFFFFFFFFFFFFF AND SWAP1 POP SWAP2 SWAP1 POP JUMP JUMPDEST PUSH2 0x9B3 PUSH2 0x17C3 JUMP JUMPDEST DUP1 PUSH1 0xF DUP2 SWAP1 SSTORE POP POP JUMP JUMPDEST PUSH1 0x0 PUSH2 0x9C8 DUP3 PUSH2 0xEA0 JUMP JUMPDEST SWAP1 POP DUP1 PUSH20 0xFFFFFFFFFFFFFFFFFFFFFFFFFFFFFFFFFFFFFFFF AND DUP4 PUSH20 0xFFFFFFFFFFFFFFFFFFFFFFFFFFFFFFFFFFFFFFFF AND SUB PUSH2 0xA38 JUMPI PUSH1 0x40 MLOAD PUSH32 0x8C379A000000000000000000000000000000000000000000000000000000000 DUP2 MSTORE PUSH1 0x4 ADD PUSH2 0xA2F SWAP1 PUSH2 0x32D4 JUMP JUMPDEST PUSH1 0x40 MLOAD DUP1 SWAP2 SUB SWAP1 REVERT JUMPDEST DUP1 PUSH20 0xFFFFFFFFFFFFFFFFFFFFFFFFFFFFFFFFFFFFFFFF AND PUSH2 0xA57 PUSH2 0x1841 JUMP JUMPDEST PUSH20 0xFFFFFFFFFFFFFFFFFFFFFFFFFFFFFFFFFFFFFFFF AND EQ DUP1 PUSH2 0xA86 JUMPI POP PUSH2 0xA85 DUP2 PUSH2 0xA80 PUSH2 0x1841 JUMP JUMPDEST PUSH2 0x152B JUMP JUMPDEST JUMPDEST PUSH2 0xAC5 JUMPI PUSH1 0x40 MLOAD PUSH32 0x8C379A000000000000000000000000000000000000000000000000000000000 DUP2 MSTORE PUSH1 0x4 ADD PUSH2 0xABC SWAP1 PUSH2 0x3366 JUMP JUMPDEST PUSH1 0x40 MLOAD DUP1 SWAP2 SUB SWAP1 REVERT JUMPDEST PUSH2 0xACF DUP4 DUP4 PUSH2 0x1849 JUMP JUMPDEST POP POP POP JUMP JUMPDEST PUSH1 0xD SLOAD DUP2 JUMP JUMPDEST PUSH1 0x0 PUSH1 0x8 DUP1 SLOAD SWAP1 POP SWAP1 POP SWAP1 JUMP JUMPDEST PUSH1 0xF SLOAD DUP2 JUMP JUMPDEST PUSH2 0xAFE PUSH2 0xAF8 PUSH2 0x1841 JUMP JUMPDEST DUP3 PUSH2 0x1902 JUMP JUMPDEST PUSH2 0xB3D JUMPI PUSH1 0x40 MLOAD PUSH32 0x8C379A000000000000000000000000000000000000000000000000000000000 DUP2 MSTORE PUSH1 0x4 ADD PUSH2 0xB34 SWAP1 PUSH2 0x33F8 JUMP JUMPDEST PUSH1 0x40 MLOAD DUP1 SWAP2 SUB SWAP1 REVERT JUMPDEST PUSH2 0xB48 DUP4 DUP4 DUP4 PUSH2 0x1997 JUMP JUMPDEST POP POP POP JUMP JUMPDEST PUSH1 0x11 SLOAD DUP2 JUMP JUMPDEST PUSH1 0x0 PUSH2 0xB5E DUP4 PUSH2 0xFDF JUMP JUMPDEST DUP3 LT PUSH2 0xB9F JUMPI PUSH1 0x40 MLOAD PUSH32 0x8C379A000000000000000000000000000000000000000000000000000000000 DUP2 MSTORE PUSH1 0x4 ADD PUSH2 0xB96 SWAP1 PUSH2 0x348A JUMP JUMPDEST PUSH1 0x40 MLOAD DUP1 SWAP2 SUB SWAP1 REVERT JUMPDEST PUSH1 0x6 PUSH1 0x0 DUP5 PUSH20 0xFFFFFFFFFFFFFFFFFFFFFFFFFFFFFFFFFFFFFFFF AND PUSH20 0xFFFFFFFFFFFFFFFFFFFFFFFFFFFFFFFFFFFFFFFF AND DUP2 MSTORE PUSH1 0x20 ADD SWAP1 DUP2 MSTORE PUSH1 0x20 ADD PUSH1 0x0 KECCAK256 PUSH1 0x0 DUP4 DUP2 MSTORE PUSH1 0x20 ADD SWAP1 DUP2 MSTORE PUSH1 0x20 ADD PUSH1 0x0 KECCAK256 SLOAD SWAP1 POP SWAP3 SWAP2 POP POP JUMP JUMPDEST PUSH2 0xC00 PUSH2 0x17C3 JUMP JUMPDEST PUSH1 0x0 SELFBALANCE SWAP1 POP PUSH1 0x0 CALLER PUSH20 0xFFFFFFFFFFFFFFFFFFFFFFFFFFFFFFFFFFFFFFFF AND DUP3 PUSH1 0x40 MLOAD PUSH2 0xC2B SWAP1 PUSH2 0x34DB JUMP JUMPDEST PUSH1 0x0 PUSH1 0x40 MLOAD DUP1 DUP4 SUB DUP2 DUP6 DUP8 GAS CALL SWAP3 POP POP POP RETURNDATASIZE DUP1 PUSH1 0x0 DUP2 EQ PUSH2 0xC68 JUMPI PUSH1 0x40 MLOAD SWAP2 POP PUSH1 0x1F NOT PUSH1 0x3F RETURNDATASIZE ADD AND DUP3 ADD PUSH1 0x40 MSTORE RETURNDATASIZE DUP3 MSTORE RETURNDATASIZE PUSH1 0x0 PUSH1 0x20 DUP5 ADD RETURNDATACOPY PUSH2 0xC6D JUMP JUMPDEST PUSH1 0x60 SWAP2 POP JUMPDEST POP POP SWAP1 POP DUP1 PUSH2 0xC7B JUMPI PUSH1 0x0 DUP1 REVERT JUMPDEST PUSH32 0x8353FFCAC0876AD14E226D9783C04540BFEBF13871E868157D2A391CAD98E918 DUP3 CALLER PUSH1 0x40 MLOAD PUSH2 0xCAC SWAP3 SWAP2 SWAP1 PUSH2 0x34F0 JUMP JUMPDEST PUSH1 0x40 MLOAD DUP1 SWAP2 SUB SWAP1 LOG1 POP POP JUMP JUMPDEST PUSH2 0xCD3 DUP4 DUP4 DUP4 PUSH1 0x40 MLOAD DUP1 PUSH1 0x20 ADD PUSH1 0x40 MSTORE DUP1 PUSH1 0x0 DUP2 MSTORE POP PUSH2 0x11BB JUMP JUMPDEST POP POP POP JUMP JUMPDEST PUSH1 0x60 PUSH1 0x0 PUSH2 0xCE5 DUP4 PUSH2 0xFDF JUMP JUMPDEST SWAP1 POP PUSH1 0x0 DUP2 PUSH8 0xFFFFFFFFFFFFFFFF DUP2 GT ISZERO PUSH2 0xD03 JUMPI PUSH2 0xD02 PUSH2 0x2F87 JUMP JUMPDEST JUMPDEST PUSH1 0x40 MLOAD SWAP1 DUP1 DUP3 MSTORE DUP1 PUSH1 0x20 MUL PUSH1 0x20 ADD DUP3 ADD PUSH1 0x40 MSTORE DUP1 ISZERO PUSH2 0xD31 JUMPI DUP2 PUSH1 0x20 ADD PUSH1 0x20 DUP3 MUL DUP1 CALLDATASIZE DUP4 CALLDATACOPY DUP1 DUP3 ADD SWAP2 POP POP SWAP1 POP JUMPDEST POP SWAP1 POP PUSH1 0x0 JUMPDEST DUP3 DUP2 LT ISZERO PUSH2 0xD7B JUMPI PUSH2 0xD49 DUP6 DUP3 PUSH2 0xB53 JUMP JUMPDEST DUP3 DUP3 DUP2 MLOAD DUP2 LT PUSH2 0xD5C JUMPI PUSH2 0xD5B PUSH2 0x3519 JUMP JUMPDEST JUMPDEST PUSH1 0x20 MUL PUSH1 0x20 ADD ADD DUP2 DUP2 MSTORE POP POP DUP1 DUP1 PUSH2 0xD73 SWAP1 PUSH2 0x3577 JUMP JUMPDEST SWAP2 POP POP PUSH2 0xD37 JUMP JUMPDEST POP DUP1 SWAP3 POP POP POP SWAP2 SWAP1 POP JUMP JUMPDEST PUSH2 0xD8E PUSH2 0x17C3 JUMP JUMPDEST DUP1 PUSH1 0xD DUP2 SWAP1 SSTORE POP POP JUMP JUMPDEST PUSH1 0x12 PUSH1 0x0 SWAP1 SLOAD SWAP1 PUSH2 0x100 EXP SWAP1 DIV PUSH1 0xFF AND DUP2 JUMP JUMPDEST PUSH1 0x0 PUSH2 0xDB5 PUSH2 0xADA JUMP JUMPDEST DUP3 LT PUSH2 0xDF6 JUMPI PUSH1 0x40 MLOAD PUSH32 0x8C379A000000000000000000000000000000000000000000000000000000000 DUP2 MSTORE PUSH1 0x4 ADD PUSH2 0xDED SWAP1 PUSH2 0x3631 JUMP JUMPDEST PUSH1 0x40 MLOAD DUP1 SWAP2 SUB SWAP1 REVERT JUMPDEST PUSH1 0x8 DUP3 DUP2 SLOAD DUP2 LT PUSH2 0xE0A JUMPI PUSH2 0xE09 PUSH2 0x3519 JUMP JUMPDEST JUMPDEST SWAP1 PUSH1 0x0 MSTORE PUSH1 0x20 PUSH1 0x0 KECCAK256 ADD SLOAD SWAP1 POP SWAP2 SWAP1 POP JUMP JUMPDEST PUSH1 0x0 DUP1 DUP5 PUSH1 0x40 MLOAD PUSH1 0x20 ADD PUSH2 0xE30 SWAP2 SWAP1 PUSH2 0x3699 JUMP JUMPDEST PUSH1 0x40 MLOAD PUSH1 0x20 DUP2 DUP4 SUB SUB DUP2 MSTORE SWAP1 PUSH1 0x40 MSTORE DUP1 MLOAD SWAP1 PUSH1 0x20 ADD KECCAK256 SWAP1 POP PUSH2 0xE96 DUP5 DUP5 DUP1 DUP1 PUSH1 0x20 MUL PUSH1 0x20 ADD PUSH1 0x40 MLOAD SWAP1 DUP2 ADD PUSH1 0x40 MSTORE DUP1 SWAP4 SWAP3 SWAP2 SWAP1 DUP2 DUP2 MSTORE PUSH1 0x20 ADD DUP4 DUP4 PUSH1 0x20 MUL DUP1 DUP3 DUP5 CALLDATACOPY PUSH1 0x0 DUP2 DUP5 ADD MSTORE PUSH1 0x1F NOT PUSH1 0x1F DUP3 ADD AND SWAP1 POP DUP1 DUP4 ADD SWAP3 POP POP POP POP POP POP POP PUSH1 0x11 SLOAD DUP4 PUSH2 0x1BFD JUMP JUMPDEST SWAP2 POP POP SWAP4 SWAP3 POP POP POP JUMP JUMPDEST PUSH1 0x0 DUP1 PUSH1 0x2 PUSH1 0x0 DUP5 DUP2 MSTORE PUSH1 0x20 ADD SWAP1 DUP2 MSTORE PUSH1 0x20 ADD PUSH1 0x0 KECCAK256 PUSH1 0x0 SWAP1 SLOAD SWAP1 PUSH2 0x100 EXP SWAP1 DIV PUSH20 0xFFFFFFFFFFFFFFFFFFFFFFFFFFFFFFFFFFFFFFFF AND SWAP1 POP PUSH1 0x0 PUSH20 0xFFFFFFFFFFFFFFFFFFFFFFFFFFFFFFFFFFFFFFFF AND DUP2 PUSH20 0xFFFFFFFFFFFFFFFFFFFFFFFFFFFFFFFFFFFFFFFF AND SUB PUSH2 0xF48 JUMPI PUSH1 0x40 MLOAD PUSH32 0x8C379A000000000000000000000000000000000000000000000000000000000 DUP2 MSTORE PUSH1 0x4 ADD PUSH2 0xF3F SWAP1 PUSH2 0x3700 JUMP JUMPDEST PUSH1 0x40 MLOAD DUP1 SWAP2 SUB SWAP1 REVERT JUMPDEST DUP1 SWAP2 POP POP SWAP2 SWAP1 POP JUMP JUMPDEST PUSH1 0xB DUP1 SLOAD PUSH2 0xF5E SWAP1 PUSH2 0x3231 JUMP JUMPDEST DUP1 PUSH1 0x1F ADD PUSH1 0x20 DUP1 SWAP2 DIV MUL PUSH1 0x20 ADD PUSH1 0x40 MLOAD SWAP1 DUP2 ADD PUSH1 0x40 MSTORE DUP1 SWAP3 SWAP2 SWAP1 DUP2 DUP2 MSTORE PUSH1 0x20 ADD DUP3 DUP1 SLOAD PUSH2 0xF8A SWAP1 PUSH2 0x3231 JUMP JUMPDEST DUP1 ISZERO PUSH2 0xFD7 JUMPI DUP1 PUSH1 0x1F LT PUSH2 0xFAC JUMPI PUSH2 0x100 DUP1 DUP4 SLOAD DIV MUL DUP4 MSTORE SWAP2 PUSH1 0x20 ADD SWAP2 PUSH2 0xFD7 JUMP JUMPDEST DUP3 ADD SWAP2 SWAP1 PUSH1 0x0 MSTORE PUSH1 0x20 PUSH1 0x0 KECCAK256 SWAP1 JUMPDEST DUP2 SLOAD DUP2 MSTORE SWAP1 PUSH1 0x1 ADD SWAP1 PUSH1 0x20 ADD DUP1 DUP4 GT PUSH2 0xFBA JUMPI DUP3 SWAP1 SUB PUSH1 0x1F AND DUP3 ADD SWAP2 JUMPDEST POP POP POP POP POP DUP2 JUMP JUMPDEST PUSH1 0x0 DUP1 PUSH20 0xFFFFFFFFFFFFFFFFFFFFFFFFFFFFFFFFFFFFFFFF AND DUP3 PUSH20 0xFFFFFFFFFFFFFFFFFFFFFFFFFFFFFFFFFFFFFFFF AND SUB PUSH2 0x104F JUMPI PUSH1 0x40 MLOAD PUSH32 0x8C379A000000000000000000000000000000000000000000000000000000000 DUP2 MSTORE PUSH1 0x4 ADD PUSH2 0x1046 SWAP1 PUSH2 0x3792 JUMP JUMPDEST PUSH1 0x40 MLOAD DUP1 SWAP2 SUB SWAP1 REVERT JUMPDEST PUSH1 0x3 PUSH1 0x0 DUP4 PUSH20 0xFFFFFFFFFFFFFFFFFFFFFFFFFFFFFFFFFFFFFFFF AND PUSH20 0xFFFFFFFFFFFFFFFFFFFFFFFFFFFFFFFFFFFFFFFF AND DUP2 MSTORE PUSH1 0x20 ADD SWAP1 DUP2 MSTORE PUSH1 0x20 ADD PUSH1 0x0 KECCAK256 SLOAD SWAP1 POP SWAP2 SWAP1 POP JUMP JUMPDEST PUSH2 0x109E PUSH2 0x17C3 JUMP JUMPDEST PUSH2 0x10A8 PUSH1 0x0 PUSH2 0x1C14 JUMP JUMPDEST JUMP JUMPDEST PUSH2 0x10B2 PUSH2 0x17C3 JUMP JUMPDEST DUP1 PUSH1 0x11 DUP2 SWAP1 SSTORE POP DUP1 PUSH32 0x1B930366DFEAA7EB3B325021E4AE81E36527063452EE55B86C95F85B36F4C31C PUSH1 0x40 MLOAD PUSH1 0x40 MLOAD DUP1 SWAP2 SUB SWAP1 LOG2 POP JUMP JUMPDEST PUSH1 0x0 PUSH1 0xA PUSH1 0x0 SWAP1 SLOAD SWAP1 PUSH2 0x100 EXP SWAP1 DIV PUSH20 0xFFFFFFFFFFFFFFFFFFFFFFFFFFFFFFFFFFFFFFFF AND SWAP1 POP SWAP1 JUMP JUMPDEST PUSH1 0x60 PUSH1 0x1 DUP1 SLOAD PUSH2 0x1122 SWAP1 PUSH2 0x3231 JUMP JUMPDEST DUP1 PUSH1 0x1F ADD PUSH1 0x20 DUP1 SWAP2 DIV MUL PUSH1 0x20 ADD PUSH1 0x40 MLOAD SWAP1 DUP2 ADD PUSH1 0x40 MSTORE DUP1 SWAP3 SWAP2 SWAP1 DUP2 DUP2 MSTORE PUSH1 0x20 ADD DUP3 DUP1 SLOAD PUSH2 0x114E SWAP1 PUSH2 0x3231 JUMP JUMPDEST DUP1 ISZERO PUSH2 0x119B JUMPI DUP1 PUSH1 0x1F LT PUSH2 0x1170 JUMPI PUSH2 0x100 DUP1 DUP4 SLOAD DIV MUL DUP4 MSTORE SWAP2 PUSH1 0x20 ADD SWAP2 PUSH2 0x119B JUMP JUMPDEST DUP3 ADD SWAP2 SWAP1 PUSH1 0x0 MSTORE PUSH1 0x20 PUSH1 0x0 KECCAK256 SWAP1 JUMPDEST DUP2 SLOAD DUP2 MSTORE SWAP1 PUSH1 0x1 ADD SWAP1 PUSH1 0x20 ADD DUP1 DUP4 GT PUSH2 0x117E JUMPI DUP3 SWAP1 SUB PUSH1 0x1F AND DUP3 ADD SWAP2 JUMPDEST POP POP POP POP POP SWAP1 POP SWAP1 JUMP JUMPDEST PUSH2 0x11B7 PUSH2 0x11B0 PUSH2 0x1841 JUMP JUMPDEST DUP4 DUP4 PUSH2 0x1CDA JUMP JUMPDEST POP POP JUMP JUMPDEST PUSH2 0x11CC PUSH2 0x11C6 PUSH2 0x1841 JUMP JUMPDEST DUP4 PUSH2 0x1902 JUMP JUMPDEST PUSH2 0x120B JUMPI PUSH1 0x40 MLOAD PUSH32 0x8C379A000000000000000000000000000000000000000000000000000000000 DUP2 MSTORE PUSH1 0x4 ADD PUSH2 0x1202 SWAP1 PUSH2 0x33F8 JUMP JUMPDEST PUSH1 0x40 MLOAD DUP1 SWAP2 SUB SWAP1 REVERT JUMPDEST PUSH2 0x1217 DUP5 DUP5 DUP5 DUP5 PUSH2 0x1E46 JUMP JUMPDEST POP POP POP POP JUMP JUMPDEST PUSH1 0x10 SLOAD TIMESTAMP LT ISZERO PUSH2 0x122C JUMPI PUSH1 0x0 DUP1 REVERT JUMPDEST PUSH1 0x0 DUP4 GT PUSH2 0x1239 JUMPI PUSH1 0x0 DUP1 REVERT JUMPDEST DUP3 PUSH1 0xD SLOAD PUSH2 0x1247 SWAP2 SWAP1 PUSH2 0x37B2 JUMP JUMPDEST CALLVALUE LT ISZERO PUSH2 0x1253 JUMPI PUSH1 0x0 DUP1 REVERT JUMPDEST PUSH1 0xF SLOAD DUP4 GT ISZERO PUSH2 0x1298 JUMPI PUSH1 0x40 MLOAD PUSH32 0x8C379A000000000000000000000000000000000000000000000000000000000 DUP2 MSTORE PUSH1 0x4 ADD PUSH2 0x128F SWAP1 PUSH2 0x3866 JUMP JUMPDEST PUSH1 0x40 MLOAD DUP1 SWAP2 SUB SWAP1 REVERT JUMPDEST PUSH1 0x12 PUSH1 0x0 SWAP1 SLOAD SWAP1 PUSH2 0x100 EXP SWAP1 DIV PUSH1 0xFF AND ISZERO PUSH2 0x1367 JUMPI PUSH1 0x0 CALLER PUSH1 0x40 MLOAD PUSH1 0x20 ADD PUSH2 0x12C0 SWAP2 SWAP1 PUSH2 0x3699 JUMP JUMPDEST PUSH1 0x40 MLOAD PUSH1 0x20 DUP2 DUP4 SUB SUB DUP2 MSTORE SWAP1 PUSH1 0x40 MSTORE DUP1 MLOAD SWAP1 PUSH1 0x20 ADD KECCAK256 SWAP1 POP PUSH2 0x1326 DUP4 DUP4 DUP1 DUP1 PUSH1 0x20 MUL PUSH1 0x20 ADD PUSH1 0x40 MLOAD SWAP1 DUP2 ADD PUSH1 0x40 MSTORE DUP1 SWAP4 SWAP3 SWAP2 SWAP1 DUP2 DUP2 MSTORE PUSH1 0x20 ADD DUP4 DUP4 PUSH1 0x20 MUL DUP1 DUP3 DUP5 CALLDATACOPY PUSH1 0x0 DUP2 DUP5 ADD MSTORE PUSH1 0x1F NOT PUSH1 0x1F DUP3 ADD AND SWAP1 POP DUP1 DUP4 ADD SWAP3 POP POP POP POP POP POP POP PUSH1 0x11 SLOAD DUP4 PUSH2 0x1BFD JUMP JUMPDEST PUSH2 0x1365 JUMPI PUSH1 0x40 MLOAD PUSH32 0x8C379A000000000000000000000000000000000000000000000000000000000 DUP2 MSTORE PUSH1 0x4 ADD PUSH2 0x135C SWAP1 PUSH2 0x38D2 JUMP JUMPDEST PUSH1 0x40 MLOAD DUP1 SWAP2 SUB SWAP1 REVERT JUMPDEST POP JUMPDEST PUSH1 0x0 PUSH2 0x1371 PUSH2 0xADA JUMP JUMPDEST SWAP1 POP PUSH1 0xE SLOAD DUP5 DUP3 PUSH2 0x1382 SWAP2 SWAP1 PUSH2 0x38F2 JUMP JUMPDEST GT ISZERO PUSH2 0x138D JUMPI PUSH1 0x0 DUP1 REVERT JUMPDEST PUSH1 0x0 PUSH1 0x1 SWAP1 POP JUMPDEST DUP5 DUP2 GT PUSH2 0x13C3 JUMPI PUSH2 0x13B0 CALLER DUP3 DUP5 PUSH2 0x13AB SWAP2 SWAP1 PUSH2 0x38F2 JUMP JUMPDEST PUSH2 0x1EA2 JUMP JUMPDEST DUP1 DUP1 PUSH2 0x13BB SWAP1 PUSH2 0x3577 JUMP JUMPDEST SWAP2 POP POP PUSH2 0x1394 JUMP JUMPDEST POP CALLER PUSH20 0xFFFFFFFFFFFFFFFFFFFFFFFFFFFFFFFFFFFFFFFF AND PUSH32 0xF3CEA5493D790AF0133817606F7350A91D7F154EA52EAA79D179D4D231E50102 DUP6 PUSH1 0x40 MLOAD PUSH2 0x140A SWAP2 SWAP1 PUSH2 0x29A7 JUMP JUMPDEST PUSH1 0x40 MLOAD DUP1 SWAP2 SUB SWAP1 LOG2 POP POP POP POP JUMP JUMPDEST PUSH1 0xC DUP1 SLOAD PUSH2 0x1425 SWAP1 PUSH2 0x3231 JUMP JUMPDEST DUP1 PUSH1 0x1F ADD PUSH1 0x20 DUP1 SWAP2 DIV MUL PUSH1 0x20 ADD PUSH1 0x40 MLOAD SWAP1 DUP2 ADD PUSH1 0x40 MSTORE DUP1 SWAP3 SWAP2 SWAP1 DUP2 DUP2 MSTORE PUSH1 0x20 ADD DUP3 DUP1 SLOAD PUSH2 0x1451 SWAP1 PUSH2 0x3231 JUMP JUMPDEST DUP1 ISZERO PUSH2 0x149E JUMPI DUP1 PUSH1 0x1F LT PUSH2 0x1473 JUMPI PUSH2 0x100 DUP1 DUP4 SLOAD DIV MUL DUP4 MSTORE SWAP2 PUSH1 0x20 ADD SWAP2 PUSH2 0x149E JUMP JUMPDEST DUP3 ADD SWAP2 SWAP1 PUSH1 0x0 MSTORE PUSH1 0x20 PUSH1 0x0 KECCAK256 SWAP1 JUMPDEST DUP2 SLOAD DUP2 MSTORE SWAP1 PUSH1 0x1 ADD SWAP1 PUSH1 0x20 ADD DUP1 DUP4 GT PUSH2 0x1481 JUMPI DUP3 SWAP1 SUB PUSH1 0x1F AND DUP3 ADD SWAP2 JUMPDEST POP POP POP POP POP DUP2 JUMP JUMPDEST PUSH1 0x60 PUSH2 0x14B1 DUP3 PUSH2 0x1EC0 JUMP JUMPDEST PUSH2 0x14F0 JUMPI PUSH1 0x40 MLOAD PUSH32 0x8C379A000000000000000000000000000000000000000000000000000000000 DUP2 MSTORE PUSH1 0x4 ADD PUSH2 0x14E7 SWAP1 PUSH2 0x3998 JUMP JUMPDEST PUSH1 0x40 MLOAD DUP1 SWAP2 SUB SWAP1 REVERT JUMPDEST PUSH1 0xB PUSH2 0x14FB DUP4 PUSH2 0x1F2C JUMP JUMPDEST PUSH1 0xC PUSH1 0x40 MLOAD PUSH1 0x20 ADD PUSH2 0x150F SWAP4 SWAP3 SWAP2 SWAP1 PUSH2 0x3A8C JUMP JUMPDEST PUSH1 0x40 MLOAD PUSH1 0x20 DUP2 DUP4 SUB SUB DUP2 MSTORE SWAP1 PUSH1 0x40 MSTORE SWAP1 POP SWAP2 SWAP1 POP JUMP JUMPDEST PUSH1 0xE SLOAD DUP2 JUMP JUMPDEST PUSH1 0x0 PUSH1 0x5 PUSH1 0x0 DUP5 PUSH20 0xFFFFFFFFFFFFFFFFFFFFFFFFFFFFFFFFFFFFFFFF AND PUSH20 0xFFFFFFFFFFFFFFFFFFFFFFFFFFFFFFFFFFFFFFFF AND DUP2 MSTORE PUSH1 0x20 ADD SWAP1 DUP2 MSTORE PUSH1 0x20 ADD PUSH1 0x0 KECCAK256 PUSH1 0x0 DUP4 PUSH20 0xFFFFFFFFFFFFFFFFFFFFFFFFFFFFFFFFFFFFFFFF AND PUSH20 0xFFFFFFFFFFFFFFFFFFFFFFFFFFFFFFFFFFFFFFFF AND DUP2 MSTORE PUSH1 0x20 ADD SWAP1 DUP2 MSTORE PUSH1 0x20 ADD PUSH1 0x0 KECCAK256 PUSH1 0x0 SWAP1 SLOAD SWAP1 PUSH2 0x100 EXP SWAP1 DIV PUSH1 0xFF AND SWAP1 POP SWAP3 SWAP2 POP POP JUMP JUMPDEST PUSH2 0x15C7 PUSH2 0x17C3 JUMP JUMPDEST DUP1 PUSH1 0x12 PUSH1 0x0 PUSH2 0x100 EXP DUP2 SLOAD DUP2 PUSH1 0xFF MUL NOT AND SWAP1 DUP4 ISZERO ISZERO MUL OR SWAP1 SSTORE POP DUP1 ISZERO ISZERO PUSH32 0xAC8EEC88DBF19D0A1394DA50955663D1D27ACF4B7777E795BC2D579338EE0485 PUSH1 0x40 MLOAD PUSH1 0x40 MLOAD DUP1 SWAP2 SUB SWAP1 LOG2 POP JUMP JUMPDEST PUSH2 0x161B PUSH2 0x17C3 JUMP JUMPDEST PUSH1 0x0 PUSH20 0xFFFFFFFFFFFFFFFFFFFFFFFFFFFFFFFFFFFFFFFF AND DUP2 PUSH20 0xFFFFFFFFFFFFFFFFFFFFFFFFFFFFFFFFFFFFFFFF AND SUB PUSH2 0x168A JUMPI PUSH1 0x40 MLOAD PUSH32 0x8C379A000000000000000000000000000000000000000000000000000000000 DUP2 MSTORE PUSH1 0x4 ADD PUSH2 0x1681 SWAP1 PUSH2 0x3B2F JUMP JUMPDEST PUSH1 0x40 MLOAD DUP1 SWAP2 SUB SWAP1 REVERT JUMPDEST PUSH2 0x1693 DUP2 PUSH2 0x1C14 JUMP JUMPDEST POP JUMP JUMPDEST PUSH1 0x0 PUSH32 0x80AC58CD00000000000000000000000000000000000000000000000000000000 PUSH28 0xFFFFFFFFFFFFFFFFFFFFFFFFFFFFFFFFFFFFFFFFFFFFFFFFFFFFFFFF NOT AND DUP3 PUSH28 0xFFFFFFFFFFFFFFFFFFFFFFFFFFFFFFFFFFFFFFFFFFFFFFFFFFFFFFFF NOT AND EQ DUP1 PUSH2 0x1761 JUMPI POP PUSH32 0x5B5E139F00000000000000000000000000000000000000000000000000000000 PUSH28 0xFFFFFFFFFFFFFFFFFFFFFFFFFFFFFFFFFFFFFFFFFFFFFFFFFFFFFFFF NOT AND DUP3 PUSH28 0xFFFFFFFFFFFFFFFFFFFFFFFFFFFFFFFFFFFFFFFFFFFFFFFFFFFFFFFF NOT AND EQ JUMPDEST DUP1 PUSH2 0x1771 JUMPI POP PUSH2 0x1770 DUP3 PUSH2 0x208C JUMP JUMPDEST JUMPDEST SWAP1 POP SWAP2 SWAP1 POP JUMP JUMPDEST PUSH2 0x1781 DUP2 PUSH2 0x1EC0 JUMP JUMPDEST PUSH2 0x17C0 JUMPI PUSH1 0x40 MLOAD PUSH32 0x8C379A000000000000000000000000000000000000000000000000000000000 DUP2 MSTORE PUSH1 0x4 ADD PUSH2 0x17B7 SWAP1 PUSH2 0x3700 JUMP JUMPDEST PUSH1 0x40 MLOAD DUP1 SWAP2 SUB SWAP1 REVERT JUMPDEST POP JUMP JUMPDEST PUSH2 0x17CB PUSH2 0x1841 JUMP JUMPDEST PUSH20 0xFFFFFFFFFFFFFFFFFFFFFFFFFFFFFFFFFFFFFFFF AND PUSH2 0x17E9 PUSH2 0x10E9 JUMP JUMPDEST PUSH20 0xFFFFFFFFFFFFFFFFFFFFFFFFFFFFFFFFFFFFFFFF AND EQ PUSH2 0x183F JUMPI PUSH1 0x40 MLOAD PUSH32 0x8C379A000000000000000000000000000000000000000000000000000000000 DUP2 MSTORE PUSH1 0x4 ADD PUSH2 0x1836 SWAP1 PUSH2 0x3B9B JUMP JUMPDEST PUSH1 0x40 MLOAD DUP1 SWAP2 SUB SWAP1 REVERT JUMPDEST JUMP JUMPDEST PUSH1 0x0 CALLER SWAP1 POP SWAP1 JUMP JUMPDEST DUP2 PUSH1 0x4 PUSH1 0x0 DUP4 DUP2 MSTORE PUSH1 0x20 ADD SWAP1 DUP2 MSTORE PUSH1 0x20 ADD PUSH1 0x0 KECCAK256 PUSH1 0x0 PUSH2 0x100 EXP DUP2 SLOAD DUP2 PUSH20 0xFFFFFFFFFFFFFFFFFFFFFFFFFFFFFFFFFFFFFFFF MUL NOT AND SWAP1 DUP4 PUSH20 0xFFFFFFFFFFFFFFFFFFFFFFFFFFFFFFFFFFFFFFFF AND MUL OR SWAP1 SSTORE POP DUP1 DUP3 PUSH20 0xFFFFFFFFFFFFFFFFFFFFFFFFFFFFFFFFFFFFFFFF AND PUSH2 0x18BC DUP4 PUSH2 0xEA0 JUMP JUMPDEST PUSH20 0xFFFFFFFFFFFFFFFFFFFFFFFFFFFFFFFFFFFFFFFF AND PUSH32 0x8C5BE1E5EBEC7D5BD14F71427D1E84F3DD0314C0F7B2291E5B200AC8C7C3B925 PUSH1 0x40 MLOAD PUSH1 0x40 MLOAD DUP1 SWAP2 SUB SWAP1 LOG4 POP POP JUMP JUMPDEST PUSH1 0x0 DUP1 PUSH2 0x190E DUP4 PUSH2 0xEA0 JUMP JUMPDEST SWAP1 POP DUP1 PUSH20 0xFFFFFFFFFFFFFFFFFFFFFFFFFFFFFFFFFFFFFFFF AND DUP5 PUSH20 0xFFFFFFFFFFFFFFFFFFFFFFFFFFFFFFFFFFFFFFFF AND EQ DUP1 PUSH2 0x1950 JUMPI POP PUSH2 0x194F DUP2 DUP6 PUSH2 0x152B JUMP JUMPDEST JUMPDEST DUP1 PUSH2 0x198E JUMPI POP DUP4 PUSH20 0xFFFFFFFFFFFFFFFFFFFFFFFFFFFFFFFFFFFFFFFF AND PUSH2 0x1976 DUP5 PUSH2 0x965 JUMP JUMPDEST PUSH20 0xFFFFFFFFFFFFFFFFFFFFFFFFFFFFFFFFFFFFFFFF AND EQ JUMPDEST SWAP2 POP POP SWAP3 SWAP2 POP POP JUMP JUMPDEST DUP3 PUSH20 0xFFFFFFFFFFFFFFFFFFFFFFFFFFFFFFFFFFFFFFFF AND PUSH2 0x19B7 DUP3 PUSH2 0xEA0 JUMP JUMPDEST PUSH20 0xFFFFFFFFFFFFFFFFFFFFFFFFFFFFFFFFFFFFFFFF AND EQ PUSH2 0x1A0D JUMPI PUSH1 0x40 MLOAD PUSH32 0x8C379A000000000000000000000000000000000000000000000000000000000 DUP2 MSTORE PUSH1 0x4 ADD PUSH2 0x1A04 SWAP1 PUSH2 0x3C2D JUMP JUMPDEST PUSH1 0x40 MLOAD DUP1 SWAP2 SUB SWAP1 REVERT JUMPDEST PUSH1 0x0 PUSH20 0xFFFFFFFFFFFFFFFFFFFFFFFFFFFFFFFFFFFFFFFF AND DUP3 PUSH20 0xFFFFFFFFFFFFFFFFFFFFFFFFFFFFFFFFFFFFFFFF AND SUB PUSH2 0x1A7C JUMPI PUSH1 0x40 MLOAD PUSH32 0x8C379A000000000000000000000000000000000000000000000000000000000 DUP2 MSTORE PUSH1 0x4 ADD PUSH2 0x1A73 SWAP1 PUSH2 0x3CBF JUMP JUMPDEST PUSH1 0x40 MLOAD DUP1 SWAP2 SUB SWAP1 REVERT JUMPDEST PUSH2 0x1A87 DUP4 DUP4 DUP4 PUSH2 0x20F6 JUMP JUMPDEST PUSH2 0x1A92 PUSH1 0x0 DUP3 PUSH2 0x1849 JUMP JUMPDEST PUSH1 0x1 PUSH1 0x3 PUSH1 0x0 DUP6 PUSH20 0xFFFFFFFFFFFFFFFFFFFFFFFFFFFFFFFFFFFFFFFF AND PUSH20 0xFFFFFFFFFFFFFFFFFFFFFFFFFFFFFFFFFFFFFFFF AND DUP2 MSTORE PUSH1 0x20 ADD SWAP1 DUP2 MSTORE PUSH1 0x20 ADD PUSH1 0x0 KECCAK256 PUSH1 0x0 DUP3 DUP3 SLOAD PUSH2 0x1AE2 SWAP2 SWAP1 PUSH2 0x3CDF JUMP JUMPDEST SWAP3 POP POP DUP2 SWAP1 SSTORE POP PUSH1 0x1 PUSH1 0x3 PUSH1 0x0 DUP5 PUSH20 0xFFFFFFFFFFFFFFFFFFFFFFFFFFFFFFFFFFFFFFFF AND PUSH20 0xFFFFFFFFFFFFFFFFFFFFFFFFFFFFFFFFFFFFFFFF AND DUP2 MSTORE PUSH1 0x20 ADD SWAP1 DUP2 MSTORE PUSH1 0x20 ADD PUSH1 0x0 KECCAK256 PUSH1 0x0 DUP3 DUP3 SLOAD PUSH2 0x1B39 SWAP2 SWAP1 PUSH2 0x38F2 JUMP JUMPDEST SWAP3 POP POP DUP2 SWAP1 SSTORE POP DUP2 PUSH1 0x2 PUSH1 0x0 DUP4 DUP2 MSTORE PUSH1 0x20 ADD SWAP1 DUP2 MSTORE PUSH1 0x20 ADD PUSH1 0x0 KECCAK256 PUSH1 0x0 PUSH2 0x100 EXP DUP2 SLOAD DUP2 PUSH20 0xFFFFFFFFFFFFFFFFFFFFFFFFFFFFFFFFFFFFFFFF MUL NOT AND SWAP1 DUP4 PUSH20 0xFFFFFFFFFFFFFFFFFFFFFFFFFFFFFFFFFFFFFFFF AND MUL OR SWAP1 SSTORE POP DUP1 DUP3 PUSH20 0xFFFFFFFFFFFFFFFFFFFFFFFFFFFFFFFFFFFFFFFF AND DUP5 PUSH20 0xFFFFFFFFFFFFFFFFFFFFFFFFFFFFFFFFFFFFFFFF AND PUSH32 0xDDF252AD1BE2C89B69C2B068FC378DAA952BA7F163C4A11628F55A4DF523B3EF PUSH1 0x40 MLOAD PUSH1 0x40 MLOAD DUP1 SWAP2 SUB SWAP1 LOG4 PUSH2 0x1BF8 DUP4 DUP4 DUP4 PUSH2 0x2208 JUMP JUMPDEST POP POP POP JUMP JUMPDEST PUSH1 0x0 DUP3 PUSH2 0x1C0A DUP6 DUP5 PUSH2 0x220D JUMP JUMPDEST EQ SWAP1 POP SWAP4 SWAP3 POP POP POP JUMP JUMPDEST PUSH1 0x0 PUSH1 0xA PUSH1 0x0 SWAP1 SLOAD SWAP1 PUSH2 0x100 EXP SWAP1 DIV PUSH20 0xFFFFFFFFFFFFFFFFFFFFFFFFFFFFFFFFFFFFFFFF AND SWAP1 POP DUP2 PUSH1 0xA PUSH1 0x0 PUSH2 0x100 EXP DUP2 SLOAD DUP2 PUSH20 0xFFFFFFFFFFFFFFFFFFFFFFFFFFFFFFFFFFFFFFFF MUL NOT AND SWAP1 DUP4 PUSH20 0xFFFFFFFFFFFFFFFFFFFFFFFFFFFFFFFFFFFFFFFF AND MUL OR SWAP1 SSTORE POP DUP2 PUSH20 0xFFFFFFFFFFFFFFFFFFFFFFFFFFFFFFFFFFFFFFFF AND DUP2 PUSH20 0xFFFFFFFFFFFFFFFFFFFFFFFFFFFFFFFFFFFFFFFF AND PUSH32 0x8BE0079C531659141344CD1FD0A4F28419497F9722A3DAAFE3B4186F6B6457E0 PUSH1 0x40 MLOAD PUSH1 0x40 MLOAD DUP1 SWAP2 SUB SWAP1 LOG3 POP POP JUMP JUMPDEST DUP2 PUSH20 0xFFFFFFFFFFFFFFFFFFFFFFFFFFFFFFFFFFFFFFFF AND DUP4 PUSH20 0xFFFFFFFFFFFFFFFFFFFFFFFFFFFFFFFFFFFFFFFF AND SUB PUSH2 0x1D48 JUMPI PUSH1 0x40 MLOAD PUSH32 0x8C379A000000000000000000000000000000000000000000000000000000000 DUP2 MSTORE PUSH1 0x4 ADD PUSH2 0x1D3F SWAP1 PUSH2 0x3D5F JUMP JUMPDEST PUSH1 0x40 MLOAD DUP1 SWAP2 SUB SWAP1 REVERT JUMPDEST DUP1 PUSH1 0x5 PUSH1 0x0 DUP6 PUSH20 0xFFFFFFFFFFFFFFFFFFFFFFFFFFFFFFFFFFFFFFFF AND PUSH20 0xFFFFFFFFFFFFFFFFFFFFFFFFFFFFFFFFFFFFFFFF AND DUP2 MSTORE PUSH1 0x20 ADD SWAP1 DUP2 MSTORE PUSH1 0x20 ADD PUSH1 0x0 KECCAK256 PUSH1 0x0 DUP5 PUSH20 0xFFFFFFFFFFFFFFFFFFFFFFFFFFFFFFFFFFFFFFFF AND PUSH20 0xFFFFFFFFFFFFFFFFFFFFFFFFFFFFFFFFFFFFFFFF AND DUP2 MSTORE PUSH1 0x20 ADD SWAP1 DUP2 MSTORE PUSH1 0x20 ADD PUSH1 0x0 KECCAK256 PUSH1 0x0 PUSH2 0x100 EXP DUP2 SLOAD DUP2 PUSH1 0xFF MUL NOT AND SWAP1 DUP4 ISZERO ISZERO MUL OR SWAP1 SSTORE POP DUP2 PUSH20 0xFFFFFFFFFFFFFFFFFFFFFFFFFFFFFFFFFFFFFFFF AND DUP4 PUSH20 0xFFFFFFFFFFFFFFFFFFFFFFFFFFFFFFFFFFFFFFFF AND PUSH32 0x17307EAB39AB6107E8899845AD3D59BD9653F200F220920489CA2B5937696C31 DUP4 PUSH1 0x40 MLOAD PUSH2 0x1E39 SWAP2 SWAP1 PUSH2 0x2A76 JUMP JUMPDEST PUSH1 0x40 MLOAD DUP1 SWAP2 SUB SWAP1 LOG3 POP POP POP JUMP JUMPDEST PUSH2 0x1E51 DUP5 DUP5 DUP5 PUSH2 0x1997 JUMP JUMPDEST PUSH2 0x1E5D DUP5 DUP5 DUP5 DUP5 PUSH2 0x2263 JUMP JUMPDEST PUSH2 0x1E9C JUMPI PUSH1 0x40 MLOAD PUSH32 0x8C379A000000000000000000000000000000000000000000000000000000000 DUP2 MSTORE PUSH1 0x4 ADD PUSH2 0x1E93 SWAP1 PUSH2 0x3DF1 JUMP JUMPDEST PUSH1 0x40 MLOAD DUP1 SWAP2 SUB SWAP1 REVERT JUMPDEST POP POP POP POP JUMP JUMPDEST PUSH2 0x1EBC DUP3 DUP3 PUSH1 0x40 MLOAD DUP1 PUSH1 0x20 ADD PUSH1 0x40 MSTORE DUP1 PUSH1 0x0 DUP2 MSTORE POP PUSH2 0x23EA JUMP JUMPDEST POP POP JUMP JUMPDEST PUSH1 0x0 DUP1 PUSH20 0xFFFFFFFFFFFFFFFFFFFFFFFFFFFFFFFFFFFFFFFF AND PUSH1 0x2 PUSH1 0x0 DUP5 DUP2 MSTORE PUSH1 0x20 ADD SWAP1 DUP2 MSTORE PUSH1 0x20 ADD PUSH1 0x0 KECCAK256 PUSH1 0x0 SWAP1 SLOAD SWAP1 PUSH2 0x100 EXP SWAP1 DIV PUSH20 0xFFFFFFFFFFFFFFFFFFFFFFFFFFFFFFFFFFFFFFFF AND PUSH20 0xFFFFFFFFFFFFFFFFFFFFFFFFFFFFFFFFFFFFFFFF AND EQ ISZERO SWAP1 POP SWAP2 SWAP1 POP JUMP JUMPDEST PUSH1 0x60 PUSH1 0x0 DUP3 SUB PUSH2 0x1F73 JUMPI PUSH1 0x40 MLOAD DUP1 PUSH1 0x40 ADD PUSH1 0x40 MSTORE DUP1 PUSH1 0x1 DUP2 MSTORE PUSH1 0x20 ADD PUSH32 0x3000000000000000000000000000000000000000000000000000000000000000 DUP2 MSTORE POP SWAP1 POP PUSH2 0x2087 JUMP JUMPDEST PUSH1 0x0 DUP3 SWAP1 POP PUSH1 0x0 JUMPDEST PUSH1 0x0 DUP3 EQ PUSH2 0x1FA5 JUMPI DUP1 DUP1 PUSH2 0x1F8E SWAP1 PUSH2 0x3577 JUMP JUMPDEST SWAP2 POP POP PUSH1 0xA DUP3 PUSH2 0x1F9E SWAP2 SWAP1 PUSH2 0x3E40 JUMP JUMPDEST SWAP2 POP PUSH2 0x1F7B JUMP JUMPDEST PUSH1 0x0 DUP2 PUSH8 0xFFFFFFFFFFFFFFFF DUP2 GT ISZERO PUSH2 0x1FC1 JUMPI PUSH2 0x1FC0 PUSH2 0x2F87 JUMP JUMPDEST JUMPDEST PUSH1 0x40 MLOAD SWAP1 DUP1 DUP3 MSTORE DUP1 PUSH1 0x1F ADD PUSH1 0x1F NOT AND PUSH1 0x20 ADD DUP3 ADD PUSH1 0x40 MSTORE DUP1 ISZERO PUSH2 0x1FF3 JUMPI DUP2 PUSH1 0x20 ADD PUSH1 0x1 DUP3 MUL DUP1 CALLDATASIZE DUP4 CALLDATACOPY DUP1 DUP3 ADD SWAP2 POP POP SWAP1 POP JUMPDEST POP SWAP1 POP JUMPDEST PUSH1 0x0 DUP6 EQ PUSH2 0x2080 JUMPI PUSH1 0x1 DUP3 PUSH2 0x200C SWAP2 SWAP1 PUSH2 0x3CDF JUMP JUMPDEST SWAP2 POP PUSH1 0xA DUP6 PUSH2 0x201B SWAP2 SWAP1 PUSH2 0x3E71 JUMP JUMPDEST PUSH1 0x30 PUSH2 0x2027 SWAP2 SWAP1 PUSH2 0x38F2 JUMP JUMPDEST PUSH1 0xF8 SHL DUP2 DUP4 DUP2 MLOAD DUP2 LT PUSH2 0x203D JUMPI PUSH2 0x203C PUSH2 0x3519 JUMP JUMPDEST JUMPDEST PUSH1 0x20 ADD ADD SWAP1 PUSH31 0xFFFFFFFFFFFFFFFFFFFFFFFFFFFFFFFFFFFFFFFFFFFFFFFFFFFFFFFFFFFFFF NOT AND SWAP1 DUP2 PUSH1 0x0 BYTE SWAP1 MSTORE8 POP PUSH1 0xA DUP6 PUSH2 0x2079 SWAP2 SWAP1 PUSH2 0x3E40 JUMP JUMPDEST SWAP5 POP PUSH2 0x1FF7 JUMP JUMPDEST DUP1 SWAP4 POP POP POP POP JUMPDEST SWAP2 SWAP1 POP JUMP JUMPDEST PUSH1 0x0 PUSH32 0x1FFC9A700000000000000000000000000000000000000000000000000000000 PUSH28 0xFFFFFFFFFFFFFFFFFFFFFFFFFFFFFFFFFFFFFFFFFFFFFFFFFFFFFFFF NOT AND DUP3 PUSH28 0xFFFFFFFFFFFFFFFFFFFFFFFFFFFFFFFFFFFFFFFFFFFFFFFFFFFFFFFF NOT AND EQ SWAP1 POP SWAP2 SWAP1 POP JUMP JUMPDEST PUSH2 0x2101 DUP4 DUP4 DUP4 PUSH2 0x2445 JUMP JUMPDEST PUSH1 0x0 PUSH20 0xFFFFFFFFFFFFFFFFFFFFFFFFFFFFFFFFFFFFFFFF AND DUP4 PUSH20 0xFFFFFFFFFFFFFFFFFFFFFFFFFFFFFFFFFFFFFFFF AND SUB PUSH2 0x2143 JUMPI PUSH2 0x213E DUP2 PUSH2 0x244A JUMP JUMPDEST PUSH2 0x2182 JUMP JUMPDEST DUP2 PUSH20 0xFFFFFFFFFFFFFFFFFFFFFFFFFFFFFFFFFFFFFFFF AND DUP4 PUSH20 0xFFFFFFFFFFFFFFFFFFFFFFFFFFFFFFFFFFFFFFFF AND EQ PUSH2 0x2181 JUMPI PUSH2 0x2180 DUP4 DUP3 PUSH2 0x2493 JUMP JUMPDEST JUMPDEST JUMPDEST PUSH1 0x0 PUSH20 0xFFFFFFFFFFFFFFFFFFFFFFFFFFFFFFFFFFFFFFFF AND DUP3 PUSH20 0xFFFFFFFFFFFFFFFFFFFFFFFFFFFFFFFFFFFFFFFF AND SUB PUSH2 0x21C4 JUMPI PUSH2 0x21BF DUP2 PUSH2 0x2600 JUMP JUMPDEST PUSH2 0x2203 JUMP JUMPDEST DUP3 PUSH20 0xFFFFFFFFFFFFFFFFFFFFFFFFFFFFFFFFFFFFFFFF AND DUP3 PUSH20 0xFFFFFFFFFFFFFFFFFFFFFFFFFFFFFFFFFFFFFFFF AND EQ PUSH2 0x2202 JUMPI PUSH2 0x2201 DUP3 DUP3 PUSH2 0x26D1 JUMP JUMPDEST JUMPDEST JUMPDEST POP POP POP JUMP JUMPDEST POP POP POP JUMP JUMPDEST PUSH1 0x0 DUP1 DUP3 SWAP1 POP PUSH1 0x0 JUMPDEST DUP5 MLOAD DUP2 LT ISZERO PUSH2 0x2258 JUMPI PUSH2 0x2243 DUP3 DUP7 DUP4 DUP2 MLOAD DUP2 LT PUSH2 0x2236 JUMPI PUSH2 0x2235 PUSH2 0x3519 JUMP JUMPDEST JUMPDEST PUSH1 0x20 MUL PUSH1 0x20 ADD ADD MLOAD PUSH2 0x2750 JUMP JUMPDEST SWAP2 POP DUP1 DUP1 PUSH2 0x2250 SWAP1 PUSH2 0x3577 JUMP JUMPDEST SWAP2 POP POP PUSH2 0x2216 JUMP JUMPDEST POP DUP1 SWAP2 POP POP SWAP3 SWAP2 POP POP JUMP JUMPDEST PUSH1 0x0 PUSH2 0x2284 DUP5 PUSH20 0xFFFFFFFFFFFFFFFFFFFFFFFFFFFFFFFFFFFFFFFF AND PUSH2 0x277B JUMP JUMPDEST ISZERO PUSH2 0x23DD JUMPI DUP4 PUSH20 0xFFFFFFFFFFFFFFFFFFFFFFFFFFFFFFFFFFFFFFFF AND PUSH4 0x150B7A02 PUSH2 0x22AD PUSH2 0x1841 JUMP JUMPDEST DUP8 DUP7 DUP7 PUSH1 0x40 MLOAD DUP6 PUSH4 0xFFFFFFFF AND PUSH1 0xE0 SHL DUP2 MSTORE PUSH1 0x4 ADD PUSH2 0x22CF SWAP5 SWAP4 SWAP3 SWAP2 SWAP1 PUSH2 0x3EF7 JUMP JUMPDEST PUSH1 0x20 PUSH1 0x40 MLOAD DUP1 DUP4 SUB DUP2 PUSH1 0x0 DUP8 GAS CALL SWAP3 POP POP POP DUP1 ISZERO PUSH2 0x230B JUMPI POP PUSH1 0x40 MLOAD RETURNDATASIZE PUSH1 0x1F NOT PUSH1 0x1F DUP3 ADD AND DUP3 ADD DUP1 PUSH1 0x40 MSTORE POP DUP2 ADD SWAP1 PUSH2 0x2308 SWAP2 SWAP1 PUSH2 0x3F58 JUMP JUMPDEST PUSH1 0x1 JUMPDEST PUSH2 0x238D JUMPI RETURNDATASIZE DUP1 PUSH1 0x0 DUP2 EQ PUSH2 0x233B JUMPI PUSH1 0x40 MLOAD SWAP2 POP PUSH1 0x1F NOT PUSH1 0x3F RETURNDATASIZE ADD AND DUP3 ADD PUSH1 0x40 MSTORE RETURNDATASIZE DUP3 MSTORE RETURNDATASIZE PUSH1 0x0 PUSH1 0x20 DUP5 ADD RETURNDATACOPY PUSH2 0x2340 JUMP JUMPDEST PUSH1 0x60 SWAP2 POP JUMPDEST POP PUSH1 0x0 DUP2 MLOAD SUB PUSH2 0x2385 JUMPI PUSH1 0x40 MLOAD PUSH32 0x8C379A000000000000000000000000000000000000000000000000000000000 DUP2 MSTORE PUSH1 0x4 ADD PUSH2 0x237C SWAP1 PUSH2 0x3DF1 JUMP JUMPDEST PUSH1 0x40 MLOAD DUP1 SWAP2 SUB SWAP1 REVERT JUMPDEST DUP1 MLOAD DUP2 PUSH1 0x20 ADD REVERT JUMPDEST PUSH4 0x150B7A02 PUSH1 0xE0 SHL PUSH28 0xFFFFFFFFFFFFFFFFFFFFFFFFFFFFFFFFFFFFFFFFFFFFFFFFFFFFFFFF NOT AND DUP2 PUSH28 0xFFFFFFFFFFFFFFFFFFFFFFFFFFFFFFFFFFFFFFFFFFFFFFFFFFFFFFFF NOT AND EQ SWAP2 POP POP PUSH2 0x23E2 JUMP JUMPDEST PUSH1 0x1 SWAP1 POP JUMPDEST SWAP5 SWAP4 POP POP POP POP JUMP JUMPDEST PUSH2 0x23F4 DUP4 DUP4 PUSH2 0x279E JUMP JUMPDEST PUSH2 0x2401 PUSH1 0x0 DUP5 DUP5 DUP5 PUSH2 0x2263 JUMP JUMPDEST PUSH2 0x2440 JUMPI PUSH1 0x40 MLOAD PUSH32 0x8C379A000000000000000000000000000000000000000000000000000000000 DUP2 MSTORE PUSH1 0x4 ADD PUSH2 0x2437 SWAP1 PUSH2 0x3DF1 JUMP JUMPDEST PUSH1 0x40 MLOAD DUP1 SWAP2 SUB SWAP1 REVERT JUMPDEST POP POP POP JUMP JUMPDEST POP POP POP JUMP JUMPDEST PUSH1 0x8 DUP1 SLOAD SWAP1 POP PUSH1 0x9 PUSH1 0x0 DUP4 DUP2 MSTORE PUSH1 0x20 ADD SWAP1 DUP2 MSTORE PUSH1 0x20 ADD PUSH1 0x0 KECCAK256 DUP2 SWAP1 SSTORE POP PUSH1 0x8 DUP2 SWAP1 DUP1 PUSH1 0x1 DUP2 SLOAD ADD DUP1 DUP3 SSTORE DUP1 SWAP2 POP POP PUSH1 0x1 SWAP1 SUB SWAP1 PUSH1 0x0 MSTORE PUSH1 0x20 PUSH1 0x0 KECCAK256 ADD PUSH1 0x0 SWAP1 SWAP2 SWAP1 SWAP2 SWAP1 SWAP2 POP SSTORE POP JUMP JUMPDEST PUSH1 0x0 PUSH1 0x1 PUSH2 0x24A0 DUP5 PUSH2 0xFDF JUMP JUMPDEST PUSH2 0x24AA SWAP2 SWAP1 PUSH2 0x3CDF JUMP JUMPDEST SWAP1 POP PUSH1 0x0 PUSH1 0x7 PUSH1 0x0 DUP5 DUP2 MSTORE PUSH1 0x20 ADD SWAP1 DUP2 MSTORE PUSH1 0x20 ADD PUSH1 0x0 KECCAK256 SLOAD SWAP1 POP DUP2 DUP2 EQ PUSH2 0x258F JUMPI PUSH1 0x0 PUSH1 0x6 PUSH1 0x0 DUP7 PUSH20 0xFFFFFFFFFFFFFFFFFFFFFFFFFFFFFFFFFFFFFFFF AND PUSH20 0xFFFFFFFFFFFFFFFFFFFFFFFFFFFFFFFFFFFFFFFF AND DUP2 MSTORE PUSH1 0x20 ADD SWAP1 DUP2 MSTORE PUSH1 0x20 ADD PUSH1 0x0 KECCAK256 PUSH1 0x0 DUP5 DUP2 MSTORE PUSH1 0x20 ADD SWAP1 DUP2 MSTORE PUSH1 0x20 ADD PUSH1 0x0 KECCAK256 SLOAD SWAP1 POP DUP1 PUSH1 0x6 PUSH1 0x0 DUP8 PUSH20 0xFFFFFFFFFFFFFFFFFFFFFFFFFFFFFFFFFFFFFFFF AND PUSH20 0xFFFFFFFFFFFFFFFFFFFFFFFFFFFFFFFFFFFFFFFF AND DUP2 MSTORE PUSH1 0x20 ADD SWAP1 DUP2 MSTORE PUSH1 0x20 ADD PUSH1 0x0 KECCAK256 PUSH1 0x0 DUP5 DUP2 MSTORE PUSH1 0x20 ADD SWAP1 DUP2 MSTORE PUSH1 0x20 ADD PUSH1 0x0 KECCAK256 DUP2 SWAP1 SSTORE POP DUP2 PUSH1 0x7 PUSH1 0x0 DUP4 DUP2 MSTORE PUSH1 0x20 ADD SWAP1 DUP2 MSTORE PUSH1 0x20 ADD PUSH1 0x0 KECCAK256 DUP2 SWAP1 SSTORE POP POP JUMPDEST PUSH1 0x7 PUSH1 0x0 DUP5 DUP2 MSTORE PUSH1 0x20 ADD SWAP1 DUP2 MSTORE PUSH1 0x20 ADD PUSH1 0x0 KECCAK256 PUSH1 0x0 SWAP1 SSTORE PUSH1 0x6 PUSH1 0x0 DUP6 PUSH20 0xFFFFFFFFFFFFFFFFFFFFFFFFFFFFFFFFFFFFFFFF AND PUSH20 0xFFFFFFFFFFFFFFFFFFFFFFFFFFFFFFFFFFFFFFFF AND DUP2 MSTORE PUSH1 0x20 ADD SWAP1 DUP2 MSTORE PUSH1 0x20 ADD PUSH1 0x0 KECCAK256 PUSH1 0x0 DUP4 DUP2 MSTORE PUSH1 0x20 ADD SWAP1 DUP2 MSTORE PUSH1 0x20 ADD PUSH1 0x0 KECCAK256 PUSH1 0x0 SWAP1 SSTORE POP POP POP POP JUMP JUMPDEST PUSH1 0x0 PUSH1 0x1 PUSH1 0x8 DUP1 SLOAD SWAP1 POP PUSH2 0x2614 SWAP2 SWAP1 PUSH2 0x3CDF JUMP JUMPDEST SWAP1 POP PUSH1 0x0 PUSH1 0x9 PUSH1 0x0 DUP5 DUP2 MSTORE PUSH1 0x20 ADD SWAP1 DUP2 MSTORE PUSH1 0x20 ADD PUSH1 0x0 KECCAK256 SLOAD SWAP1 POP PUSH1 0x0 PUSH1 0x8 DUP4 DUP2 SLOAD DUP2 LT PUSH2 0x2644 JUMPI PUSH2 0x2643 PUSH2 0x3519 JUMP JUMPDEST JUMPDEST SWAP1 PUSH1 0x0 MSTORE PUSH1 0x20 PUSH1 0x0 KECCAK256 ADD SLOAD SWAP1 POP DUP1 PUSH1 0x8 DUP4 DUP2 SLOAD DUP2 LT PUSH2 0x2666 JUMPI PUSH2 0x2665 PUSH2 0x3519 JUMP JUMPDEST JUMPDEST SWAP1 PUSH1 0x0 MSTORE PUSH1 0x20 PUSH1 0x0 KECCAK256 ADD DUP2 SWAP1 SSTORE POP DUP2 PUSH1 0x9 PUSH1 0x0 DUP4 DUP2 MSTORE PUSH1 0x20 ADD SWAP1 DUP2 MSTORE PUSH1 0x20 ADD PUSH1 0x0 KECCAK256 DUP2 SWAP1 SSTORE POP PUSH1 0x9 PUSH1 0x0 DUP6 DUP2 MSTORE PUSH1 0x20 ADD SWAP1 DUP2 MSTORE PUSH1 0x20 ADD PUSH1 0x0 KECCAK256 PUSH1 0x0 SWAP1 SSTORE PUSH1 0x8 DUP1 SLOAD DUP1 PUSH2 0x26B5 JUMPI PUSH2 0x26B4 PUSH2 0x3F85 JUMP JUMPDEST JUMPDEST PUSH1 0x1 SWAP1 SUB DUP2 DUP2 SWAP1 PUSH1 0x0 MSTORE PUSH1 0x20 PUSH1 0x0 KECCAK256 ADD PUSH1 0x0 SWAP1 SSTORE SWAP1 SSTORE POP POP POP POP JUMP JUMPDEST PUSH1 0x0 PUSH2 0x26DC DUP4 PUSH2 0xFDF JUMP JUMPDEST SWAP1 POP DUP2 PUSH1 0x6 PUSH1 0x0 DUP6 PUSH20 0xFFFFFFFFFFFFFFFFFFFFFFFFFFFFFFFFFFFFFFFF AND PUSH20 0xFFFFFFFFFFFFFFFFFFFFFFFFFFFFFFFFFFFFFFFF AND DUP2 MSTORE PUSH1 0x20 ADD SWAP1 DUP2 MSTORE PUSH1 0x20 ADD PUSH1 0x0 KECCAK256 PUSH1 0x0 DUP4 DUP2 MSTORE PUSH1 0x20 ADD SWAP1 DUP2 MSTORE PUSH1 0x20 ADD PUSH1 0x0 KECCAK256 DUP2 SWAP1 SSTORE POP DUP1 PUSH1 0x7 PUSH1 0x0 DUP5 DUP2 MSTORE PUSH1 0x20 ADD SWAP1 DUP2 MSTORE PUSH1 0x20 ADD PUSH1 0x0 KECCAK256 DUP2 SWAP1 SSTORE POP POP POP POP JUMP JUMPDEST PUSH1 0x0 DUP2 DUP4 LT PUSH2 0x2768 JUMPI PUSH2 0x2763 DUP3 DUP5 PUSH2 0x2977 JUMP JUMPDEST PUSH2 0x2773 JUMP JUMPDEST PUSH2 0x2772 DUP4 DUP4 PUSH2 0x2977 JUMP JUMPDEST JUMPDEST SWAP1 POP SWAP3 SWAP2 POP POP JUMP JUMPDEST PUSH1 0x0 DUP1 DUP3 PUSH20 0xFFFFFFFFFFFFFFFFFFFFFFFFFFFFFFFFFFFFFFFF AND EXTCODESIZE GT SWAP1 POP SWAP2 SWAP1 POP JUMP JUMPDEST PUSH1 0x0 PUSH20 0xFFFFFFFFFFFFFFFFFFFFFFFFFFFFFFFFFFFFFFFF AND DUP3 PUSH20 0xFFFFFFFFFFFFFFFFFFFFFFFFFFFFFFFFFFFFFFFF AND SUB PUSH2 0x280D JUMPI PUSH1 0x40 MLOAD PUSH32 0x8C379A000000000000000000000000000000000000000000000000000000000 DUP2 MSTORE PUSH1 0x4 ADD PUSH2 0x2804 SWAP1 PUSH2 0x4000 JUMP JUMPDEST PUSH1 0x40 MLOAD DUP1 SWAP2 SUB SWAP1 REVERT JUMPDEST PUSH2 0x2816 DUP2 PUSH2 0x1EC0 JUMP JUMPDEST ISZERO PUSH2 0x2856 JUMPI PUSH1 0x40 MLOAD PUSH32 0x8C379A000000000000000000000000000000000000000000000000000000000 DUP2 MSTORE PUSH1 0x4 ADD PUSH2 0x284D SWAP1 PUSH2 0x406C JUMP JUMPDEST PUSH1 0x40 MLOAD DUP1 SWAP2 SUB SWAP1 REVERT JUMPDEST PUSH2 0x2862 PUSH1 0x0 DUP4 DUP4 PUSH2 0x20F6 JUMP JUMPDEST PUSH1 0x1 PUSH1 0x3 PUSH1 0x0 DUP5 PUSH20 0xFFFFFFFFFFFFFFFFFFFFFFFFFFFFFFFFFFFFFFFF AND PUSH20 0xFFFFFFFFFFFFFFFFFFFFFFFFFFFFFFFFFFFFFFFF AND DUP2 MSTORE PUSH1 0x20 ADD SWAP1 DUP2 MSTORE PUSH1 0x20 ADD PUSH1 0x0 KECCAK256 PUSH1 0x0 DUP3 DUP3 SLOAD PUSH2 0x28B2 SWAP2 SWAP1 PUSH2 0x38F2 JUMP JUMPDEST SWAP3 POP POP DUP2 SWAP1 SSTORE POP DUP2 PUSH1 0x2 PUSH1 0x0 DUP4 DUP2 MSTORE PUSH1 0x20 ADD SWAP1 DUP2 MSTORE PUSH1 0x20 ADD PUSH1 0x0 KECCAK256 PUSH1 0x0 PUSH2 0x100 EXP DUP2 SLOAD DUP2 PUSH20 0xFFFFFFFFFFFFFFFFFFFFFFFFFFFFFFFFFFFFFFFF MUL NOT AND SWAP1 DUP4 PUSH20 0xFFFFFFFFFFFFFFFFFFFFFFFFFFFFFFFFFFFFFFFF AND MUL OR SWAP1 SSTORE POP DUP1 DUP3 PUSH20 0xFFFFFFFFFFFFFFFFFFFFFFFFFFFFFFFFFFFFFFFF AND PUSH1 0x0 PUSH20 0xFFFFFFFFFFFFFFFFFFFFFFFFFFFFFFFFFFFFFFFF AND PUSH32 0xDDF252AD1BE2C89B69C2B068FC378DAA952BA7F163C4A11628F55A4DF523B3EF PUSH1 0x40 MLOAD PUSH1 0x40 MLOAD DUP1 SWAP2 SUB SWAP1 LOG4 PUSH2 0x2973 PUSH1 0x0 DUP4 DUP4 PUSH2 0x2208 JUMP JUMPDEST POP POP JUMP JUMPDEST PUSH1 0x0 DUP3 PUSH1 0x0 MSTORE DUP2 PUSH1 0x20 MSTORE PUSH1 0x40 PUSH1 0x0 KECCAK256 SWAP1 POP SWAP3 SWAP2 POP POP JUMP JUMPDEST PUSH1 0x0 DUP2 SWAP1 POP SWAP2 SWAP1 POP JUMP JUMPDEST PUSH2 0x29A1 DUP2 PUSH2 0x298E JUMP JUMPDEST DUP3 MSTORE POP POP JUMP JUMPDEST PUSH1 0x0 PUSH1 0x20 DUP3 ADD SWAP1 POP PUSH2 0x29BC PUSH1 0x0 DUP4 ADD DUP5 PUSH2 0x2998 JUMP JUMPDEST SWAP3 SWAP2 POP POP JUMP JUMPDEST PUSH1 0x0 PUSH1 0x40 MLOAD SWAP1 POP SWAP1 JUMP JUMPDEST PUSH1 0x0 DUP1 REVERT JUMPDEST PUSH1 0x0 DUP1 REVERT JUMPDEST PUSH1 0x0 PUSH32 0xFFFFFFFF00000000000000000000000000000000000000000000000000000000 DUP3 AND SWAP1 POP SWAP2 SWAP1 POP JUMP JUMPDEST PUSH2 0x2A0B DUP2 PUSH2 0x29D6 JUMP JUMPDEST DUP2 EQ PUSH2 0x2A16 JUMPI PUSH1 0x0 DUP1 REVERT JUMPDEST POP JUMP JUMPDEST PUSH1 0x0 DUP2 CALLDATALOAD SWAP1 POP PUSH2 0x2A28 DUP2 PUSH2 0x2A02 JUMP JUMPDEST SWAP3 SWAP2 POP POP JUMP JUMPDEST PUSH1 0x0 PUSH1 0x20 DUP3 DUP5 SUB SLT ISZERO PUSH2 0x2A44 JUMPI PUSH2 0x2A43 PUSH2 0x29CC JUMP JUMPDEST JUMPDEST PUSH1 0x0 PUSH2 0x2A52 DUP5 DUP3 DUP6 ADD PUSH2 0x2A19 JUMP JUMPDEST SWAP2 POP POP SWAP3 SWAP2 POP POP JUMP JUMPDEST PUSH1 0x0 DUP2 ISZERO ISZERO SWAP1 POP SWAP2 SWAP1 POP JUMP JUMPDEST PUSH2 0x2A70 DUP2 PUSH2 0x2A5B JUMP JUMPDEST DUP3 MSTORE POP POP JUMP JUMPDEST PUSH1 0x0 PUSH1 0x20 DUP3 ADD SWAP1 POP PUSH2 0x2A8B PUSH1 0x0 DUP4 ADD DUP5 PUSH2 0x2A67 JUMP JUMPDEST SWAP3 SWAP2 POP POP JUMP JUMPDEST PUSH1 0x0 DUP2 MLOAD SWAP1 POP SWAP2 SWAP1 POP JUMP JUMPDEST PUSH1 0x0 DUP3 DUP3 MSTORE PUSH1 0x20 DUP3 ADD SWAP1 POP SWAP3 SWAP2 POP POP JUMP JUMPDEST PUSH1 0x0 JUMPDEST DUP4 DUP2 LT ISZERO PUSH2 0x2ACB JUMPI DUP1 DUP3 ADD MLOAD DUP2 DUP5 ADD MSTORE PUSH1 0x20 DUP2 ADD SWAP1 POP PUSH2 0x2AB0 JUMP JUMPDEST PUSH1 0x0 DUP5 DUP5 ADD MSTORE POP POP POP POP JUMP JUMPDEST PUSH1 0x0 PUSH1 0x1F NOT PUSH1 0x1F DUP4 ADD AND SWAP1 POP SWAP2 SWAP1 POP JUMP JUMPDEST PUSH1 0x0 PUSH2 0x2AF3 DUP3 PUSH2 0x2A91 JUMP JUMPDEST PUSH2 0x2AFD DUP2 DUP6 PUSH2 0x2A9C JUMP JUMPDEST SWAP4 POP PUSH2 0x2B0D DUP2 DUP6 PUSH1 0x20 DUP7 ADD PUSH2 0x2AAD JUMP JUMPDEST PUSH2 0x2B16 DUP2 PUSH2 0x2AD7 JUMP JUMPDEST DUP5 ADD SWAP2 POP POP SWAP3 SWAP2 POP POP JUMP JUMPDEST PUSH1 0x0 PUSH1 0x20 DUP3 ADD SWAP1 POP DUP2 DUP2 SUB PUSH1 0x0 DUP4 ADD MSTORE PUSH2 0x2B3B DUP2 DUP5 PUSH2 0x2AE8 JUMP JUMPDEST SWAP1 POP SWAP3 SWAP2 POP POP JUMP JUMPDEST PUSH2 0x2B4C DUP2 PUSH2 0x298E JUMP JUMPDEST DUP2 EQ PUSH2 0x2B57 JUMPI PUSH1 0x0 DUP1 REVERT JUMPDEST POP JUMP JUMPDEST PUSH1 0x0 DUP2 CALLDATALOAD SWAP1 POP PUSH2 0x2B69 DUP2 PUSH2 0x2B43 JUMP JUMPDEST SWAP3 SWAP2 POP POP JUMP JUMPDEST PUSH1 0x0 PUSH1 0x20 DUP3 DUP5 SUB SLT ISZERO PUSH2 0x2B85 JUMPI PUSH2 0x2B84 PUSH2 0x29CC JUMP JUMPDEST JUMPDEST PUSH1 0x0 PUSH2 0x2B93 DUP5 DUP3 DUP6 ADD PUSH2 0x2B5A JUMP JUMPDEST SWAP2 POP POP SWAP3 SWAP2 POP POP JUMP JUMPDEST PUSH1 0x0 PUSH20 0xFFFFFFFFFFFFFFFFFFFFFFFFFFFFFFFFFFFFFFFF DUP3 AND SWAP1 POP SWAP2 SWAP1 POP JUMP JUMPDEST PUSH1 0x0 PUSH2 0x2BC7 DUP3 PUSH2 0x2B9C JUMP JUMPDEST SWAP1 POP SWAP2 SWAP1 POP JUMP JUMPDEST PUSH2 0x2BD7 DUP2 PUSH2 0x2BBC JUMP JUMPDEST DUP3 MSTORE POP POP JUMP JUMPDEST PUSH1 0x0 PUSH1 0x20 DUP3 ADD SWAP1 POP PUSH2 0x2BF2 PUSH1 0x0 DUP4 ADD DUP5 PUSH2 0x2BCE JUMP JUMPDEST SWAP3 SWAP2 POP POP JUMP JUMPDEST PUSH2 0x2C01 DUP2 PUSH2 0x2BBC JUMP JUMPDEST DUP2 EQ PUSH2 0x2C0C JUMPI PUSH1 0x0 DUP1 REVERT JUMPDEST POP JUMP JUMPDEST PUSH1 0x0 DUP2 CALLDATALOAD SWAP1 POP PUSH2 0x2C1E DUP2 PUSH2 0x2BF8 JUMP JUMPDEST SWAP3 SWAP2 POP POP JUMP JUMPDEST PUSH1 0x0 DUP1 PUSH1 0x40 DUP4 DUP6 SUB SLT ISZERO PUSH2 0x2C3B JUMPI PUSH2 0x2C3A PUSH2 0x29CC JUMP JUMPDEST JUMPDEST PUSH1 0x0 PUSH2 0x2C49 DUP6 DUP3 DUP7 ADD PUSH2 0x2C0F JUMP JUMPDEST SWAP3 POP POP PUSH1 0x20 PUSH2 0x2C5A DUP6 DUP3 DUP7 ADD PUSH2 0x2B5A JUMP JUMPDEST SWAP2 POP POP SWAP3 POP SWAP3 SWAP1 POP JUMP JUMPDEST PUSH1 0x0 DUP1 PUSH1 0x0 PUSH1 0x60 DUP5 DUP7 SUB SLT ISZERO PUSH2 0x2C7D JUMPI PUSH2 0x2C7C PUSH2 0x29CC JUMP JUMPDEST JUMPDEST PUSH1 0x0 PUSH2 0x2C8B DUP7 DUP3 DUP8 ADD PUSH2 0x2C0F JUMP JUMPDEST SWAP4 POP POP PUSH1 0x20 PUSH2 0x2C9C DUP7 DUP3 DUP8 ADD PUSH2 0x2C0F JUMP JUMPDEST SWAP3 POP POP PUSH1 0x40 PUSH2 0x2CAD DUP7 DUP3 DUP8 ADD PUSH2 0x2B5A JUMP JUMPDEST SWAP2 POP POP SWAP3 POP SWAP3 POP SWAP3 JUMP JUMPDEST PUSH1 0x0 DUP2 SWAP1 POP SWAP2 SWAP1 POP JUMP JUMPDEST PUSH2 0x2CCA DUP2 PUSH2 0x2CB7 JUMP JUMPDEST DUP3 MSTORE POP POP JUMP JUMPDEST PUSH1 0x0 PUSH1 0x20 DUP3 ADD SWAP1 POP PUSH2 0x2CE5 PUSH1 0x0 DUP4 ADD DUP5 PUSH2 0x2CC1 JUMP JUMPDEST SWAP3 SWAP2 POP POP JUMP JUMPDEST PUSH1 0x0 PUSH1 0x20 DUP3 DUP5 SUB SLT ISZERO PUSH2 0x2D01 JUMPI PUSH2 0x2D00 PUSH2 0x29CC JUMP JUMPDEST JUMPDEST PUSH1 0x0 PUSH2 0x2D0F DUP5 DUP3 DUP6 ADD PUSH2 0x2C0F JUMP JUMPDEST SWAP2 POP POP SWAP3 SWAP2 POP POP JUMP JUMPDEST PUSH1 0x0 DUP2 MLOAD SWAP1 POP SWAP2 SWAP1 POP JUMP JUMPDEST PUSH1 0x0 DUP3 DUP3 MSTORE PUSH1 0x20 DUP3 ADD SWAP1 POP SWAP3 SWAP2 POP POP JUMP JUMPDEST PUSH1 0x0 DUP2 SWAP1 POP PUSH1 0x20 DUP3 ADD SWAP1 POP SWAP2 SWAP1 POP JUMP JUMPDEST PUSH2 0x2D4D DUP2 PUSH2 0x298E JUMP JUMPDEST DUP3 MSTORE POP POP JUMP JUMPDEST PUSH1 0x0 PUSH2 0x2D5F DUP4 DUP4 PUSH2 0x2D44 JUMP JUMPDEST PUSH1 0x20 DUP4 ADD SWAP1 POP SWAP3 SWAP2 POP POP JUMP JUMPDEST PUSH1 0x0 PUSH1 0x20 DUP3 ADD SWAP1 POP SWAP2 SWAP1 POP JUMP JUMPDEST PUSH1 0x0 PUSH2 0x2D83 DUP3 PUSH2 0x2D18 JUMP JUMPDEST PUSH2 0x2D8D DUP2 DUP6 PUSH2 0x2D23 JUMP JUMPDEST SWAP4 POP PUSH2 0x2D98 DUP4 PUSH2 0x2D34 JUMP JUMPDEST DUP1 PUSH1 0x0 JUMPDEST DUP4 DUP2 LT ISZERO PUSH2 0x2DC9 JUMPI DUP2 MLOAD PUSH2 0x2DB0 DUP9 DUP3 PUSH2 0x2D53 JUMP JUMPDEST SWAP8 POP PUSH2 0x2DBB DUP4 PUSH2 0x2D6B JUMP JUMPDEST SWAP3 POP POP PUSH1 0x1 DUP2 ADD SWAP1 POP PUSH2 0x2D9C JUMP JUMPDEST POP DUP6 SWAP4 POP POP POP POP SWAP3 SWAP2 POP POP JUMP JUMPDEST PUSH1 0x0 PUSH1 0x20 DUP3 ADD SWAP1 POP DUP2 DUP2 SUB PUSH1 0x0 DUP4 ADD MSTORE PUSH2 0x2DF0 DUP2 DUP5 PUSH2 0x2D78 JUMP JUMPDEST SWAP1 POP SWAP3 SWAP2 POP POP JUMP JUMPDEST PUSH1 0x0 DUP1 REVERT JUMPDEST PUSH1 0x0 DUP1 REVERT JUMPDEST PUSH1 0x0 DUP1 REVERT JUMPDEST PUSH1 0x0 DUP1 DUP4 PUSH1 0x1F DUP5 ADD SLT PUSH2 0x2E1D JUMPI PUSH2 0x2E1C PUSH2 0x2DF8 JUMP JUMPDEST JUMPDEST DUP3 CALLDATALOAD SWAP1 POP PUSH8 0xFFFFFFFFFFFFFFFF DUP2 GT ISZERO PUSH2 0x2E3A JUMPI PUSH2 0x2E39 PUSH2 0x2DFD JUMP JUMPDEST JUMPDEST PUSH1 0x20 DUP4 ADD SWAP2 POP DUP4 PUSH1 0x20 DUP3 MUL DUP4 ADD GT ISZERO PUSH2 0x2E56 JUMPI PUSH2 0x2E55 PUSH2 0x2E02 JUMP JUMPDEST JUMPDEST SWAP3 POP SWAP3 SWAP1 POP JUMP JUMPDEST PUSH1 0x0 DUP1 PUSH1 0x0 PUSH1 0x40 DUP5 DUP7 SUB SLT ISZERO PUSH2 0x2E76 JUMPI PUSH2 0x2E75 PUSH2 0x29CC JUMP JUMPDEST JUMPDEST PUSH1 0x0 PUSH2 0x2E84 DUP7 DUP3 DUP8 ADD PUSH2 0x2C0F JUMP JUMPDEST SWAP4 POP POP PUSH1 0x20 DUP5 ADD CALLDATALOAD PUSH8 0xFFFFFFFFFFFFFFFF DUP2 GT ISZERO PUSH2 0x2EA5 JUMPI PUSH2 0x2EA4 PUSH2 0x29D1 JUMP JUMPDEST JUMPDEST PUSH2 0x2EB1 DUP7 DUP3 DUP8 ADD PUSH2 0x2E07 JUMP JUMPDEST SWAP3 POP SWAP3 POP POP SWAP3 POP SWAP3 POP SWAP3 JUMP JUMPDEST PUSH2 0x2EC6 DUP2 PUSH2 0x2CB7 JUMP JUMPDEST DUP2 EQ PUSH2 0x2ED1 JUMPI PUSH1 0x0 DUP1 REVERT JUMPDEST POP JUMP JUMPDEST PUSH1 0x0 DUP2 CALLDATALOAD SWAP1 POP PUSH2 0x2EE3 DUP2 PUSH2 0x2EBD JUMP JUMPDEST SWAP3 SWAP2 POP POP JUMP JUMPDEST PUSH1 0x0 PUSH1 0x20 DUP3 DUP5 SUB SLT ISZERO PUSH2 0x2EFF JUMPI PUSH2 0x2EFE PUSH2 0x29CC JUMP JUMPDEST JUMPDEST PUSH1 0x0 PUSH2 0x2F0D DUP5 DUP3 DUP6 ADD PUSH2 0x2ED4 JUMP JUMPDEST SWAP2 POP POP SWAP3 SWAP2 POP POP JUMP JUMPDEST PUSH2 0x2F1F DUP2 PUSH2 0x2A5B JUMP JUMPDEST DUP2 EQ PUSH2 0x2F2A JUMPI PUSH1 0x0 DUP1 REVERT JUMPDEST POP JUMP JUMPDEST PUSH1 0x0 DUP2 CALLDATALOAD SWAP1 POP PUSH2 0x2F3C DUP2 PUSH2 0x2F16 JUMP JUMPDEST SWAP3 SWAP2 POP POP JUMP JUMPDEST PUSH1 0x0 DUP1 PUSH1 0x40 DUP4 DUP6 SUB SLT ISZERO PUSH2 0x2F59 JUMPI PUSH2 0x2F58 PUSH2 0x29CC JUMP JUMPDEST JUMPDEST PUSH1 0x0 PUSH2 0x2F67 DUP6 DUP3 DUP7 ADD PUSH2 0x2C0F JUMP JUMPDEST SWAP3 POP POP PUSH1 0x20 PUSH2 0x2F78 DUP6 DUP3 DUP7 ADD PUSH2 0x2F2D JUMP JUMPDEST SWAP2 POP POP SWAP3 POP SWAP3 SWAP1 POP JUMP JUMPDEST PUSH1 0x0 DUP1 REVERT JUMPDEST PUSH32 0x4E487B7100000000000000000000000000000000000000000000000000000000 PUSH1 0x0 MSTORE PUSH1 0x41 PUSH1 0x4 MSTORE PUSH1 0x24 PUSH1 0x0 REVERT JUMPDEST PUSH2 0x2FBF DUP3 PUSH2 0x2AD7 JUMP JUMPDEST DUP2 ADD DUP2 DUP2 LT PUSH8 0xFFFFFFFFFFFFFFFF DUP3 GT OR ISZERO PUSH2 0x2FDE JUMPI PUSH2 0x2FDD PUSH2 0x2F87 JUMP JUMPDEST JUMPDEST DUP1 PUSH1 0x40 MSTORE POP POP POP JUMP JUMPDEST PUSH1 0x0 PUSH2 0x2FF1 PUSH2 0x29C2 JUMP JUMPDEST SWAP1 POP PUSH2 0x2FFD DUP3 DUP3 PUSH2 0x2FB6 JUMP JUMPDEST SWAP2 SWAP1 POP JUMP JUMPDEST PUSH1 0x0 PUSH8 0xFFFFFFFFFFFFFFFF DUP3 GT ISZERO PUSH2 0x301D JUMPI PUSH2 0x301C PUSH2 0x2F87 JUMP JUMPDEST JUMPDEST PUSH2 0x3026 DUP3 PUSH2 0x2AD7 JUMP JUMPDEST SWAP1 POP PUSH1 0x20 DUP2 ADD SWAP1 POP SWAP2 SWAP1 POP JUMP JUMPDEST DUP3 DUP2 DUP4 CALLDATACOPY PUSH1 0x0 DUP4 DUP4 ADD MSTORE POP POP POP JUMP JUMPDEST PUSH1 0x0 PUSH2 0x3055 PUSH2 0x3050 DUP5 PUSH2 0x3002 JUMP JUMPDEST PUSH2 0x2FE7 JUMP JUMPDEST SWAP1 POP DUP3 DUP2 MSTORE PUSH1 0x20 DUP2 ADD DUP5 DUP5 DUP5 ADD GT ISZERO PUSH2 0x3071 JUMPI PUSH2 0x3070 PUSH2 0x2F82 JUMP JUMPDEST JUMPDEST PUSH2 0x307C DUP5 DUP3 DUP6 PUSH2 0x3033 JUMP JUMPDEST POP SWAP4 SWAP3 POP POP POP JUMP JUMPDEST PUSH1 0x0 DUP3 PUSH1 0x1F DUP4 ADD SLT PUSH2 0x3099 JUMPI PUSH2 0x3098 PUSH2 0x2DF8 JUMP JUMPDEST JUMPDEST DUP2 CALLDATALOAD PUSH2 0x30A9 DUP5 DUP3 PUSH1 0x20 DUP7 ADD PUSH2 0x3042 JUMP JUMPDEST SWAP2 POP POP SWAP3 SWAP2 POP POP JUMP JUMPDEST PUSH1 0x0 DUP1 PUSH1 0x0 DUP1 PUSH1 0x80 DUP6 DUP8 SUB SLT ISZERO PUSH2 0x30CC JUMPI PUSH2 0x30CB PUSH2 0x29CC JUMP JUMPDEST JUMPDEST PUSH1 0x0 PUSH2 0x30DA DUP8 DUP3 DUP9 ADD PUSH2 0x2C0F JUMP JUMPDEST SWAP5 POP POP PUSH1 0x20 PUSH2 0x30EB DUP8 DUP3 DUP9 ADD PUSH2 0x2C0F JUMP JUMPDEST SWAP4 POP POP PUSH1 0x40 PUSH2 0x30FC DUP8 DUP3 DUP9 ADD PUSH2 0x2B5A JUMP JUMPDEST SWAP3 POP POP PUSH1 0x60 DUP6 ADD CALLDATALOAD PUSH8 0xFFFFFFFFFFFFFFFF DUP2 GT ISZERO PUSH2 0x311D JUMPI PUSH2 0x311C PUSH2 0x29D1 JUMP JUMPDEST JUMPDEST PUSH2 0x3129 DUP8 DUP3 DUP9 ADD PUSH2 0x3084 JUMP JUMPDEST SWAP2 POP POP SWAP3 SWAP6 SWAP2 SWAP5 POP SWAP3 POP JUMP JUMPDEST PUSH1 0x0 DUP1 PUSH1 0x0 PUSH1 0x40 DUP5 DUP7 SUB SLT ISZERO PUSH2 0x314E JUMPI PUSH2 0x314D PUSH2 0x29CC JUMP JUMPDEST JUMPDEST PUSH1 0x0 PUSH2 0x315C DUP7 DUP3 DUP8 ADD PUSH2 0x2B5A JUMP JUMPDEST SWAP4 POP POP PUSH1 0x20 DUP5 ADD CALLDATALOAD PUSH8 0xFFFFFFFFFFFFFFFF DUP2 GT ISZERO PUSH2 0x317D JUMPI PUSH2 0x317C PUSH2 0x29D1 JUMP JUMPDEST JUMPDEST PUSH2 0x3189 DUP7 DUP3 DUP8 ADD PUSH2 0x2E07 JUMP JUMPDEST SWAP3 POP SWAP3 POP POP SWAP3 POP SWAP3 POP SWAP3 JUMP JUMPDEST PUSH1 0x0 DUP1 PUSH1 0x40 DUP4 DUP6 SUB SLT ISZERO PUSH2 0x31AC JUMPI PUSH2 0x31AB PUSH2 0x29CC JUMP JUMPDEST JUMPDEST PUSH1 0x0 PUSH2 0x31BA DUP6 DUP3 DUP7 ADD PUSH2 0x2C0F JUMP JUMPDEST SWAP3 POP POP PUSH1 0x20 PUSH2 0x31CB DUP6 DUP3 DUP7 ADD PUSH2 0x2C0F JUMP JUMPDEST SWAP2 POP POP SWAP3 POP SWAP3 SWAP1 POP JUMP JUMPDEST PUSH1 0x0 PUSH1 0x20 DUP3 DUP5 SUB SLT ISZERO PUSH2 0x31EB JUMPI PUSH2 0x31EA PUSH2 0x29CC JUMP JUMPDEST JUMPDEST PUSH1 0x0 PUSH2 0x31F9 DUP5 DUP3 DUP6 ADD PUSH2 0x2F2D JUMP JUMPDEST SWAP2 POP POP SWAP3 SWAP2 POP POP JUMP JUMPDEST PUSH32 0x4E487B7100000000000000000000000000000000000000000000000000000000 PUSH1 0x0 MSTORE PUSH1 0x22 PUSH1 0x4 MSTORE PUSH1 0x24 PUSH1 0x0 REVERT JUMPDEST PUSH1 0x0 PUSH1 0x2 DUP3 DIV SWAP1 POP PUSH1 0x1 DUP3 AND DUP1 PUSH2 0x3249 JUMPI PUSH1 0x7F DUP3 AND SWAP2 POP JUMPDEST PUSH1 0x20 DUP3 LT DUP2 SUB PUSH2 0x325C JUMPI PUSH2 0x325B PUSH2 0x3202 JUMP JUMPDEST JUMPDEST POP SWAP2 SWAP1 POP JUMP JUMPDEST PUSH32 0x4552433732313A20617070726F76616C20746F2063757272656E74206F776E65 PUSH1 0x0 DUP3 ADD MSTORE PUSH32 0x7200000000000000000000000000000000000000000000000000000000000000 PUSH1 0x20 DUP3 ADD MSTORE POP JUMP JUMPDEST PUSH1 0x0 PUSH2 0x32BE PUSH1 0x21 DUP4 PUSH2 0x2A9C JUMP JUMPDEST SWAP2 POP PUSH2 0x32C9 DUP3 PUSH2 0x3262 JUMP JUMPDEST PUSH1 0x40 DUP3 ADD SWAP1 POP SWAP2 SWAP1 POP JUMP JUMPDEST PUSH1 0x0 PUSH1 0x20 DUP3 ADD SWAP1 POP DUP2 DUP2 SUB PUSH1 0x0 DUP4 ADD MSTORE PUSH2 0x32ED DUP2 PUSH2 0x32B1 JUMP JUMPDEST SWAP1 POP SWAP2 SWAP1 POP JUMP JUMPDEST PUSH32 0x4552433732313A20617070726F76652063616C6C6572206973206E6F7420746F PUSH1 0x0 DUP3 ADD MSTORE PUSH32 0x6B656E206F776E6572206E6F7220617070726F76656420666F7220616C6C0000 PUSH1 0x20 DUP3 ADD MSTORE POP JUMP JUMPDEST PUSH1 0x0 PUSH2 0x3350 PUSH1 0x3E DUP4 PUSH2 0x2A9C JUMP JUMPDEST SWAP2 POP PUSH2 0x335B DUP3 PUSH2 0x32F4 JUMP JUMPDEST PUSH1 0x40 DUP3 ADD SWAP1 POP SWAP2 SWAP1 POP JUMP JUMPDEST PUSH1 0x0 PUSH1 0x20 DUP3 ADD SWAP1 POP DUP2 DUP2 SUB PUSH1 0x0 DUP4 ADD MSTORE PUSH2 0x337F DUP2 PUSH2 0x3343 JUMP JUMPDEST SWAP1 POP SWAP2 SWAP1 POP JUMP JUMPDEST PUSH32 0x4552433732313A2063616C6C6572206973206E6F7420746F6B656E206F776E65 PUSH1 0x0 DUP3 ADD MSTORE PUSH32 0x72206E6F7220617070726F766564000000000000000000000000000000000000 PUSH1 0x20 DUP3 ADD MSTORE POP JUMP JUMPDEST PUSH1 0x0 PUSH2 0x33E2 PUSH1 0x2E DUP4 PUSH2 0x2A9C JUMP JUMPDEST SWAP2 POP PUSH2 0x33ED DUP3 PUSH2 0x3386 JUMP JUMPDEST PUSH1 0x40 DUP3 ADD SWAP1 POP SWAP2 SWAP1 POP JUMP JUMPDEST PUSH1 0x0 PUSH1 0x20 DUP3 ADD SWAP1 POP DUP2 DUP2 SUB PUSH1 0x0 DUP4 ADD MSTORE PUSH2 0x3411 DUP2 PUSH2 0x33D5 JUMP JUMPDEST SWAP1 POP SWAP2 SWAP1 POP JUMP JUMPDEST PUSH32 0x455243373231456E756D657261626C653A206F776E657220696E646578206F75 PUSH1 0x0 DUP3 ADD MSTORE PUSH32 0x74206F6620626F756E6473000000000000000000000000000000000000000000 PUSH1 0x20 DUP3 ADD MSTORE POP JUMP JUMPDEST PUSH1 0x0 PUSH2 0x3474 PUSH1 0x2B DUP4 PUSH2 0x2A9C JUMP JUMPDEST SWAP2 POP PUSH2 0x347F DUP3 PUSH2 0x3418 JUMP JUMPDEST PUSH1 0x40 DUP3 ADD SWAP1 POP SWAP2 SWAP1 POP JUMP JUMPDEST PUSH1 0x0 PUSH1 0x20 DUP3 ADD SWAP1 POP DUP2 DUP2 SUB PUSH1 0x0 DUP4 ADD MSTORE PUSH2 0x34A3 DUP2 PUSH2 0x3467 JUMP JUMPDEST SWAP1 POP SWAP2 SWAP1 POP JUMP JUMPDEST PUSH1 0x0 DUP2 SWAP1 POP SWAP3 SWAP2 POP POP JUMP JUMPDEST POP JUMP JUMPDEST PUSH1 0x0 PUSH2 0x34C5 PUSH1 0x0 DUP4 PUSH2 0x34AA JUMP JUMPDEST SWAP2 POP PUSH2 0x34D0 DUP3 PUSH2 0x34B5 JUMP JUMPDEST PUSH1 0x0 DUP3 ADD SWAP1 POP SWAP2 SWAP1 POP JUMP JUMPDEST PUSH1 0x0 PUSH2 0x34E6 DUP3 PUSH2 0x34B8 JUMP JUMPDEST SWAP2 POP DUP2 SWAP1 POP SWAP2 SWAP1 POP JUMP JUMPDEST PUSH1 0x0 PUSH1 0x40 DUP3 ADD SWAP1 POP PUSH2 0x3505 PUSH1 0x0 DUP4 ADD DUP6 PUSH2 0x2998 JUMP JUMPDEST PUSH2 0x3512 PUSH1 0x20 DUP4 ADD DUP5 PUSH2 0x2BCE JUMP JUMPDEST SWAP4 SWAP3 POP POP POP JUMP JUMPDEST PUSH32 0x4E487B7100000000000000000000000000000000000000000000000000000000 PUSH1 0x0 MSTORE PUSH1 0x32 PUSH1 0x4 MSTORE PUSH1 0x24 PUSH1 0x0 REVERT JUMPDEST PUSH32 0x4E487B7100000000000000000000000000000000000000000000000000000000 PUSH1 0x0 MSTORE PUSH1 0x11 PUSH1 0x4 MSTORE PUSH1 0x24 PUSH1 0x0 REVERT JUMPDEST PUSH1 0x0 PUSH2 0x3582 DUP3 PUSH2 0x298E JUMP JUMPDEST SWAP2 POP PUSH32 0xFFFFFFFFFFFFFFFFFFFFFFFFFFFFFFFFFFFFFFFFFFFFFFFFFFFFFFFFFFFFFFFF DUP3 SUB PUSH2 0x35B4 JUMPI PUSH2 0x35B3 PUSH2 0x3548 JUMP JUMPDEST JUMPDEST PUSH1 0x1 DUP3 ADD SWAP1 POP SWAP2 SWAP1 POP JUMP JUMPDEST PUSH32 0x455243373231456E756D657261626C653A20676C6F62616C20696E646578206F PUSH1 0x0 DUP3 ADD MSTORE PUSH32 0x7574206F6620626F756E64730000000000000000000000000000000000000000 PUSH1 0x20 DUP3 ADD MSTORE POP JUMP JUMPDEST PUSH1 0x0 PUSH2 0x361B PUSH1 0x2C DUP4 PUSH2 0x2A9C JUMP JUMPDEST SWAP2 POP PUSH2 0x3626 DUP3 PUSH2 0x35BF JUMP JUMPDEST PUSH1 0x40 DUP3 ADD SWAP1 POP SWAP2 SWAP1 POP JUMP JUMPDEST PUSH1 0x0 PUSH1 0x20 DUP3 ADD SWAP1 POP DUP2 DUP2 SUB PUSH1 0x0 DUP4 ADD MSTORE PUSH2 0x364A DUP2 PUSH2 0x360E JUMP JUMPDEST SWAP1 POP SWAP2 SWAP1 POP JUMP JUMPDEST PUSH1 0x0 DUP2 PUSH1 0x60 SHL SWAP1 POP SWAP2 SWAP1 POP JUMP JUMPDEST PUSH1 0x0 PUSH2 0x3669 DUP3 PUSH2 0x3651 JUMP JUMPDEST SWAP1 POP SWAP2 SWAP1 POP JUMP JUMPDEST PUSH1 0x0 PUSH2 0x367B DUP3 PUSH2 0x365E JUMP JUMPDEST SWAP1 POP SWAP2 SWAP1 POP JUMP JUMPDEST PUSH2 0x3693 PUSH2 0x368E DUP3 PUSH2 0x2BBC JUMP JUMPDEST PUSH2 0x3670 JUMP JUMPDEST DUP3 MSTORE POP POP JUMP JUMPDEST PUSH1 0x0 PUSH2 0x36A5 DUP3 DUP5 PUSH2 0x3682 JUMP JUMPDEST PUSH1 0x14 DUP3 ADD SWAP2 POP DUP2 SWAP1 POP SWAP3 SWAP2 POP POP JUMP JUMPDEST PUSH32 0x4552433732313A20696E76616C696420746F6B656E2049440000000000000000 PUSH1 0x0 DUP3 ADD MSTORE POP JUMP JUMPDEST PUSH1 0x0 PUSH2 0x36EA PUSH1 0x18 DUP4 PUSH2 0x2A9C JUMP JUMPDEST SWAP2 POP PUSH2 0x36F5 DUP3 PUSH2 0x36B4 JUMP JUMPDEST PUSH1 0x20 DUP3 ADD SWAP1 POP SWAP2 SWAP1 POP JUMP JUMPDEST PUSH1 0x0 PUSH1 0x20 DUP3 ADD SWAP1 POP DUP2 DUP2 SUB PUSH1 0x0 DUP4 ADD MSTORE PUSH2 0x3719 DUP2 PUSH2 0x36DD JUMP JUMPDEST SWAP1 POP SWAP2 SWAP1 POP JUMP JUMPDEST PUSH32 0x4552433732313A2061646472657373207A65726F206973206E6F742061207661 PUSH1 0x0 DUP3 ADD MSTORE PUSH32 0x6C6964206F776E65720000000000000000000000000000000000000000000000 PUSH1 0x20 DUP3 ADD MSTORE POP JUMP JUMPDEST PUSH1 0x0 PUSH2 0x377C PUSH1 0x29 DUP4 PUSH2 0x2A9C JUMP JUMPDEST SWAP2 POP PUSH2 0x3787 DUP3 PUSH2 0x3720 JUMP JUMPDEST PUSH1 0x40 DUP3 ADD SWAP1 POP SWAP2 SWAP1 POP JUMP JUMPDEST PUSH1 0x0 PUSH1 0x20 DUP3 ADD SWAP1 POP DUP2 DUP2 SUB PUSH1 0x0 DUP4 ADD MSTORE PUSH2 0x37AB DUP2 PUSH2 0x376F JUMP JUMPDEST SWAP1 POP SWAP2 SWAP1 POP JUMP JUMPDEST PUSH1 0x0 PUSH2 0x37BD DUP3 PUSH2 0x298E JUMP JUMPDEST SWAP2 POP PUSH2 0x37C8 DUP4 PUSH2 0x298E JUMP JUMPDEST SWAP3 POP DUP3 DUP3 MUL PUSH2 0x37D6 DUP2 PUSH2 0x298E JUMP JUMPDEST SWAP2 POP DUP3 DUP3 DIV DUP5 EQ DUP4 ISZERO OR PUSH2 0x37ED JUMPI PUSH2 0x37EC PUSH2 0x3548 JUMP JUMPDEST JUMPDEST POP SWAP3 SWAP2 POP POP JUMP JUMPDEST PUSH32 0x43616E6E6F74206D696E74206D6F7265207468616E206D61784D696E74416D6F PUSH1 0x0 DUP3 ADD MSTORE PUSH32 0x756E740000000000000000000000000000000000000000000000000000000000 PUSH1 0x20 DUP3 ADD MSTORE POP JUMP JUMPDEST PUSH1 0x0 PUSH2 0x3850 PUSH1 0x23 DUP4 PUSH2 0x2A9C JUMP JUMPDEST SWAP2 POP PUSH2 0x385B DUP3 PUSH2 0x37F4 JUMP JUMPDEST PUSH1 0x40 DUP3 ADD SWAP1 POP SWAP2 SWAP1 POP JUMP JUMPDEST PUSH1 0x0 PUSH1 0x20 DUP3 ADD SWAP1 POP DUP2 DUP2 SUB PUSH1 0x0 DUP4 ADD MSTORE PUSH2 0x387F DUP2 PUSH2 0x3843 JUMP JUMPDEST SWAP1 POP SWAP2 SWAP1 POP JUMP JUMPDEST PUSH32 0x496E76616C6964206D65726B6C652070726F6F66000000000000000000000000 PUSH1 0x0 DUP3 ADD MSTORE POP JUMP JUMPDEST PUSH1 0x0 PUSH2 0x38BC PUSH1 0x14 DUP4 PUSH2 0x2A9C JUMP JUMPDEST SWAP2 POP PUSH2 0x38C7 DUP3 PUSH2 0x3886 JUMP JUMPDEST PUSH1 0x20 DUP3 ADD SWAP1 POP SWAP2 SWAP1 POP JUMP JUMPDEST PUSH1 0x0 PUSH1 0x20 DUP3 ADD SWAP1 POP DUP2 DUP2 SUB PUSH1 0x0 DUP4 ADD MSTORE PUSH2 0x38EB DUP2 PUSH2 0x38AF JUMP JUMPDEST SWAP1 POP SWAP2 SWAP1 POP JUMP JUMPDEST PUSH1 0x0 PUSH2 0x38FD DUP3 PUSH2 0x298E JUMP JUMPDEST SWAP2 POP PUSH2 0x3908 DUP4 PUSH2 0x298E JUMP JUMPDEST SWAP3 POP DUP3 DUP3 ADD SWAP1 POP DUP1 DUP3 GT ISZERO PUSH2 0x3920 JUMPI PUSH2 0x391F PUSH2 0x3548 JUMP JUMPDEST JUMPDEST SWAP3 SWAP2 POP POP JUMP JUMPDEST PUSH32 0x4552433732314D657461646174613A2055524920717565727920666F72206E6F PUSH1 0x0 DUP3 ADD MSTORE PUSH32 0x6E6578697374656E7420746F6B656E0000000000000000000000000000000000 PUSH1 0x20 DUP3 ADD MSTORE POP JUMP JUMPDEST PUSH1 0x0 PUSH2 0x3982 PUSH1 0x2F DUP4 PUSH2 0x2A9C JUMP JUMPDEST SWAP2 POP PUSH2 0x398D DUP3 PUSH2 0x3926 JUMP JUMPDEST PUSH1 0x40 DUP3 ADD SWAP1 POP SWAP2 SWAP1 POP JUMP JUMPDEST PUSH1 0x0 PUSH1 0x20 DUP3 ADD SWAP1 POP DUP2 DUP2 SUB PUSH1 0x0 DUP4 ADD MSTORE PUSH2 0x39B1 DUP2 PUSH2 0x3975 JUMP JUMPDEST SWAP1 POP SWAP2 SWAP1 POP JUMP JUMPDEST PUSH1 0x0 DUP2 SWAP1 POP SWAP3 SWAP2 POP POP JUMP JUMPDEST PUSH1 0x0 DUP2 SWAP1 POP DUP2 PUSH1 0x0 MSTORE PUSH1 0x20 PUSH1 0x0 KECCAK256 SWAP1 POP SWAP2 SWAP1 POP JUMP JUMPDEST PUSH1 0x0 DUP2 SLOAD PUSH2 0x39E5 DUP2 PUSH2 0x3231 JUMP JUMPDEST PUSH2 0x39EF DUP2 DUP7 PUSH2 0x39B8 JUMP JUMPDEST SWAP5 POP PUSH1 0x1 DUP3 AND PUSH1 0x0 DUP2 EQ PUSH2 0x3A0A JUMPI PUSH1 0x1 DUP2 EQ PUSH2 0x3A1F JUMPI PUSH2 0x3A52 JUMP JUMPDEST PUSH1 0xFF NOT DUP4 AND DUP7 MSTORE DUP2 ISZERO ISZERO DUP3 MUL DUP7 ADD SWAP4 POP PUSH2 0x3A52 JUMP JUMPDEST PUSH2 0x3A28 DUP6 PUSH2 0x39C3 JUMP JUMPDEST PUSH1 0x0 JUMPDEST DUP4 DUP2 LT ISZERO PUSH2 0x3A4A JUMPI DUP2 SLOAD DUP2 DUP10 ADD MSTORE PUSH1 0x1 DUP3 ADD SWAP2 POP PUSH1 0x20 DUP2 ADD SWAP1 POP PUSH2 0x3A2B JUMP JUMPDEST DUP4 DUP9 ADD SWAP6 POP POP POP JUMPDEST POP POP POP SWAP3 SWAP2 POP POP JUMP JUMPDEST PUSH1 0x0 PUSH2 0x3A66 DUP3 PUSH2 0x2A91 JUMP JUMPDEST PUSH2 0x3A70 DUP2 DUP6 PUSH2 0x39B8 JUMP JUMPDEST SWAP4 POP PUSH2 0x3A80 DUP2 DUP6 PUSH1 0x20 DUP7 ADD PUSH2 0x2AAD JUMP JUMPDEST DUP1 DUP5 ADD SWAP2 POP POP SWAP3 SWAP2 POP POP JUMP JUMPDEST PUSH1 0x0 PUSH2 0x3A98 DUP3 DUP7 PUSH2 0x39D8 JUMP JUMPDEST SWAP2 POP PUSH2 0x3AA4 DUP3 DUP6 PUSH2 0x3A5B JUMP JUMPDEST SWAP2 POP PUSH2 0x3AB0 DUP3 DUP5 PUSH2 0x39D8 JUMP JUMPDEST SWAP2 POP DUP2 SWAP1 POP SWAP5 SWAP4 POP POP POP POP JUMP JUMPDEST PUSH32 0x4F776E61626C653A206E6577206F776E657220697320746865207A65726F2061 PUSH1 0x0 DUP3 ADD MSTORE PUSH32 0x6464726573730000000000000000000000000000000000000000000000000000 PUSH1 0x20 DUP3 ADD MSTORE POP JUMP JUMPDEST PUSH1 0x0 PUSH2 0x3B19 PUSH1 0x26 DUP4 PUSH2 0x2A9C JUMP JUMPDEST SWAP2 POP PUSH2 0x3B24 DUP3 PUSH2 0x3ABD JUMP JUMPDEST PUSH1 0x40 DUP3 ADD SWAP1 POP SWAP2 SWAP1 POP JUMP JUMPDEST PUSH1 0x0 PUSH1 0x20 DUP3 ADD SWAP1 POP DUP2 DUP2 SUB PUSH1 0x0 DUP4 ADD MSTORE PUSH2 0x3B48 DUP2 PUSH2 0x3B0C JUMP JUMPDEST SWAP1 POP SWAP2 SWAP1 POP JUMP JUMPDEST PUSH32 0x4F776E61626C653A2063616C6C6572206973206E6F7420746865206F776E6572 PUSH1 0x0 DUP3 ADD MSTORE POP JUMP JUMPDEST PUSH1 0x0 PUSH2 0x3B85 PUSH1 0x20 DUP4 PUSH2 0x2A9C JUMP JUMPDEST SWAP2 POP PUSH2 0x3B90 DUP3 PUSH2 0x3B4F JUMP JUMPDEST PUSH1 0x20 DUP3 ADD SWAP1 POP SWAP2 SWAP1 POP JUMP JUMPDEST PUSH1 0x0 PUSH1 0x20 DUP3 ADD SWAP1 POP DUP2 DUP2 SUB PUSH1 0x0 DUP4 ADD MSTORE PUSH2 0x3BB4 DUP2 PUSH2 0x3B78 JUMP JUMPDEST SWAP1 POP SWAP2 SWAP1 POP JUMP JUMPDEST PUSH32 0x4552433732313A207472616E736665722066726F6D20696E636F727265637420 PUSH1 0x0 DUP3 ADD MSTORE PUSH32 0x6F776E6572000000000000000000000000000000000000000000000000000000 PUSH1 0x20 DUP3 ADD MSTORE POP JUMP JUMPDEST PUSH1 0x0 PUSH2 0x3C17 PUSH1 0x25 DUP4 PUSH2 0x2A9C JUMP JUMPDEST SWAP2 POP PUSH2 0x3C22 DUP3 PUSH2 0x3BBB JUMP JUMPDEST PUSH1 0x40 DUP3 ADD SWAP1 POP SWAP2 SWAP1 POP JUMP JUMPDEST PUSH1 0x0 PUSH1 0x20 DUP3 ADD SWAP1 POP DUP2 DUP2 SUB PUSH1 0x0 DUP4 ADD MSTORE PUSH2 0x3C46 DUP2 PUSH2 0x3C0A JUMP JUMPDEST SWAP1 POP SWAP2 SWAP1 POP JUMP JUMPDEST PUSH32 0x4552433732313A207472616E7366657220746F20746865207A65726F20616464 PUSH1 0x0 DUP3 ADD MSTORE PUSH32 0x7265737300000000000000000000000000000000000000000000000000000000 PUSH1 0x20 DUP3 ADD MSTORE POP JUMP JUMPDEST PUSH1 0x0 PUSH2 0x3CA9 PUSH1 0x24 DUP4 PUSH2 0x2A9C JUMP JUMPDEST SWAP2 POP PUSH2 0x3CB4 DUP3 PUSH2 0x3C4D JUMP JUMPDEST PUSH1 0x40 DUP3 ADD SWAP1 POP SWAP2 SWAP1 POP JUMP JUMPDEST PUSH1 0x0 PUSH1 0x20 DUP3 ADD SWAP1 POP DUP2 DUP2 SUB PUSH1 0x0 DUP4 ADD MSTORE PUSH2 0x3CD8 DUP2 PUSH2 0x3C9C JUMP JUMPDEST SWAP1 POP SWAP2 SWAP1 POP JUMP JUMPDEST PUSH1 0x0 PUSH2 0x3CEA DUP3 PUSH2 0x298E JUMP JUMPDEST SWAP2 POP PUSH2 0x3CF5 DUP4 PUSH2 0x298E JUMP JUMPDEST SWAP3 POP DUP3 DUP3 SUB SWAP1 POP DUP2 DUP2 GT ISZERO PUSH2 0x3D0D JUMPI PUSH2 0x3D0C PUSH2 0x3548 JUMP JUMPDEST JUMPDEST SWAP3 SWAP2 POP POP JUMP JUMPDEST PUSH32 0x4552433732313A20617070726F766520746F2063616C6C657200000000000000 PUSH1 0x0 DUP3 ADD MSTORE POP JUMP JUMPDEST PUSH1 0x0 PUSH2 0x3D49 PUSH1 0x19 DUP4 PUSH2 0x2A9C JUMP JUMPDEST SWAP2 POP PUSH2 0x3D54 DUP3 PUSH2 0x3D13 JUMP JUMPDEST PUSH1 0x20 DUP3 ADD SWAP1 POP SWAP2 SWAP1 POP JUMP JUMPDEST PUSH1 0x0 PUSH1 0x20 DUP3 ADD SWAP1 POP DUP2 DUP2 SUB PUSH1 0x0 DUP4 ADD MSTORE PUSH2 0x3D78 DUP2 PUSH2 0x3D3C JUMP JUMPDEST SWAP1 POP SWAP2 SWAP1 POP JUMP JUMPDEST PUSH32 0x4552433732313A207472616E7366657220746F206E6F6E204552433732315265 PUSH1 0x0 DUP3 ADD MSTORE PUSH32 0x63656976657220696D706C656D656E7465720000000000000000000000000000 PUSH1 0x20 DUP3 ADD MSTORE POP JUMP JUMPDEST PUSH1 0x0 PUSH2 0x3DDB PUSH1 0x32 DUP4 PUSH2 0x2A9C JUMP JUMPDEST SWAP2 POP PUSH2 0x3DE6 DUP3 PUSH2 0x3D7F JUMP JUMPDEST PUSH1 0x40 DUP3 ADD SWAP1 POP SWAP2 SWAP1 POP JUMP JUMPDEST PUSH1 0x0 PUSH1 0x20 DUP3 ADD SWAP1 POP DUP2 DUP2 SUB PUSH1 0x0 DUP4 ADD MSTORE PUSH2 0x3E0A DUP2 PUSH2 0x3DCE JUMP JUMPDEST SWAP1 POP SWAP2 SWAP1 POP JUMP JUMPDEST PUSH32 0x4E487B7100000000000000000000000000000000000000000000000000000000 PUSH1 0x0 MSTORE PUSH1 0x12 PUSH1 0x4 MSTORE PUSH1 0x24 PUSH1 0x0 REVERT JUMPDEST PUSH1 0x0 PUSH2 0x3E4B DUP3 PUSH2 0x298E JUMP JUMPDEST SWAP2 POP PUSH2 0x3E56 DUP4 PUSH2 0x298E JUMP JUMPDEST SWAP3 POP DUP3 PUSH2 0x3E66 JUMPI PUSH2 0x3E65 PUSH2 0x3E11 JUMP JUMPDEST JUMPDEST DUP3 DUP3 DIV SWAP1 POP SWAP3 SWAP2 POP POP JUMP JUMPDEST PUSH1 0x0 PUSH2 0x3E7C DUP3 PUSH2 0x298E JUMP JUMPDEST SWAP2 POP PUSH2 0x3E87 DUP4 PUSH2 0x298E JUMP JUMPDEST SWAP3 POP DUP3 PUSH2 0x3E97 JUMPI PUSH2 0x3E96 PUSH2 0x3E11 JUMP JUMPDEST JUMPDEST DUP3 DUP3 MOD SWAP1 POP SWAP3 SWAP2 POP POP JUMP JUMPDEST PUSH1 0x0 DUP2 MLOAD SWAP1 POP SWAP2 SWAP1 POP JUMP JUMPDEST PUSH1 0x0 DUP3 DUP3 MSTORE PUSH1 0x20 DUP3 ADD SWAP1 POP SWAP3 SWAP2 POP POP JUMP JUMPDEST PUSH1 0x0 PUSH2 0x3EC9 DUP3 PUSH2 0x3EA2 JUMP JUMPDEST PUSH2 0x3ED3 DUP2 DUP6 PUSH2 0x3EAD JUMP JUMPDEST SWAP4 POP PUSH2 0x3EE3 DUP2 DUP6 PUSH1 0x20 DUP7 ADD PUSH2 0x2AAD JUMP JUMPDEST PUSH2 0x3EEC DUP2 PUSH2 0x2AD7 JUMP JUMPDEST DUP5 ADD SWAP2 POP POP SWAP3 SWAP2 POP POP JUMP JUMPDEST PUSH1 0x0 PUSH1 0x80 DUP3 ADD SWAP1 POP PUSH2 0x3F0C PUSH1 0x0 DUP4 ADD DUP8 PUSH2 0x2BCE JUMP JUMPDEST PUSH2 0x3F19 PUSH1 0x20 DUP4 ADD DUP7 PUSH2 0x2BCE JUMP JUMPDEST PUSH2 0x3F26 PUSH1 0x40 DUP4 ADD DUP6 PUSH2 0x2998 JUMP JUMPDEST DUP2 DUP2 SUB PUSH1 0x60 DUP4 ADD MSTORE PUSH2 0x3F38 DUP2 DUP5 PUSH2 0x3EBE JUMP JUMPDEST SWAP1 POP SWAP6 SWAP5 POP POP POP POP POP JUMP JUMPDEST PUSH1 0x0 DUP2 MLOAD SWAP1 POP PUSH2 0x3F52 DUP2 PUSH2 0x2A02 JUMP JUMPDEST SWAP3 SWAP2 POP POP JUMP JUMPDEST PUSH1 0x0 PUSH1 0x20 DUP3 DUP5 SUB SLT ISZERO PUSH2 0x3F6E JUMPI PUSH2 0x3F6D PUSH2 0x29CC JUMP JUMPDEST JUMPDEST PUSH1 0x0 PUSH2 0x3F7C DUP5 DUP3 DUP6 ADD PUSH2 0x3F43 JUMP JUMPDEST SWAP2 POP POP SWAP3 SWAP2 POP POP JUMP JUMPDEST PUSH32 0x4E487B7100000000000000000000000000000000000000000000000000000000 PUSH1 0x0 MSTORE PUSH1 0x31 PUSH1 0x4 MSTORE PUSH1 0x24 PUSH1 0x0 REVERT JUMPDEST PUSH32 0x4552433732313A206D696E7420746F20746865207A65726F2061646472657373 PUSH1 0x0 DUP3 ADD MSTORE POP JUMP JUMPDEST PUSH1 0x0 PUSH2 0x3FEA PUSH1 0x20 DUP4 PUSH2 0x2A9C JUMP JUMPDEST SWAP2 POP PUSH2 0x3FF5 DUP3 PUSH2 0x3FB4 JUMP JUMPDEST PUSH1 0x20 DUP3 ADD SWAP1 POP SWAP2 SWAP1 POP JUMP JUMPDEST PUSH1 0x0 PUSH1 0x20 DUP3 ADD SWAP1 POP DUP2 DUP2 SUB PUSH1 0x0 DUP4 ADD MSTORE PUSH2 0x4019 DUP2 PUSH2 0x3FDD JUMP JUMPDEST SWAP1 POP SWAP2 SWAP1 POP JUMP JUMPDEST PUSH32 0x4552433732313A20746F6B656E20616C7265616479206D696E74656400000000 PUSH1 0x0 DUP3 ADD MSTORE POP JUMP JUMPDEST PUSH1 0x0 PUSH2 0x4056 PUSH1 0x1C DUP4 PUSH2 0x2A9C JUMP JUMPDEST SWAP2 POP PUSH2 0x4061 DUP3 PUSH2 0x4020 JUMP JUMPDEST PUSH1 0x20 DUP3 ADD SWAP1 POP SWAP2 SWAP1 POP JUMP JUMPDEST PUSH1 0x0 PUSH1 0x20 DUP3 ADD SWAP1 POP DUP2 DUP2 SUB PUSH1 0x0 DUP4 ADD MSTORE PUSH2 0x4085 DUP2 PUSH2 0x4049 JUMP JUMPDEST SWAP1 POP SWAP2 SWAP1 POP JUMP INVALID LOG2 PUSH5 0x6970667358 0x22 SLT KECCAK256 REVERT LOG2 0xCE 0xD8 CHAINID 0xCC 0xE1 SWAP13 0xBC SELFBALANCE JUMPI PUSH16 0xF64D189C100C19E3732408409CB7BBD8 0x5D 0xC8 0xF6 0xC3 PUSH5 0x736F6C6343 STOP ADDMOD EQ STOP CALLER "},"methodIdentifiers":{"allowMintingOn()":"01467996","approve(address,uint256)":"095ea7b3","balanceOf(address)":"70a08231","baseExtension()":"c6682862","baseURI()":"6c0360eb","cost()":"13faede6","getApproved(uint256)":"081812fc","isApprovedForAll(address,address)":"e985e9c5","isWhitelisted(address,bytes32[])":"5a23dd99","maxMintAmount()":"239c70ae","maxSupply()":"d5abeb01","merkleRoot()":"2eb4a7ab","mint(uint256,bytes32[])":"ba41b0c6","name()":"06fdde03","owner()":"8da5cb5b","ownerOf(uint256)":"6352211e","renounceOwnership()":"715018a6","safeTransferFrom(address,address,uint256)":"42842e0e","safeTransferFrom(address,address,uint256,bytes)":"b88d4fde","setApprovalForAll(address,bool)":"a22cb465","setCost(uint256)":"44a0d68a","setMaxMintAmount(uint256)":"088a4ed0","setMerkleRoot(bytes32)":"7cb64759","setWhitelistOnly(bool)":"ea05a8c6","supportsInterface(bytes4)":"01ffc9a7","symbol()":"95d89b41","tokenByIndex(uint256)":"4f6ccce7","tokenOfOwnerByIndex(address,uint256)":"2f745c59","tokenURI(uint256)":"c87b56dd","totalSupply()":"18160ddd","transferFrom(address,address,uint256)":"23b872dd","transferOwnership(address)":"f2fde38b","walletOfOwner(address)":"438b6300","whitelistOnly()":"4b4687b5","withdraw()":"3ccfd60b"}}}}}